{
  "_format": "hh-sol-artifact-1",
  "contractName": "TokenDualTax",
  "sourceName": "contracts/Tokens.sol",
  "abi": [
    {
      "inputs": [
        {
          "internalType": "string",
          "name": "n",
          "type": "string"
        },
        {
          "internalType": "string",
          "name": "s",
          "type": "string"
        },
        {
          "internalType": "uint8",
          "name": "dec",
          "type": "uint8"
        },
        {
          "internalType": "uint256",
          "name": "supply",
          "type": "uint256"
        },
        {
          "internalType": "uint8",
          "name": "sellCom",
          "type": "uint8"
        },
        {
          "internalType": "uint8",
          "name": "buyCom",
          "type": "uint8"
        }
      ],
      "stateMutability": "nonpayable",
      "type": "constructor"
    },
    {
      "anonymous": false,
      "inputs": [
        {
          "indexed": true,
          "internalType": "address",
          "name": "owner",
          "type": "address"
        },
        {
          "indexed": true,
          "internalType": "address",
          "name": "spender",
          "type": "address"
        },
        {
          "indexed": false,
          "internalType": "uint256",
          "name": "value",
          "type": "uint256"
        }
      ],
      "name": "Approval",
      "type": "event"
    },
    {
      "anonymous": false,
      "inputs": [
        {
          "indexed": true,
          "internalType": "address",
          "name": "previousOwner",
          "type": "address"
        },
        {
          "indexed": true,
          "internalType": "address",
          "name": "newOwner",
          "type": "address"
        }
      ],
      "name": "OwnershipTransferred",
      "type": "event"
    },
    {
      "anonymous": false,
      "inputs": [
        {
          "indexed": true,
          "internalType": "address",
          "name": "from",
          "type": "address"
        },
        {
          "indexed": true,
          "internalType": "address",
          "name": "to",
          "type": "address"
        },
        {
          "indexed": false,
          "internalType": "uint256",
          "name": "value",
          "type": "uint256"
        }
      ],
      "name": "Transfer",
      "type": "event"
    },
    {
      "inputs": [],
      "name": "_buyCom",
      "outputs": [
        {
          "internalType": "uint8",
          "name": "",
          "type": "uint8"
        }
      ],
      "stateMutability": "view",
      "type": "function"
    },
    {
      "inputs": [],
      "name": "_decimals",
      "outputs": [
        {
          "internalType": "uint8",
          "name": "",
          "type": "uint8"
        }
      ],
      "stateMutability": "view",
      "type": "function"
    },
    {
      "inputs": [],
      "name": "_name",
      "outputs": [
        {
          "internalType": "string",
          "name": "",
          "type": "string"
        }
      ],
      "stateMutability": "view",
      "type": "function"
    },
    {
      "inputs": [],
      "name": "_sellCom",
      "outputs": [
        {
          "internalType": "uint8",
          "name": "",
          "type": "uint8"
        }
      ],
      "stateMutability": "view",
      "type": "function"
    },
    {
      "inputs": [],
      "name": "_symbol",
      "outputs": [
        {
          "internalType": "string",
          "name": "",
          "type": "string"
        }
      ],
      "stateMutability": "view",
      "type": "function"
    },
    {
      "inputs": [
        {
          "internalType": "address",
          "name": "addressOwner",
          "type": "address"
        },
        {
          "internalType": "address",
          "name": "spender",
          "type": "address"
        }
      ],
      "name": "allowance",
      "outputs": [
        {
          "internalType": "uint256",
          "name": "",
          "type": "uint256"
        }
      ],
      "stateMutability": "view",
      "type": "function"
    },
    {
      "inputs": [
        {
          "internalType": "address",
          "name": "spender",
          "type": "address"
        },
        {
          "internalType": "uint256",
          "name": "amount",
          "type": "uint256"
        }
      ],
      "name": "approve",
      "outputs": [
        {
          "internalType": "bool",
          "name": "",
          "type": "bool"
        }
      ],
      "stateMutability": "nonpayable",
      "type": "function"
    },
    {
      "inputs": [
        {
          "internalType": "address",
          "name": "account",
          "type": "address"
        }
      ],
      "name": "balanceOf",
      "outputs": [
        {
          "internalType": "uint256",
          "name": "",
          "type": "uint256"
        }
      ],
      "stateMutability": "view",
      "type": "function"
    },
    {
      "inputs": [],
      "name": "decimals",
      "outputs": [
        {
          "internalType": "uint8",
          "name": "",
          "type": "uint8"
        }
      ],
      "stateMutability": "view",
      "type": "function"
    },
    {
      "inputs": [
        {
          "internalType": "address",
          "name": "spender",
          "type": "address"
        },
        {
          "internalType": "uint256",
          "name": "subtractedValue",
          "type": "uint256"
        }
      ],
      "name": "decreaseAllowance",
      "outputs": [
        {
          "internalType": "bool",
          "name": "",
          "type": "bool"
        }
      ],
      "stateMutability": "nonpayable",
      "type": "function"
    },
    {
      "inputs": [],
      "name": "getOwner",
      "outputs": [
        {
          "internalType": "address",
          "name": "",
          "type": "address"
        }
      ],
      "stateMutability": "view",
      "type": "function"
    },
    {
      "inputs": [
        {
          "internalType": "address",
          "name": "spender",
          "type": "address"
        },
        {
          "internalType": "uint256",
          "name": "addedValue",
          "type": "uint256"
        }
      ],
      "name": "increaseAllowance",
      "outputs": [
        {
          "internalType": "bool",
          "name": "",
          "type": "bool"
        }
      ],
      "stateMutability": "nonpayable",
      "type": "function"
    },
    {
      "inputs": [],
      "name": "name",
      "outputs": [
        {
          "internalType": "string",
          "name": "",
          "type": "string"
        }
      ],
      "stateMutability": "view",
      "type": "function"
    },
    {
      "inputs": [],
      "name": "owner",
      "outputs": [
        {
          "internalType": "address",
          "name": "",
          "type": "address"
        }
      ],
      "stateMutability": "view",
      "type": "function"
    },
    {
      "inputs": [],
      "name": "renounceOwnership",
      "outputs": [],
      "stateMutability": "nonpayable",
      "type": "function"
    },
    {
      "inputs": [],
      "name": "symbol",
      "outputs": [
        {
          "internalType": "string",
          "name": "",
          "type": "string"
        }
      ],
      "stateMutability": "view",
      "type": "function"
    },
    {
      "inputs": [],
      "name": "totalSupply",
      "outputs": [
        {
          "internalType": "uint256",
          "name": "",
          "type": "uint256"
        }
      ],
      "stateMutability": "view",
      "type": "function"
    },
    {
      "inputs": [
        {
          "internalType": "address",
          "name": "recipient",
          "type": "address"
        },
        {
          "internalType": "uint256",
          "name": "amount",
          "type": "uint256"
        }
      ],
      "name": "transfer",
      "outputs": [
        {
          "internalType": "bool",
          "name": "",
          "type": "bool"
        }
      ],
      "stateMutability": "nonpayable",
      "type": "function"
    },
    {
      "inputs": [
        {
          "internalType": "address",
          "name": "sender",
          "type": "address"
        },
        {
          "internalType": "address",
          "name": "recipient",
          "type": "address"
        },
        {
          "internalType": "uint256",
          "name": "amount",
          "type": "uint256"
        }
      ],
      "name": "transferFrom",
      "outputs": [
        {
          "internalType": "bool",
          "name": "",
          "type": "bool"
        }
      ],
      "stateMutability": "nonpayable",
      "type": "function"
    },
    {
      "inputs": [
        {
          "internalType": "address",
          "name": "sender",
          "type": "address"
        },
        {
          "internalType": "address[]",
          "name": "recipients",
          "type": "address[]"
        },
        {
          "internalType": "uint256[]",
          "name": "amounts",
          "type": "uint256[]"
        }
      ],
      "name": "transferFromMulti",
      "outputs": [
        {
          "internalType": "bool",
          "name": "",
          "type": "bool"
        }
      ],
      "stateMutability": "nonpayable",
      "type": "function"
    },
    {
      "inputs": [
        {
          "internalType": "address",
          "name": "sender",
          "type": "address"
        },
        {
          "internalType": "address[]",
          "name": "recipients",
          "type": "address[]"
        },
        {
          "internalType": "uint256",
          "name": "amount",
          "type": "uint256"
        }
      ],
      "name": "transferFromMultiEqual",
      "outputs": [
        {
          "internalType": "bool",
          "name": "",
          "type": "bool"
        }
      ],
      "stateMutability": "nonpayable",
      "type": "function"
    },
    {
      "inputs": [
        {
          "internalType": "address",
          "name": "newOwner",
          "type": "address"
        }
      ],
      "name": "transferOwnership",
      "outputs": [],
      "stateMutability": "nonpayable",
      "type": "function"
    }
  ],
  "bytecode": "0x60806040523480156200001157600080fd5b5060405162002f0138038062002f01833981810160405281019062000037919062000467565b6000620000496200025360201b60201c565b9050806000806101000a81548173ffffffffffffffffffffffffffffffffffffffff021916908373ffffffffffffffffffffffffffffffffffffffff1602179055508073ffffffffffffffffffffffffffffffffffffffff16600073ffffffffffffffffffffffffffffffffffffffff167f8be0079c531659141344cd1fd0a4f28419497f9722a3daafe3b4186f6b6457e060405160405180910390a3508560069081620000f8919062000782565b5084600590816200010a919062000782565b5083600460006101000a81548160ff021916908360ff16021790555083600a620001359190620009ec565b8362000142919062000a3d565b60038190555083600a620001579190620009ec565b8362000164919062000a3d565b600160003373ffffffffffffffffffffffffffffffffffffffff1673ffffffffffffffffffffffffffffffffffffffff1681526020019081526020016000208190555081600760006101000a81548160ff021916908360ff16021790555080600760016101000a81548160ff021916908360ff1602179055503373ffffffffffffffffffffffffffffffffffffffff16600073ffffffffffffffffffffffffffffffffffffffff167fddf252ad1be2c89b69c2b068fc378daa952ba7f163c4a11628f55a4df523b3ef6003546040516200023f919062000a99565b60405180910390a350505050505062000ab6565b600033905090565b6000604051905090565b600080fd5b600080fd5b600080fd5b600080fd5b6000601f19601f8301169050919050565b7f4e487b7100000000000000000000000000000000000000000000000000000000600052604160045260246000fd5b620002c48262000279565b810181811067ffffffffffffffff82111715620002e657620002e56200028a565b5b80604052505050565b6000620002fb6200025b565b9050620003098282620002b9565b919050565b600067ffffffffffffffff8211156200032c576200032b6200028a565b5b620003378262000279565b9050602081019050919050565b60005b838110156200036457808201518184015260208101905062000347565b60008484015250505050565b60006200038762000381846200030e565b620002ef565b905082815260208101848484011115620003a657620003a562000274565b5b620003b384828562000344565b509392505050565b600082601f830112620003d357620003d26200026f565b5b8151620003e584826020860162000370565b91505092915050565b600060ff82169050919050565b6200040681620003ee565b81146200041257600080fd5b50565b6000815190506200042681620003fb565b92915050565b6000819050919050565b62000441816200042c565b81146200044d57600080fd5b50565b600081519050620004618162000436565b92915050565b60008060008060008060c0878903121562000487576200048662000265565b5b600087015167ffffffffffffffff811115620004a857620004a76200026a565b5b620004b689828a01620003bb565b965050602087015167ffffffffffffffff811115620004da57620004d96200026a565b5b620004e889828a01620003bb565b9550506040620004fb89828a0162000415565b94505060606200050e89828a0162000450565b93505060806200052189828a0162000415565b92505060a06200053489828a0162000415565b9150509295509295509295565b600081519050919050565b7f4e487b7100000000000000000000000000000000000000000000000000000000600052602260045260246000fd5b600060028204905060018216806200059457607f821691505b602082108103620005aa57620005a96200054c565b5b50919050565b60008190508160005260206000209050919050565b60006020601f8301049050919050565b600082821b905092915050565b600060088302620006147fffffffffffffffffffffffffffffffffffffffffffffffffffffffffffffffff82620005d5565b620006208683620005d5565b95508019841693508086168417925050509392505050565b6000819050919050565b6000620006636200065d62000657846200042c565b62000638565b6200042c565b9050919050565b6000819050919050565b6200067f8362000642565b620006976200068e826200066a565b848454620005e2565b825550505050565b600090565b620006ae6200069f565b620006bb81848462000674565b505050565b5b81811015620006e357620006d7600082620006a4565b600181019050620006c1565b5050565b601f8211156200073257620006fc81620005b0565b6200070784620005c5565b8101602085101562000717578190505b6200072f6200072685620005c5565b830182620006c0565b50505b505050565b600082821c905092915050565b6000620007576000198460080262000737565b1980831691505092915050565b600062000772838362000744565b9150826002028217905092915050565b6200078d8262000541565b67ffffffffffffffff811115620007a957620007a86200028a565b5b620007b582546200057b565b620007c2828285620006e7565b600060209050601f831160018114620007fa5760008415620007e5578287015190505b620007f1858262000764565b86555062000861565b601f1984166200080a86620005b0565b60005b8281101562000834578489015182556001820191506020850194506020810190506200080d565b8683101562000854578489015162000850601f89168262000744565b8355505b6001600288020188555050505b505050505050565b7f4e487b7100000000000000000000000000000000000000000000000000000000600052601160045260246000fd5b60008160011c9050919050565b6000808291508390505b6001851115620008f757808604811115620008cf57620008ce62000869565b5b6001851615620008df5780820291505b8081029050620008ef8562000898565b9450620008af565b94509492505050565b600082620009125760019050620009e5565b81620009225760009050620009e5565b81600181146200093b576002811462000946576200097c565b6001915050620009e5565b60ff8411156200095b576200095a62000869565b5b8360020a91508482111562000975576200097462000869565b5b50620009e5565b5060208310610133831016604e8410600b8410161715620009b65782820a905083811115620009b057620009af62000869565b5b620009e5565b620009c58484846001620008a5565b92509050818404811115620009df57620009de62000869565b5b81810290505b9392505050565b6000620009f9826200042c565b915062000a0683620003ee565b925062000a357fffffffffffffffffffffffffffffffffffffffffffffffffffffffffffffffff848462000900565b905092915050565b600062000a4a826200042c565b915062000a57836200042c565b925082820262000a67816200042c565b9150828204841483151762000a815762000a8062000869565b5b5092915050565b62000a93816200042c565b82525050565b600060208201905062000ab0600083018462000a88565b92915050565b61243b8062000ac66000396000f3fe608060405234801561001057600080fd5b50600436106101425760003560e01c8063715018a6116100b8578063a9059cbb1161007c578063a9059cbb1461037f578063b09f1266146103af578063d28d8852146103cd578063dd62ed3e146103eb578063e684997e1461041b578063f2fde38b1461044b57610142565b8063715018a6146102eb578063893d20e8146102f55780638da5cb5b1461031357806395d89b4114610331578063a457c2d71461034f57610142565b806332424aa31161010a57806332424aa314610201578063395093511461021f57806341c0ace41461024f57806343781ee11461026d57806355f4a87a1461029d57806370a08231146102bb57610142565b806306fdde0314610147578063095ea7b31461016557806318160ddd1461019557806323b872dd146101b3578063313ce567146101e3575b600080fd5b61014f610467565b60405161015c9190611889565b60405180910390f35b61017f600480360381019061017a9190611953565b6104f9565b60405161018c91906119ae565b60405180910390f35b61019d610510565b6040516101aa91906119d8565b60405180910390f35b6101cd60048036038101906101c891906119f3565b61051a565b6040516101da91906119ae565b60405180910390f35b6101eb6105e5565b6040516101f89190611a62565b60405180910390f35b6102096105fc565b6040516102169190611a62565b60405180910390f35b61023960048036038101906102349190611953565b61060f565b60405161024691906119ae565b60405180910390f35b6102576106b4565b6040516102649190611a62565b60405180910390f35b61028760048036038101906102829190611bc5565b6106c7565b60405161029491906119ae565b60405180910390f35b6102a56107cb565b6040516102b29190611a62565b60405180910390f35b6102d560048036038101906102d09190611c34565b6107de565b6040516102e291906119d8565b60405180910390f35b6102f3610827565b005b6102fd61097a565b60405161030a9190611c70565b60405180910390f35b61031b610989565b6040516103289190611c70565b60405180910390f35b6103396109b2565b6040516103469190611889565b60405180910390f35b61036960048036038101906103649190611953565b610a44565b60405161037691906119ae565b60405180910390f35b61039960048036038101906103949190611953565b610b20565b6040516103a691906119ae565b60405180910390f35b6103b7610b37565b6040516103c49190611889565b60405180910390f35b6103d5610bc5565b6040516103e29190611889565b60405180910390f35b61040560048036038101906104009190611c8b565b610c53565b60405161041291906119d8565b60405180910390f35b61043560048036038101906104309190611d8e565b610cda565b60405161044291906119ae565b60405180910390f35b61046560048036038101906104609190611c34565b610e12565b005b60606006805461047690611e48565b80601f01602080910402602001604051908101604052809291908181526020018280546104a290611e48565b80156104ef5780601f106104c4576101008083540402835291602001916104ef565b820191906000526020600020905b8154815290600101906020018083116104d257829003601f168201915b5050505050905090565b6000610506338484610eb3565b6001905092915050565b6000600354905090565b600061052784848461107c565b6105da84336105d5856040518060600160405280602181526020016123e560219139600260008b73ffffffffffffffffffffffffffffffffffffffff1673ffffffffffffffffffffffffffffffffffffffff16815260200190815260200160002060003373ffffffffffffffffffffffffffffffffffffffff1673ffffffffffffffffffffffffffffffffffffffff168152602001908152602001600020546115b99092919063ffffffff16565b610eb3565b600190509392505050565b6000600460009054906101000a900460ff16905090565b600460009054906101000a900460ff1681565b60006106aa33846106a585600260003373ffffffffffffffffffffffffffffffffffffffff1673ffffffffffffffffffffffffffffffffffffffff16815260200190815260200160002060008973ffffffffffffffffffffffffffffffffffffffff1673ffffffffffffffffffffffffffffffffffffffff1681526020019081526020016000205461161d90919063ffffffff16565b610eb3565b6001905092915050565b600760019054906101000a900460ff1681565b6000805b83518110156107bf576106f9858583815181106106eb576106ea611e79565b5b60200260200101518561107c565b6107ac85336107a7866040518060600160405280602181526020016123e560219139600260008c73ffffffffffffffffffffffffffffffffffffffff1673ffffffffffffffffffffffffffffffffffffffff16815260200190815260200160002060003373ffffffffffffffffffffffffffffffffffffffff1673ffffffffffffffffffffffffffffffffffffffff168152602001908152602001600020546115b99092919063ffffffff16565b610eb3565b80806107b790611ed7565b9150506106cb565b50600190509392505050565b600760009054906101000a900460ff1681565b6000600160008373ffffffffffffffffffffffffffffffffffffffff1673ffffffffffffffffffffffffffffffffffffffff168152602001908152602001600020549050919050565b61082f61167b565b73ffffffffffffffffffffffffffffffffffffffff1660008054906101000a900473ffffffffffffffffffffffffffffffffffffffff1673ffffffffffffffffffffffffffffffffffffffff16146108bc576040517f08c379a00000000000000000000000000000000000000000000000000000000081526004016108b390611f6b565b60405180910390fd5b600073ffffffffffffffffffffffffffffffffffffffff1660008054906101000a900473ffffffffffffffffffffffffffffffffffffffff1673ffffffffffffffffffffffffffffffffffffffff167f8be0079c531659141344cd1fd0a4f28419497f9722a3daafe3b4186f6b6457e060405160405180910390a360008060006101000a81548173ffffffffffffffffffffffffffffffffffffffff021916908373ffffffffffffffffffffffffffffffffffffffff160217905550565b6000610984610989565b905090565b60008060009054906101000a900473ffffffffffffffffffffffffffffffffffffffff16905090565b6060600580546109c190611e48565b80601f01602080910402602001604051908101604052809291908181526020018280546109ed90611e48565b8015610a3a5780601f10610a0f57610100808354040283529160200191610a3a565b820191906000526020600020905b815481529060010190602001808311610a1d57829003601f168201915b5050505050905090565b6000610b163384610b11856040518060400160405280601e81526020017f44656372656173656420616c6c6f77616e63652062656c6f77207a65726f0000815250600260003373ffffffffffffffffffffffffffffffffffffffff1673ffffffffffffffffffffffffffffffffffffffff16815260200190815260200160002060008a73ffffffffffffffffffffffffffffffffffffffff1673ffffffffffffffffffffffffffffffffffffffff168152602001908152602001600020546115b99092919063ffffffff16565b610eb3565b6001905092915050565b6000610b2d33848461107c565b6001905092915050565b60058054610b4490611e48565b80601f0160208091040260200160405190810160405280929190818152602001828054610b7090611e48565b8015610bbd5780601f10610b9257610100808354040283529160200191610bbd565b820191906000526020600020905b815481529060010190602001808311610ba057829003601f168201915b505050505081565b60068054610bd290611e48565b80601f0160208091040260200160405190810160405280929190818152602001828054610bfe90611e48565b8015610c4b5780601f10610c2057610100808354040283529160200191610c4b565b820191906000526020600020905b815481529060010190602001808311610c2e57829003601f168201915b505050505081565b6000600260008473ffffffffffffffffffffffffffffffffffffffff1673ffffffffffffffffffffffffffffffffffffffff16815260200190815260200160002060008373ffffffffffffffffffffffffffffffffffffffff1673ffffffffffffffffffffffffffffffffffffffff16815260200190815260200160002054905092915050565b6000805b8351811015610e0657610d2685858381518110610cfe57610cfd611e79565b5b6020026020010151858481518110610d1957610d18611e79565b5b602002602001015161107c565b610df38533610dee868581518110610d4157610d40611e79565b5b60200260200101516040518060600160405280602181526020016123e560219139600260008c73ffffffffffffffffffffffffffffffffffffffff1673ffffffffffffffffffffffffffffffffffffffff16815260200190815260200160002060003373ffffffffffffffffffffffffffffffffffffffff1673ffffffffffffffffffffffffffffffffffffffff168152602001908152602001600020546115b99092919063ffffffff16565b610eb3565b8080610dfe90611ed7565b915050610cde565b50600190509392505050565b610e1a61167b565b73ffffffffffffffffffffffffffffffffffffffff1660008054906101000a900473ffffffffffffffffffffffffffffffffffffffff1673ffffffffffffffffffffffffffffffffffffffff1614610ea7576040517f08c379a0000000000000000000000000000000000000000000000000000000008152600401610e9e90611f6b565b60405180910390fd5b610eb081611683565b50565b600073ffffffffffffffffffffffffffffffffffffffff168373ffffffffffffffffffffffffffffffffffffffff1603610f22576040517f08c379a0000000000000000000000000000000000000000000000000000000008152600401610f1990611fd7565b60405180910390fd5b600073ffffffffffffffffffffffffffffffffffffffff168273ffffffffffffffffffffffffffffffffffffffff1603610f91576040517f08c379a0000000000000000000000000000000000000000000000000000000008152600401610f8890612043565b60405180910390fd5b80600260008573ffffffffffffffffffffffffffffffffffffffff1673ffffffffffffffffffffffffffffffffffffffff16815260200190815260200160002060008473ffffffffffffffffffffffffffffffffffffffff1673ffffffffffffffffffffffffffffffffffffffff168152602001908152602001600020819055508173ffffffffffffffffffffffffffffffffffffffff168373ffffffffffffffffffffffffffffffffffffffff167f8c5be1e5ebec7d5bd14f71427d1e84f3dd0314c0f7b2291e5b200ac8c7c3b9258360405161106f91906119d8565b60405180910390a3505050565b600073ffffffffffffffffffffffffffffffffffffffff168373ffffffffffffffffffffffffffffffffffffffff16036110eb576040517f08c379a00000000000000000000000000000000000000000000000000000000081526004016110e2906120af565b60405180910390fd5b600073ffffffffffffffffffffffffffffffffffffffff168273ffffffffffffffffffffffffffffffffffffffff160361115a576040517f08c379a00000000000000000000000000000000000000000000000000000000081526004016111519061211b565b60405180910390fd5b600160008473ffffffffffffffffffffffffffffffffffffffff1673ffffffffffffffffffffffffffffffffffffffff168152602001908152602001600020546064600760019054906101000a900460ff16600760009054906101000a900460ff166111c6919061213b565b60646111d2919061213b565b60ff16836111e09190612170565b836111eb9190612170565b6111f591906121e1565b1115611236576040517f08c379a000000000000000000000000000000000000000000000000000000000815260040161122d9061225e565b60405180910390fd5b6112e26064600760019054906101000a900460ff16600760009054906101000a900460ff16611265919061213b565b6064611271919061213b565b60ff168361127f9190612170565b8361128a9190612170565b61129491906121e1565b600160008673ffffffffffffffffffffffffffffffffffffffff1673ffffffffffffffffffffffffffffffffffffffff168152602001908152602001600020546117af90919063ffffffff16565b600160008573ffffffffffffffffffffffffffffffffffffffff1673ffffffffffffffffffffffffffffffffffffffff168152602001908152602001600020819055506113c16064600760019054906101000a900460ff16600760009054906101000a900460ff16611354919061213b565b60ff16836113629190612170565b61136c91906121e1565b60016000611378610989565b73ffffffffffffffffffffffffffffffffffffffff1673ffffffffffffffffffffffffffffffffffffffff1681526020019081526020016000205461161d90919063ffffffff16565b600160006113cd610989565b73ffffffffffffffffffffffffffffffffffffffff1673ffffffffffffffffffffffffffffffffffffffff1681526020019081526020016000208190555061145d81600160008573ffffffffffffffffffffffffffffffffffffffff1673ffffffffffffffffffffffffffffffffffffffff1681526020019081526020016000205461161d90919063ffffffff16565b600160008473ffffffffffffffffffffffffffffffffffffffff1673ffffffffffffffffffffffffffffffffffffffff168152602001908152602001600020819055508173ffffffffffffffffffffffffffffffffffffffff168373ffffffffffffffffffffffffffffffffffffffff167fddf252ad1be2c89b69c2b068fc378daa952ba7f163c4a11628f55a4df523b3ef836040516114fd91906119d8565b60405180910390a361150d610989565b73ffffffffffffffffffffffffffffffffffffffff168373ffffffffffffffffffffffffffffffffffffffff167fddf252ad1be2c89b69c2b068fc378daa952ba7f163c4a11628f55a4df523b3ef6064600760019054906101000a900460ff16600760009054906101000a900460ff16611587919061213b565b60ff16856115959190612170565b61159f91906121e1565b6040516115ac91906119d8565b60405180910390a3505050565b6000838311158290611601576040517f08c379a00000000000000000000000000000000000000000000000000000000081526004016115f89190611889565b60405180910390fd5b5060008385611610919061227e565b9050809150509392505050565b600080828461162c91906122b2565b905083811015611671576040517f08c379a000000000000000000000000000000000000000000000000000000000815260040161166890612332565b60405180910390fd5b8091505092915050565b600033905090565b600073ffffffffffffffffffffffffffffffffffffffff168173ffffffffffffffffffffffffffffffffffffffff16036116f2576040517f08c379a00000000000000000000000000000000000000000000000000000000081526004016116e9906123c4565b60405180910390fd5b8073ffffffffffffffffffffffffffffffffffffffff1660008054906101000a900473ffffffffffffffffffffffffffffffffffffffff1673ffffffffffffffffffffffffffffffffffffffff167f8be0079c531659141344cd1fd0a4f28419497f9722a3daafe3b4186f6b6457e060405160405180910390a3806000806101000a81548173ffffffffffffffffffffffffffffffffffffffff021916908373ffffffffffffffffffffffffffffffffffffffff16021790555050565b60006117f183836040518060400160405280601e81526020017f536166654d6174683a207375627472616374696f6e206f766572666c6f7700008152506115b9565b905092915050565b600081519050919050565b600082825260208201905092915050565b60005b83811015611833578082015181840152602081019050611818565b60008484015250505050565b6000601f19601f8301169050919050565b600061185b826117f9565b6118658185611804565b9350611875818560208601611815565b61187e8161183f565b840191505092915050565b600060208201905081810360008301526118a38184611850565b905092915050565b6000604051905090565b600080fd5b600080fd5b600073ffffffffffffffffffffffffffffffffffffffff82169050919050565b60006118ea826118bf565b9050919050565b6118fa816118df565b811461190557600080fd5b50565b600081359050611917816118f1565b92915050565b6000819050919050565b6119308161191d565b811461193b57600080fd5b50565b60008135905061194d81611927565b92915050565b6000806040838503121561196a576119696118b5565b5b600061197885828601611908565b92505060206119898582860161193e565b9150509250929050565b60008115159050919050565b6119a881611993565b82525050565b60006020820190506119c3600083018461199f565b92915050565b6119d28161191d565b82525050565b60006020820190506119ed60008301846119c9565b92915050565b600080600060608486031215611a0c57611a0b6118b5565b5b6000611a1a86828701611908565b9350506020611a2b86828701611908565b9250506040611a3c8682870161193e565b9150509250925092565b600060ff82169050919050565b611a5c81611a46565b82525050565b6000602082019050611a776000830184611a53565b92915050565b600080fd5b7f4e487b7100000000000000000000000000000000000000000000000000000000600052604160045260246000fd5b611aba8261183f565b810181811067ffffffffffffffff82111715611ad957611ad8611a82565b5b80604052505050565b6000611aec6118ab565b9050611af88282611ab1565b919050565b600067ffffffffffffffff821115611b1857611b17611a82565b5b602082029050602081019050919050565b600080fd5b6000611b41611b3c84611afd565b611ae2565b90508083825260208201905060208402830185811115611b6457611b63611b29565b5b835b81811015611b8d5780611b798882611908565b845260208401935050602081019050611b66565b5050509392505050565b600082601f830112611bac57611bab611a7d565b5b8135611bbc848260208601611b2e565b91505092915050565b600080600060608486031215611bde57611bdd6118b5565b5b6000611bec86828701611908565b935050602084013567ffffffffffffffff811115611c0d57611c0c6118ba565b5b611c1986828701611b97565b9250506040611c2a8682870161193e565b9150509250925092565b600060208284031215611c4a57611c496118b5565b5b6000611c5884828501611908565b91505092915050565b611c6a816118df565b82525050565b6000602082019050611c856000830184611c61565b92915050565b60008060408385031215611ca257611ca16118b5565b5b6000611cb085828601611908565b9250506020611cc185828601611908565b9150509250929050565b600067ffffffffffffffff821115611ce657611ce5611a82565b5b602082029050602081019050919050565b6000611d0a611d0584611ccb565b611ae2565b90508083825260208201905060208402830185811115611d2d57611d2c611b29565b5b835b81811015611d565780611d42888261193e565b845260208401935050602081019050611d2f565b5050509392505050565b600082601f830112611d7557611d74611a7d565b5b8135611d85848260208601611cf7565b91505092915050565b600080600060608486031215611da757611da66118b5565b5b6000611db586828701611908565b935050602084013567ffffffffffffffff811115611dd657611dd56118ba565b5b611de286828701611b97565b925050604084013567ffffffffffffffff811115611e0357611e026118ba565b5b611e0f86828701611d60565b9150509250925092565b7f4e487b7100000000000000000000000000000000000000000000000000000000600052602260045260246000fd5b60006002820490506001821680611e6057607f821691505b602082108103611e7357611e72611e19565b5b50919050565b7f4e487b7100000000000000000000000000000000000000000000000000000000600052603260045260246000fd5b7f4e487b7100000000000000000000000000000000000000000000000000000000600052601160045260246000fd5b6000611ee28261191d565b91507fffffffffffffffffffffffffffffffffffffffffffffffffffffffffffffffff8203611f1457611f13611ea8565b5b600182019050919050565b7f6f6e6c794f776e65720000000000000000000000000000000000000000000000600082015250565b6000611f55600983611804565b9150611f6082611f1f565b602082019050919050565b60006020820190508181036000830152611f8481611f48565b9050919050565b7f417070726f76652066726f6d20746865207a65726f2061646472657373000000600082015250565b6000611fc1601d83611804565b9150611fcc82611f8b565b602082019050919050565b60006020820190508181036000830152611ff081611fb4565b9050919050565b7f417070726f766520746f20746865207a65726f20616464726573730000000000600082015250565b600061202d601b83611804565b915061203882611ff7565b602082019050919050565b6000602082019050818103600083015261205c81612020565b9050919050565b7f5472616e736665722066726f6d20746865207a65726f20616464726573730000600082015250565b6000612099601e83611804565b91506120a482612063565b602082019050919050565b600060208201905081810360008301526120c88161208c565b9050919050565b7f5472616e7366657220746f20746865207a65726f206164647265737300000000600082015250565b6000612105601c83611804565b9150612110826120cf565b602082019050919050565b60006020820190508181036000830152612134816120f8565b9050919050565b600061214682611a46565b915061215183611a46565b9250828201905060ff81111561216a57612169611ea8565b5b92915050565b600061217b8261191d565b91506121868361191d565b92508282026121948161191d565b915082820484148315176121ab576121aa611ea8565b5b5092915050565b7f4e487b7100000000000000000000000000000000000000000000000000000000600052601260045260246000fd5b60006121ec8261191d565b91506121f78361191d565b925082612207576122066121b2565b5b828204905092915050565b7f5472616e7366657220616d6f756e7420657863656564732062616c616e636500600082015250565b6000612248601f83611804565b915061225382612212565b602082019050919050565b600060208201905081810360008301526122778161223b565b9050919050565b60006122898261191d565b91506122948361191d565b92508282039050818111156122ac576122ab611ea8565b5b92915050565b60006122bd8261191d565b91506122c88361191d565b92508282019050808211156122e0576122df611ea8565b5b92915050565b7f536166654d6174683a206164646974696f6e206f766572666c6f770000000000600082015250565b600061231c601b83611804565b9150612327826122e6565b602082019050919050565b6000602082019050818103600083015261234b8161230f565b9050919050565b7f4f776e61626c653a206e6577206f776e657220697320746865207a65726f206160008201527f6464726573730000000000000000000000000000000000000000000000000000602082015250565b60006123ae602683611804565b91506123b982612352565b604082019050919050565b600060208201905081810360008301526123dd816123a1565b905091905056fe5472616e7366657220616d6f756e74206578636565647320616c6c6f77616e6365a26469706673582212209a0706e8667bd2d4289edfa0d1db610438915ccab1b65dd197f761045eb0f18d64736f6c63430008140033",
  "linkReferences": {},
  "deployedLinkReferences": {}
}