{
  "_format": "hh-sol-artifact-1",
  "contractName": "TokenDynamicDualTax",
  "sourceName": "contracts/Tokens.sol",
  "abi": [
    {
      "inputs": [
        {
          "internalType": "string",
          "name": "n",
          "type": "string"
        },
        {
          "internalType": "string",
          "name": "s",
          "type": "string"
        },
        {
          "internalType": "uint8",
          "name": "dec",
          "type": "uint8"
        },
        {
          "internalType": "uint256",
          "name": "supply",
          "type": "uint256"
        }
      ],
      "stateMutability": "nonpayable",
      "type": "constructor"
    },
    {
      "anonymous": false,
      "inputs": [
        {
          "indexed": true,
          "internalType": "address",
          "name": "owner",
          "type": "address"
        },
        {
          "indexed": true,
          "internalType": "address",
          "name": "spender",
          "type": "address"
        },
        {
          "indexed": false,
          "internalType": "uint256",
          "name": "value",
          "type": "uint256"
        }
      ],
      "name": "Approval",
      "type": "event"
    },
    {
      "anonymous": false,
      "inputs": [
        {
          "indexed": true,
          "internalType": "address",
          "name": "previousOwner",
          "type": "address"
        },
        {
          "indexed": true,
          "internalType": "address",
          "name": "newOwner",
          "type": "address"
        }
      ],
      "name": "OwnershipTransferred",
      "type": "event"
    },
    {
      "anonymous": false,
      "inputs": [
        {
          "indexed": true,
          "internalType": "address",
          "name": "from",
          "type": "address"
        },
        {
          "indexed": true,
          "internalType": "address",
          "name": "to",
          "type": "address"
        },
        {
          "indexed": false,
          "internalType": "uint256",
          "name": "value",
          "type": "uint256"
        }
      ],
      "name": "Transfer",
      "type": "event"
    },
    {
      "inputs": [
        {
          "internalType": "uint256",
          "name": "",
          "type": "uint256"
        }
      ],
      "name": "_buyComs",
      "outputs": [
        {
          "internalType": "uint8",
          "name": "",
          "type": "uint8"
        }
      ],
      "stateMutability": "view",
      "type": "function"
    },
    {
      "inputs": [],
      "name": "_decimals",
      "outputs": [
        {
          "internalType": "uint8",
          "name": "",
          "type": "uint8"
        }
      ],
      "stateMutability": "view",
      "type": "function"
    },
    {
      "inputs": [],
      "name": "_name",
      "outputs": [
        {
          "internalType": "string",
          "name": "",
          "type": "string"
        }
      ],
      "stateMutability": "view",
      "type": "function"
    },
    {
      "inputs": [
        {
          "internalType": "uint256",
          "name": "",
          "type": "uint256"
        }
      ],
      "name": "_sellComs",
      "outputs": [
        {
          "internalType": "uint8",
          "name": "",
          "type": "uint8"
        }
      ],
      "stateMutability": "view",
      "type": "function"
    },
    {
      "inputs": [],
      "name": "_symbol",
      "outputs": [
        {
          "internalType": "string",
          "name": "",
          "type": "string"
        }
      ],
      "stateMutability": "view",
      "type": "function"
    },
    {
      "inputs": [
        {
          "internalType": "uint8",
          "name": "com",
          "type": "uint8"
        }
      ],
      "name": "addBuyCom",
      "outputs": [
        {
          "internalType": "bool",
          "name": "",
          "type": "bool"
        }
      ],
      "stateMutability": "nonpayable",
      "type": "function"
    },
    {
      "inputs": [
        {
          "internalType": "uint8",
          "name": "com",
          "type": "uint8"
        }
      ],
      "name": "addSellCom",
      "outputs": [
        {
          "internalType": "bool",
          "name": "",
          "type": "bool"
        }
      ],
      "stateMutability": "nonpayable",
      "type": "function"
    },
    {
      "inputs": [
        {
          "internalType": "address",
          "name": "addressOwner",
          "type": "address"
        },
        {
          "internalType": "address",
          "name": "spender",
          "type": "address"
        }
      ],
      "name": "allowance",
      "outputs": [
        {
          "internalType": "uint256",
          "name": "",
          "type": "uint256"
        }
      ],
      "stateMutability": "view",
      "type": "function"
    },
    {
      "inputs": [
        {
          "internalType": "address",
          "name": "spender",
          "type": "address"
        },
        {
          "internalType": "uint256",
          "name": "amount",
          "type": "uint256"
        }
      ],
      "name": "approve",
      "outputs": [
        {
          "internalType": "bool",
          "name": "",
          "type": "bool"
        }
      ],
      "stateMutability": "nonpayable",
      "type": "function"
    },
    {
      "inputs": [
        {
          "internalType": "address",
          "name": "account",
          "type": "address"
        }
      ],
      "name": "balanceOf",
      "outputs": [
        {
          "internalType": "uint256",
          "name": "",
          "type": "uint256"
        }
      ],
      "stateMutability": "view",
      "type": "function"
    },
    {
      "inputs": [],
      "name": "decimals",
      "outputs": [
        {
          "internalType": "uint8",
          "name": "",
          "type": "uint8"
        }
      ],
      "stateMutability": "view",
      "type": "function"
    },
    {
      "inputs": [
        {
          "internalType": "address",
          "name": "spender",
          "type": "address"
        },
        {
          "internalType": "uint256",
          "name": "subtractedValue",
          "type": "uint256"
        }
      ],
      "name": "decreaseAllowance",
      "outputs": [
        {
          "internalType": "bool",
          "name": "",
          "type": "bool"
        }
      ],
      "stateMutability": "nonpayable",
      "type": "function"
    },
    {
      "inputs": [],
      "name": "getOwner",
      "outputs": [
        {
          "internalType": "address",
          "name": "",
          "type": "address"
        }
      ],
      "stateMutability": "view",
      "type": "function"
    },
    {
      "inputs": [
        {
          "internalType": "address",
          "name": "spender",
          "type": "address"
        },
        {
          "internalType": "uint256",
          "name": "addedValue",
          "type": "uint256"
        }
      ],
      "name": "increaseAllowance",
      "outputs": [
        {
          "internalType": "bool",
          "name": "",
          "type": "bool"
        }
      ],
      "stateMutability": "nonpayable",
      "type": "function"
    },
    {
      "inputs": [],
      "name": "name",
      "outputs": [
        {
          "internalType": "string",
          "name": "",
          "type": "string"
        }
      ],
      "stateMutability": "view",
      "type": "function"
    },
    {
      "inputs": [],
      "name": "owner",
      "outputs": [
        {
          "internalType": "address",
          "name": "",
          "type": "address"
        }
      ],
      "stateMutability": "view",
      "type": "function"
    },
    {
      "inputs": [
        {
          "internalType": "uint8",
          "name": "index",
          "type": "uint8"
        }
      ],
      "name": "removeBuyCom",
      "outputs": [
        {
          "internalType": "bool",
          "name": "",
          "type": "bool"
        }
      ],
      "stateMutability": "nonpayable",
      "type": "function"
    },
    {
      "inputs": [
        {
          "internalType": "uint8",
          "name": "index",
          "type": "uint8"
        }
      ],
      "name": "removeSellCom",
      "outputs": [
        {
          "internalType": "bool",
          "name": "",
          "type": "bool"
        }
      ],
      "stateMutability": "nonpayable",
      "type": "function"
    },
    {
      "inputs": [],
      "name": "renounceOwnership",
      "outputs": [],
      "stateMutability": "nonpayable",
      "type": "function"
    },
    {
      "inputs": [],
      "name": "symbol",
      "outputs": [
        {
          "internalType": "string",
          "name": "",
          "type": "string"
        }
      ],
      "stateMutability": "view",
      "type": "function"
    },
    {
      "inputs": [],
      "name": "totalSupply",
      "outputs": [
        {
          "internalType": "uint256",
          "name": "",
          "type": "uint256"
        }
      ],
      "stateMutability": "view",
      "type": "function"
    },
    {
      "inputs": [
        {
          "internalType": "address",
          "name": "recipient",
          "type": "address"
        },
        {
          "internalType": "uint256",
          "name": "amount",
          "type": "uint256"
        }
      ],
      "name": "transfer",
      "outputs": [
        {
          "internalType": "bool",
          "name": "",
          "type": "bool"
        }
      ],
      "stateMutability": "nonpayable",
      "type": "function"
    },
    {
      "inputs": [
        {
          "internalType": "address",
          "name": "sender",
          "type": "address"
        },
        {
          "internalType": "address",
          "name": "recipient",
          "type": "address"
        },
        {
          "internalType": "uint256",
          "name": "amount",
          "type": "uint256"
        }
      ],
      "name": "transferFrom",
      "outputs": [
        {
          "internalType": "bool",
          "name": "",
          "type": "bool"
        }
      ],
      "stateMutability": "nonpayable",
      "type": "function"
    },
    {
      "inputs": [
        {
          "internalType": "address",
          "name": "sender",
          "type": "address"
        },
        {
          "internalType": "address[]",
          "name": "recipients",
          "type": "address[]"
        },
        {
          "internalType": "uint256[]",
          "name": "amounts",
          "type": "uint256[]"
        }
      ],
      "name": "transferFromMulti",
      "outputs": [
        {
          "internalType": "bool",
          "name": "",
          "type": "bool"
        }
      ],
      "stateMutability": "nonpayable",
      "type": "function"
    },
    {
      "inputs": [
        {
          "internalType": "address",
          "name": "sender",
          "type": "address"
        },
        {
          "internalType": "address[]",
          "name": "recipients",
          "type": "address[]"
        },
        {
          "internalType": "uint256",
          "name": "amount",
          "type": "uint256"
        }
      ],
      "name": "transferFromMultiEqual",
      "outputs": [
        {
          "internalType": "bool",
          "name": "",
          "type": "bool"
        }
      ],
      "stateMutability": "nonpayable",
      "type": "function"
    },
    {
      "inputs": [
        {
          "internalType": "address",
          "name": "newOwner",
          "type": "address"
        }
      ],
      "name": "transferOwnership",
      "outputs": [],
      "stateMutability": "nonpayable",
      "type": "function"
    }
  ],
  "bytecode": "0x60806040523480156200001157600080fd5b506040516200339d3803806200339d83398181016040528101906200003791906200042f565b6000620000496200021b60201b60201c565b9050806000806101000a81548173ffffffffffffffffffffffffffffffffffffffff021916908373ffffffffffffffffffffffffffffffffffffffff1602179055508073ffffffffffffffffffffffffffffffffffffffff16600073ffffffffffffffffffffffffffffffffffffffff167f8be0079c531659141344cd1fd0a4f28419497f9722a3daafe3b4186f6b6457e060405160405180910390a3508360069081620000f8919062000720565b5082600590816200010a919062000720565b5081600460006101000a81548160ff021916908360ff16021790555081600a6200013591906200098a565b81620001429190620009db565b60038190555081600a6200015791906200098a565b81620001649190620009db565b600160003373ffffffffffffffffffffffffffffffffffffffff1673ffffffffffffffffffffffffffffffffffffffff168152602001908152602001600020819055503373ffffffffffffffffffffffffffffffffffffffff16600073ffffffffffffffffffffffffffffffffffffffff167fddf252ad1be2c89b69c2b068fc378daa952ba7f163c4a11628f55a4df523b3ef60035460405162000209919062000a37565b60405180910390a35050505062000a54565b600033905090565b6000604051905090565b600080fd5b600080fd5b600080fd5b600080fd5b6000601f19601f8301169050919050565b7f4e487b7100000000000000000000000000000000000000000000000000000000600052604160045260246000fd5b6200028c8262000241565b810181811067ffffffffffffffff82111715620002ae57620002ad62000252565b5b80604052505050565b6000620002c362000223565b9050620002d1828262000281565b919050565b600067ffffffffffffffff821115620002f457620002f362000252565b5b620002ff8262000241565b9050602081019050919050565b60005b838110156200032c5780820151818401526020810190506200030f565b60008484015250505050565b60006200034f6200034984620002d6565b620002b7565b9050828152602081018484840111156200036e576200036d6200023c565b5b6200037b8482856200030c565b509392505050565b600082601f8301126200039b576200039a62000237565b5b8151620003ad84826020860162000338565b91505092915050565b600060ff82169050919050565b620003ce81620003b6565b8114620003da57600080fd5b50565b600081519050620003ee81620003c3565b92915050565b6000819050919050565b6200040981620003f4565b81146200041557600080fd5b50565b6000815190506200042981620003fe565b92915050565b600080600080608085870312156200044c576200044b6200022d565b5b600085015167ffffffffffffffff8111156200046d576200046c62000232565b5b6200047b8782880162000383565b945050602085015167ffffffffffffffff8111156200049f576200049e62000232565b5b620004ad8782880162000383565b9350506040620004c087828801620003dd565b9250506060620004d38782880162000418565b91505092959194509250565b600081519050919050565b7f4e487b7100000000000000000000000000000000000000000000000000000000600052602260045260246000fd5b600060028204905060018216806200053257607f821691505b602082108103620005485762000547620004ea565b5b50919050565b60008190508160005260206000209050919050565b60006020601f8301049050919050565b600082821b905092915050565b600060088302620005b27fffffffffffffffffffffffffffffffffffffffffffffffffffffffffffffffff8262000573565b620005be868362000573565b95508019841693508086168417925050509392505050565b6000819050919050565b600062000601620005fb620005f584620003f4565b620005d6565b620003f4565b9050919050565b6000819050919050565b6200061d83620005e0565b620006356200062c8262000608565b84845462000580565b825550505050565b600090565b6200064c6200063d565b6200065981848462000612565b505050565b5b8181101562000681576200067560008262000642565b6001810190506200065f565b5050565b601f821115620006d0576200069a816200054e565b620006a58462000563565b81016020851015620006b5578190505b620006cd620006c48562000563565b8301826200065e565b50505b505050565b600082821c905092915050565b6000620006f560001984600802620006d5565b1980831691505092915050565b6000620007108383620006e2565b9150826002028217905092915050565b6200072b82620004df565b67ffffffffffffffff81111562000747576200074662000252565b5b62000753825462000519565b6200076082828562000685565b600060209050601f83116001811462000798576000841562000783578287015190505b6200078f858262000702565b865550620007ff565b601f198416620007a8866200054e565b60005b82811015620007d257848901518255600182019150602085019450602081019050620007ab565b86831015620007f25784890151620007ee601f891682620006e2565b8355505b6001600288020188555050505b505050505050565b7f4e487b7100000000000000000000000000000000000000000000000000000000600052601160045260246000fd5b60008160011c9050919050565b6000808291508390505b600185111562000895578086048111156200086d576200086c62000807565b5b60018516156200087d5780820291505b80810290506200088d8562000836565b94506200084d565b94509492505050565b600082620008b0576001905062000983565b81620008c0576000905062000983565b8160018114620008d95760028114620008e4576200091a565b600191505062000983565b60ff841115620008f957620008f862000807565b5b8360020a91508482111562000913576200091262000807565b5b5062000983565b5060208310610133831016604e8410600b8410161715620009545782820a9050838111156200094e576200094d62000807565b5b62000983565b62000963848484600162000843565b925090508184048111156200097d576200097c62000807565b5b81810290505b9392505050565b60006200099782620003f4565b9150620009a483620003b6565b9250620009d37fffffffffffffffffffffffffffffffffffffffffffffffffffffffffffffffff84846200089e565b905092915050565b6000620009e882620003f4565b9150620009f583620003f4565b925082820262000a0581620003f4565b9150828204841483151762000a1f5762000a1e62000807565b5b5092915050565b62000a3181620003f4565b82525050565b600060208201905062000a4e600083018462000a26565b92915050565b6129398062000a646000396000f3fe608060405234801561001057600080fd5b506004361061018e5760003560e01c806382329202116100de578063a457c2d711610097578063d28d885211610071578063d28d8852146104fd578063dd62ed3e1461051b578063e684997e1461054b578063f2fde38b1461057b5761018e565b8063a457c2d71461047f578063a9059cbb146104af578063b09f1266146104df5761018e565b80638232920214610395578063893d20e8146103c55780638da5cb5b146103e357806395d89b41146104015780639c709ae81461041f578063a22f5be51461044f5761018e565b8063313ce5671161014b57806343781ee11161012557806343781ee1146102fb5780634b1fe3a91461032b57806370a082311461035b578063715018a61461038b5761018e565b8063313ce5671461028f57806332424aa3146102ad57806339509351146102cb5761018e565b806306fdde0314610193578063095ea7b3146101b157806318160ddd146101e15780631d8b4722146101ff5780632162d8d21461022f57806323b872dd1461025f575b600080fd5b61019b610597565b6040516101a89190611d01565b60405180910390f35b6101cb60048036038101906101c69190611dcb565b610629565b6040516101d89190611e26565b60405180910390f35b6101e9610640565b6040516101f69190611e50565b60405180910390f35b61021960048036038101906102149190611e6b565b61064a565b6040516102269190611eb4565b60405180910390f35b61024960048036038101906102449190611efb565b61067e565b6040516102569190611e26565b60405180910390f35b61027960048036038101906102749190611f28565b61079d565b6040516102869190611e26565b60405180910390f35b610297610868565b6040516102a49190611eb4565b60405180910390f35b6102b561087f565b6040516102c29190611eb4565b60405180910390f35b6102e560048036038101906102e09190611dcb565b610892565b6040516102f29190611e26565b60405180910390f35b610315600480360381019061031091906120c3565b610937565b6040516103229190611e26565b60405180910390f35b61034560048036038101906103409190611efb565b610a3b565b6040516103529190611e26565b60405180910390f35b61037560048036038101906103709190612132565b610a8b565b6040516103829190611e50565b60405180910390f35b610393610ad4565b005b6103af60048036038101906103aa9190611e6b565b610c27565b6040516103bc9190611eb4565b60405180910390f35b6103cd610c5b565b6040516103da919061216e565b60405180910390f35b6103eb610c6a565b6040516103f8919061216e565b60405180910390f35b610409610c93565b6040516104169190611d01565b60405180910390f35b61043960048036038101906104349190611efb565b610d25565b6040516104469190611e26565b60405180910390f35b61046960048036038101906104649190611efb565b610d75565b6040516104769190611e26565b60405180910390f35b61049960048036038101906104949190611dcb565b610e94565b6040516104a69190611e26565b60405180910390f35b6104c960048036038101906104c49190611dcb565b610f70565b6040516104d69190611e26565b60405180910390f35b6104e7610f87565b6040516104f49190611d01565b60405180910390f35b610505611015565b6040516105129190611d01565b60405180910390f35b61053560048036038101906105309190612189565b6110a3565b6040516105429190611e50565b60405180910390f35b6105656004803603810190610560919061228c565b61112a565b6040516105729190611e26565b60405180910390f35b61059560048036038101906105909190612132565b611262565b005b6060600680546105a690612346565b80601f01602080910402602001604051908101604052809291908181526020018280546105d290612346565b801561061f5780601f106105f45761010080835404028352916020019161061f565b820191906000526020600020905b81548152906001019060200180831161060257829003601f168201915b5050505050905090565b6000610636338484611303565b6001905092915050565b6000600354905090565b6007818154811061065a57600080fd5b9060005260206000209060209182820401919006915054906101000a900460ff1681565b60006007805490508260ff16106106985760019050610798565b60008260ff1690505b60016007805490506106b391906123a6565b81101561074b5760076001826106c991906123da565b815481106106da576106d961240e565b5b90600052602060002090602091828204019190069054906101000a900460ff166007828154811061070e5761070d61240e565b5b90600052602060002090602091828204019190066101000a81548160ff021916908360ff16021790555080806107439061243d565b9150506106a1565b506007600160078054905061076091906123a6565b815481106107715761077061240e565b5b90600052602060002090602091828204019190066101000a81549060ff0219169055600190505b919050565b60006107aa8484846114cc565b61085d8433610858856040518060600160405280602181526020016128e360219139600260008b73ffffffffffffffffffffffffffffffffffffffff1673ffffffffffffffffffffffffffffffffffffffff16815260200190815260200160002060003373ffffffffffffffffffffffffffffffffffffffff1673ffffffffffffffffffffffffffffffffffffffff16815260200190815260200160002054611a319092919063ffffffff16565b611303565b600190509392505050565b6000600460009054906101000a900460ff16905090565b600460009054906101000a900460ff1681565b600061092d338461092885600260003373ffffffffffffffffffffffffffffffffffffffff1673ffffffffffffffffffffffffffffffffffffffff16815260200190815260200160002060008973ffffffffffffffffffffffffffffffffffffffff1673ffffffffffffffffffffffffffffffffffffffff16815260200190815260200160002054611a9590919063ffffffff16565b611303565b6001905092915050565b6000805b8351811015610a2f576109698585838151811061095b5761095a61240e565b5b6020026020010151856114cc565b610a1c8533610a17866040518060600160405280602181526020016128e360219139600260008c73ffffffffffffffffffffffffffffffffffffffff1673ffffffffffffffffffffffffffffffffffffffff16815260200190815260200160002060003373ffffffffffffffffffffffffffffffffffffffff1673ffffffffffffffffffffffffffffffffffffffff16815260200190815260200160002054611a319092919063ffffffff16565b611303565b8080610a279061243d565b91505061093b565b50600190509392505050565b600060088290806001815401808255809150506001900390600052602060002090602091828204019190069091909190916101000a81548160ff021916908360ff16021790555060019050919050565b6000600160008373ffffffffffffffffffffffffffffffffffffffff1673ffffffffffffffffffffffffffffffffffffffff168152602001908152602001600020549050919050565b610adc611af3565b73ffffffffffffffffffffffffffffffffffffffff1660008054906101000a900473ffffffffffffffffffffffffffffffffffffffff1673ffffffffffffffffffffffffffffffffffffffff1614610b69576040517f08c379a0000000000000000000000000000000000000000000000000000000008152600401610b60906124d1565b60405180910390fd5b600073ffffffffffffffffffffffffffffffffffffffff1660008054906101000a900473ffffffffffffffffffffffffffffffffffffffff1673ffffffffffffffffffffffffffffffffffffffff167f8be0079c531659141344cd1fd0a4f28419497f9722a3daafe3b4186f6b6457e060405160405180910390a360008060006101000a81548173ffffffffffffffffffffffffffffffffffffffff021916908373ffffffffffffffffffffffffffffffffffffffff160217905550565b60088181548110610c3757600080fd5b9060005260206000209060209182820401919006915054906101000a900460ff1681565b6000610c65610c6a565b905090565b60008060009054906101000a900473ffffffffffffffffffffffffffffffffffffffff16905090565b606060058054610ca290612346565b80601f0160208091040260200160405190810160405280929190818152602001828054610cce90612346565b8015610d1b5780601f10610cf057610100808354040283529160200191610d1b565b820191906000526020600020905b815481529060010190602001808311610cfe57829003601f168201915b5050505050905090565b600060078290806001815401808255809150506001900390600052602060002090602091828204019190069091909190916101000a81548160ff021916908360ff16021790555060019050919050565b60006008805490508260ff1610610d8f5760019050610e8f565b60008260ff1690505b6001600880549050610daa91906123a6565b811015610e42576008600182610dc091906123da565b81548110610dd157610dd061240e565b5b90600052602060002090602091828204019190069054906101000a900460ff1660088281548110610e0557610e0461240e565b5b90600052602060002090602091828204019190066101000a81548160ff021916908360ff1602179055508080610e3a9061243d565b915050610d98565b5060086001600880549050610e5791906123a6565b81548110610e6857610e6761240e565b5b90600052602060002090602091828204019190066101000a81549060ff0219169055600190505b919050565b6000610f663384610f61856040518060400160405280601e81526020017f44656372656173656420616c6c6f77616e63652062656c6f77207a65726f0000815250600260003373ffffffffffffffffffffffffffffffffffffffff1673ffffffffffffffffffffffffffffffffffffffff16815260200190815260200160002060008a73ffffffffffffffffffffffffffffffffffffffff1673ffffffffffffffffffffffffffffffffffffffff16815260200190815260200160002054611a319092919063ffffffff16565b611303565b6001905092915050565b6000610f7d3384846114cc565b6001905092915050565b60058054610f9490612346565b80601f0160208091040260200160405190810160405280929190818152602001828054610fc090612346565b801561100d5780601f10610fe25761010080835404028352916020019161100d565b820191906000526020600020905b815481529060010190602001808311610ff057829003601f168201915b505050505081565b6006805461102290612346565b80601f016020809104026020016040519081016040528092919081815260200182805461104e90612346565b801561109b5780601f106110705761010080835404028352916020019161109b565b820191906000526020600020905b81548152906001019060200180831161107e57829003601f168201915b505050505081565b6000600260008473ffffffffffffffffffffffffffffffffffffffff1673ffffffffffffffffffffffffffffffffffffffff16815260200190815260200160002060008373ffffffffffffffffffffffffffffffffffffffff1673ffffffffffffffffffffffffffffffffffffffff16815260200190815260200160002054905092915050565b6000805b8351811015611256576111768585838151811061114e5761114d61240e565b5b60200260200101518584815181106111695761116861240e565b5b60200260200101516114cc565b611243853361123e8685815181106111915761119061240e565b5b60200260200101516040518060600160405280602181526020016128e360219139600260008c73ffffffffffffffffffffffffffffffffffffffff1673ffffffffffffffffffffffffffffffffffffffff16815260200190815260200160002060003373ffffffffffffffffffffffffffffffffffffffff1673ffffffffffffffffffffffffffffffffffffffff16815260200190815260200160002054611a319092919063ffffffff16565b611303565b808061124e9061243d565b91505061112e565b50600190509392505050565b61126a611af3565b73ffffffffffffffffffffffffffffffffffffffff1660008054906101000a900473ffffffffffffffffffffffffffffffffffffffff1673ffffffffffffffffffffffffffffffffffffffff16146112f7576040517f08c379a00000000000000000000000000000000000000000000000000000000081526004016112ee906124d1565b60405180910390fd5b61130081611afb565b50565b600073ffffffffffffffffffffffffffffffffffffffff168373ffffffffffffffffffffffffffffffffffffffff1603611372576040517f08c379a00000000000000000000000000000000000000000000000000000000081526004016113699061253d565b60405180910390fd5b600073ffffffffffffffffffffffffffffffffffffffff168273ffffffffffffffffffffffffffffffffffffffff16036113e1576040517f08c379a00000000000000000000000000000000000000000000000000000000081526004016113d8906125a9565b60405180910390fd5b80600260008573ffffffffffffffffffffffffffffffffffffffff1673ffffffffffffffffffffffffffffffffffffffff16815260200190815260200160002060008473ffffffffffffffffffffffffffffffffffffffff1673ffffffffffffffffffffffffffffffffffffffff168152602001908152602001600020819055508173ffffffffffffffffffffffffffffffffffffffff168373ffffffffffffffffffffffffffffffffffffffff167f8c5be1e5ebec7d5bd14f71427d1e84f3dd0314c0f7b2291e5b200ac8c7c3b925836040516114bf9190611e50565b60405180910390a3505050565b600073ffffffffffffffffffffffffffffffffffffffff168373ffffffffffffffffffffffffffffffffffffffff160361153b576040517f08c379a000000000000000000000000000000000000000000000000000000000815260040161153290612615565b60405180910390fd5b600073ffffffffffffffffffffffffffffffffffffffff168273ffffffffffffffffffffffffffffffffffffffff16036115aa576040517f08c379a00000000000000000000000000000000000000000000000000000000081526004016115a190612681565b60405180910390fd5b6000805b60078054905081101561160f57600781815481106115cf576115ce61240e565b5b90600052602060002090602091828204019190069054906101000a900460ff16826115fa91906126a1565b915080806116079061243d565b9150506115ae565b5060005b60088054905081101561167457600881815481106116345761163361240e565b5b90600052602060002090602091828204019190069054906101000a900460ff168261165f91906126a1565b9150808061166c9061243d565b915050611613565b50600160008573ffffffffffffffffffffffffffffffffffffffff1673ffffffffffffffffffffffffffffffffffffffff1681526020019081526020016000205460648260646116c491906126a1565b60ff16846116d291906126d6565b846116dd91906126d6565b6116e79190612747565b1015611728576040517f08c379a000000000000000000000000000000000000000000000000000000000815260040161171f906127c4565b60405180910390fd5b6117ab606482606461173a91906126a1565b60ff168461174891906126d6565b8461175391906126d6565b61175d9190612747565b600160008773ffffffffffffffffffffffffffffffffffffffff1673ffffffffffffffffffffffffffffffffffffffff16815260200190815260200160002054611c2790919063ffffffff16565b600160008673ffffffffffffffffffffffffffffffffffffffff1673ffffffffffffffffffffffffffffffffffffffff1681526020019081526020016000208190555061186160648260ff168461180291906126d6565b61180c9190612747565b60016000611818610c6a565b73ffffffffffffffffffffffffffffffffffffffff1673ffffffffffffffffffffffffffffffffffffffff16815260200190815260200160002054611a9590919063ffffffff16565b6001600061186d610c6a565b73ffffffffffffffffffffffffffffffffffffffff1673ffffffffffffffffffffffffffffffffffffffff168152602001908152602001600020819055506118fd82600160008673ffffffffffffffffffffffffffffffffffffffff1673ffffffffffffffffffffffffffffffffffffffff16815260200190815260200160002054611a9590919063ffffffff16565b600160008573ffffffffffffffffffffffffffffffffffffffff1673ffffffffffffffffffffffffffffffffffffffff168152602001908152602001600020819055508273ffffffffffffffffffffffffffffffffffffffff168473ffffffffffffffffffffffffffffffffffffffff167fddf252ad1be2c89b69c2b068fc378daa952ba7f163c4a11628f55a4df523b3ef8460405161199d9190611e50565b60405180910390a36119ad610c6a565b73ffffffffffffffffffffffffffffffffffffffff168473ffffffffffffffffffffffffffffffffffffffff167fddf252ad1be2c89b69c2b068fc378daa952ba7f163c4a11628f55a4df523b3ef60648460ff1686611a0c91906126d6565b611a169190612747565b604051611a239190611e50565b60405180910390a350505050565b6000838311158290611a79576040517f08c379a0000000000000000000000000000000000000000000000000000000008152600401611a709190611d01565b60405180910390fd5b5060008385611a8891906123a6565b9050809150509392505050565b6000808284611aa491906123da565b905083811015611ae9576040517f08c379a0000000000000000000000000000000000000000000000000000000008152600401611ae090612830565b60405180910390fd5b8091505092915050565b600033905090565b600073ffffffffffffffffffffffffffffffffffffffff168173ffffffffffffffffffffffffffffffffffffffff1603611b6a576040517f08c379a0000000000000000000000000000000000000000000000000000000008152600401611b61906128c2565b60405180910390fd5b8073ffffffffffffffffffffffffffffffffffffffff1660008054906101000a900473ffffffffffffffffffffffffffffffffffffffff1673ffffffffffffffffffffffffffffffffffffffff167f8be0079c531659141344cd1fd0a4f28419497f9722a3daafe3b4186f6b6457e060405160405180910390a3806000806101000a81548173ffffffffffffffffffffffffffffffffffffffff021916908373ffffffffffffffffffffffffffffffffffffffff16021790555050565b6000611c6983836040518060400160405280601e81526020017f536166654d6174683a207375627472616374696f6e206f766572666c6f770000815250611a31565b905092915050565b600081519050919050565b600082825260208201905092915050565b60005b83811015611cab578082015181840152602081019050611c90565b60008484015250505050565b6000601f19601f8301169050919050565b6000611cd382611c71565b611cdd8185611c7c565b9350611ced818560208601611c8d565b611cf681611cb7565b840191505092915050565b60006020820190508181036000830152611d1b8184611cc8565b905092915050565b6000604051905090565b600080fd5b600080fd5b600073ffffffffffffffffffffffffffffffffffffffff82169050919050565b6000611d6282611d37565b9050919050565b611d7281611d57565b8114611d7d57600080fd5b50565b600081359050611d8f81611d69565b92915050565b6000819050919050565b611da881611d95565b8114611db357600080fd5b50565b600081359050611dc581611d9f565b92915050565b60008060408385031215611de257611de1611d2d565b5b6000611df085828601611d80565b9250506020611e0185828601611db6565b9150509250929050565b60008115159050919050565b611e2081611e0b565b82525050565b6000602082019050611e3b6000830184611e17565b92915050565b611e4a81611d95565b82525050565b6000602082019050611e656000830184611e41565b92915050565b600060208284031215611e8157611e80611d2d565b5b6000611e8f84828501611db6565b91505092915050565b600060ff82169050919050565b611eae81611e98565b82525050565b6000602082019050611ec96000830184611ea5565b92915050565b611ed881611e98565b8114611ee357600080fd5b50565b600081359050611ef581611ecf565b92915050565b600060208284031215611f1157611f10611d2d565b5b6000611f1f84828501611ee6565b91505092915050565b600080600060608486031215611f4157611f40611d2d565b5b6000611f4f86828701611d80565b9350506020611f6086828701611d80565b9250506040611f7186828701611db6565b9150509250925092565b600080fd5b7f4e487b7100000000000000000000000000000000000000000000000000000000600052604160045260246000fd5b611fb882611cb7565b810181811067ffffffffffffffff82111715611fd757611fd6611f80565b5b80604052505050565b6000611fea611d23565b9050611ff68282611faf565b919050565b600067ffffffffffffffff82111561201657612015611f80565b5b602082029050602081019050919050565b600080fd5b600061203f61203a84611ffb565b611fe0565b9050808382526020820190506020840283018581111561206257612061612027565b5b835b8181101561208b57806120778882611d80565b845260208401935050602081019050612064565b5050509392505050565b600082601f8301126120aa576120a9611f7b565b5b81356120ba84826020860161202c565b91505092915050565b6000806000606084860312156120dc576120db611d2d565b5b60006120ea86828701611d80565b935050602084013567ffffffffffffffff81111561210b5761210a611d32565b5b61211786828701612095565b925050604061212886828701611db6565b9150509250925092565b60006020828403121561214857612147611d2d565b5b600061215684828501611d80565b91505092915050565b61216881611d57565b82525050565b6000602082019050612183600083018461215f565b92915050565b600080604083850312156121a05761219f611d2d565b5b60006121ae85828601611d80565b92505060206121bf85828601611d80565b9150509250929050565b600067ffffffffffffffff8211156121e4576121e3611f80565b5b602082029050602081019050919050565b6000612208612203846121c9565b611fe0565b9050808382526020820190506020840283018581111561222b5761222a612027565b5b835b8181101561225457806122408882611db6565b84526020840193505060208101905061222d565b5050509392505050565b600082601f83011261227357612272611f7b565b5b81356122838482602086016121f5565b91505092915050565b6000806000606084860312156122a5576122a4611d2d565b5b60006122b386828701611d80565b935050602084013567ffffffffffffffff8111156122d4576122d3611d32565b5b6122e086828701612095565b925050604084013567ffffffffffffffff81111561230157612300611d32565b5b61230d8682870161225e565b9150509250925092565b7f4e487b7100000000000000000000000000000000000000000000000000000000600052602260045260246000fd5b6000600282049050600182168061235e57607f821691505b60208210810361237157612370612317565b5b50919050565b7f4e487b7100000000000000000000000000000000000000000000000000000000600052601160045260246000fd5b60006123b182611d95565b91506123bc83611d95565b92508282039050818111156123d4576123d3612377565b5b92915050565b60006123e582611d95565b91506123f083611d95565b925082820190508082111561240857612407612377565b5b92915050565b7f4e487b7100000000000000000000000000000000000000000000000000000000600052603260045260246000fd5b600061244882611d95565b91507fffffffffffffffffffffffffffffffffffffffffffffffffffffffffffffffff820361247a57612479612377565b5b600182019050919050565b7f6f6e6c794f776e65720000000000000000000000000000000000000000000000600082015250565b60006124bb600983611c7c565b91506124c682612485565b602082019050919050565b600060208201905081810360008301526124ea816124ae565b9050919050565b7f417070726f76652066726f6d20746865207a65726f2061646472657373000000600082015250565b6000612527601d83611c7c565b9150612532826124f1565b602082019050919050565b600060208201905081810360008301526125568161251a565b9050919050565b7f417070726f766520746f20746865207a65726f20616464726573730000000000600082015250565b6000612593601b83611c7c565b915061259e8261255d565b602082019050919050565b600060208201905081810360008301526125c281612586565b9050919050565b7f5472616e736665722066726f6d20746865207a65726f20616464726573730000600082015250565b60006125ff601e83611c7c565b915061260a826125c9565b602082019050919050565b6000602082019050818103600083015261262e816125f2565b9050919050565b7f5472616e7366657220746f20746865207a65726f206164647265737300000000600082015250565b600061266b601c83611c7c565b915061267682612635565b602082019050919050565b6000602082019050818103600083015261269a8161265e565b9050919050565b60006126ac82611e98565b91506126b783611e98565b9250828201905060ff8111156126d0576126cf612377565b5b92915050565b60006126e182611d95565b91506126ec83611d95565b92508282026126fa81611d95565b9150828204841483151761271157612710612377565b5b5092915050565b7f4e487b7100000000000000000000000000000000000000000000000000000000600052601260045260246000fd5b600061275282611d95565b915061275d83611d95565b92508261276d5761276c612718565b5b828204905092915050565b7f5472616e7366657220616d6f756e7420657863656564732062616c616e636500600082015250565b60006127ae601f83611c7c565b91506127b982612778565b602082019050919050565b600060208201905081810360008301526127dd816127a1565b9050919050565b7f536166654d6174683a206164646974696f6e206f766572666c6f770000000000600082015250565b600061281a601b83611c7c565b9150612825826127e4565b602082019050919050565b600060208201905081810360008301526128498161280d565b9050919050565b7f4f776e61626c653a206e6577206f776e657220697320746865207a65726f206160008201527f6464726573730000000000000000000000000000000000000000000000000000602082015250565b60006128ac602683611c7c565b91506128b782612850565b604082019050919050565b600060208201905081810360008301526128db8161289f565b905091905056fe5472616e7366657220616d6f756e74206578636565647320616c6c6f77616e6365a26469706673582212209dd2c264f419c7066c80ee3d6a8ae2c9eff9b774bdae570c6018ea3d9eca17db64736f6c63430008140033",
  "linkReferences": {},
  "deployedLinkReferences": {}
}