{
  "_format": "hh-sol-artifact-1",
  "contractName": "TokenDynamicTax",
  "sourceName": "contracts/Tokens.sol",
  "abi": [
    {
      "inputs": [
        {
          "internalType": "string",
          "name": "n",
          "type": "string"
        },
        {
          "internalType": "string",
          "name": "s",
          "type": "string"
        },
        {
          "internalType": "uint8",
          "name": "dec",
          "type": "uint8"
        },
        {
          "internalType": "uint256",
          "name": "supply",
          "type": "uint256"
        }
      ],
      "stateMutability": "nonpayable",
      "type": "constructor"
    },
    {
      "anonymous": false,
      "inputs": [
        {
          "indexed": true,
          "internalType": "address",
          "name": "owner",
          "type": "address"
        },
        {
          "indexed": true,
          "internalType": "address",
          "name": "spender",
          "type": "address"
        },
        {
          "indexed": false,
          "internalType": "uint256",
          "name": "value",
          "type": "uint256"
        }
      ],
      "name": "Approval",
      "type": "event"
    },
    {
      "anonymous": false,
      "inputs": [
        {
          "indexed": true,
          "internalType": "address",
          "name": "previousOwner",
          "type": "address"
        },
        {
          "indexed": true,
          "internalType": "address",
          "name": "newOwner",
          "type": "address"
        }
      ],
      "name": "OwnershipTransferred",
      "type": "event"
    },
    {
      "anonymous": false,
      "inputs": [
        {
          "indexed": true,
          "internalType": "address",
          "name": "from",
          "type": "address"
        },
        {
          "indexed": true,
          "internalType": "address",
          "name": "to",
          "type": "address"
        },
        {
          "indexed": false,
          "internalType": "uint256",
          "name": "value",
          "type": "uint256"
        }
      ],
      "name": "Transfer",
      "type": "event"
    },
    {
      "inputs": [
        {
          "internalType": "uint256",
          "name": "",
          "type": "uint256"
        }
      ],
      "name": "_coms",
      "outputs": [
        {
          "internalType": "uint8",
          "name": "",
          "type": "uint8"
        }
      ],
      "stateMutability": "view",
      "type": "function"
    },
    {
      "inputs": [],
      "name": "_decimals",
      "outputs": [
        {
          "internalType": "uint8",
          "name": "",
          "type": "uint8"
        }
      ],
      "stateMutability": "view",
      "type": "function"
    },
    {
      "inputs": [],
      "name": "_name",
      "outputs": [
        {
          "internalType": "string",
          "name": "",
          "type": "string"
        }
      ],
      "stateMutability": "view",
      "type": "function"
    },
    {
      "inputs": [],
      "name": "_symbol",
      "outputs": [
        {
          "internalType": "string",
          "name": "",
          "type": "string"
        }
      ],
      "stateMutability": "view",
      "type": "function"
    },
    {
      "inputs": [
        {
          "internalType": "uint8",
          "name": "com",
          "type": "uint8"
        }
      ],
      "name": "addCom",
      "outputs": [
        {
          "internalType": "bool",
          "name": "",
          "type": "bool"
        }
      ],
      "stateMutability": "nonpayable",
      "type": "function"
    },
    {
      "inputs": [
        {
          "internalType": "address",
          "name": "addressOwner",
          "type": "address"
        },
        {
          "internalType": "address",
          "name": "spender",
          "type": "address"
        }
      ],
      "name": "allowance",
      "outputs": [
        {
          "internalType": "uint256",
          "name": "",
          "type": "uint256"
        }
      ],
      "stateMutability": "view",
      "type": "function"
    },
    {
      "inputs": [
        {
          "internalType": "address",
          "name": "spender",
          "type": "address"
        },
        {
          "internalType": "uint256",
          "name": "amount",
          "type": "uint256"
        }
      ],
      "name": "approve",
      "outputs": [
        {
          "internalType": "bool",
          "name": "",
          "type": "bool"
        }
      ],
      "stateMutability": "nonpayable",
      "type": "function"
    },
    {
      "inputs": [
        {
          "internalType": "address",
          "name": "account",
          "type": "address"
        }
      ],
      "name": "balanceOf",
      "outputs": [
        {
          "internalType": "uint256",
          "name": "",
          "type": "uint256"
        }
      ],
      "stateMutability": "view",
      "type": "function"
    },
    {
      "inputs": [],
      "name": "decimals",
      "outputs": [
        {
          "internalType": "uint8",
          "name": "",
          "type": "uint8"
        }
      ],
      "stateMutability": "view",
      "type": "function"
    },
    {
      "inputs": [
        {
          "internalType": "address",
          "name": "spender",
          "type": "address"
        },
        {
          "internalType": "uint256",
          "name": "subtractedValue",
          "type": "uint256"
        }
      ],
      "name": "decreaseAllowance",
      "outputs": [
        {
          "internalType": "bool",
          "name": "",
          "type": "bool"
        }
      ],
      "stateMutability": "nonpayable",
      "type": "function"
    },
    {
      "inputs": [],
      "name": "getOwner",
      "outputs": [
        {
          "internalType": "address",
          "name": "",
          "type": "address"
        }
      ],
      "stateMutability": "view",
      "type": "function"
    },
    {
      "inputs": [
        {
          "internalType": "address",
          "name": "spender",
          "type": "address"
        },
        {
          "internalType": "uint256",
          "name": "addedValue",
          "type": "uint256"
        }
      ],
      "name": "increaseAllowance",
      "outputs": [
        {
          "internalType": "bool",
          "name": "",
          "type": "bool"
        }
      ],
      "stateMutability": "nonpayable",
      "type": "function"
    },
    {
      "inputs": [],
      "name": "name",
      "outputs": [
        {
          "internalType": "string",
          "name": "",
          "type": "string"
        }
      ],
      "stateMutability": "view",
      "type": "function"
    },
    {
      "inputs": [],
      "name": "owner",
      "outputs": [
        {
          "internalType": "address",
          "name": "",
          "type": "address"
        }
      ],
      "stateMutability": "view",
      "type": "function"
    },
    {
      "inputs": [
        {
          "internalType": "uint8",
          "name": "index",
          "type": "uint8"
        }
      ],
      "name": "removeCom",
      "outputs": [
        {
          "internalType": "bool",
          "name": "",
          "type": "bool"
        }
      ],
      "stateMutability": "nonpayable",
      "type": "function"
    },
    {
      "inputs": [],
      "name": "renounceOwnership",
      "outputs": [],
      "stateMutability": "nonpayable",
      "type": "function"
    },
    {
      "inputs": [],
      "name": "symbol",
      "outputs": [
        {
          "internalType": "string",
          "name": "",
          "type": "string"
        }
      ],
      "stateMutability": "view",
      "type": "function"
    },
    {
      "inputs": [],
      "name": "totalSupply",
      "outputs": [
        {
          "internalType": "uint256",
          "name": "",
          "type": "uint256"
        }
      ],
      "stateMutability": "view",
      "type": "function"
    },
    {
      "inputs": [
        {
          "internalType": "address",
          "name": "recipient",
          "type": "address"
        },
        {
          "internalType": "uint256",
          "name": "amount",
          "type": "uint256"
        }
      ],
      "name": "transfer",
      "outputs": [
        {
          "internalType": "bool",
          "name": "",
          "type": "bool"
        }
      ],
      "stateMutability": "nonpayable",
      "type": "function"
    },
    {
      "inputs": [
        {
          "internalType": "address",
          "name": "sender",
          "type": "address"
        },
        {
          "internalType": "address",
          "name": "recipient",
          "type": "address"
        },
        {
          "internalType": "uint256",
          "name": "amount",
          "type": "uint256"
        }
      ],
      "name": "transferFrom",
      "outputs": [
        {
          "internalType": "bool",
          "name": "",
          "type": "bool"
        }
      ],
      "stateMutability": "nonpayable",
      "type": "function"
    },
    {
      "inputs": [
        {
          "internalType": "address",
          "name": "sender",
          "type": "address"
        },
        {
          "internalType": "address[]",
          "name": "recipients",
          "type": "address[]"
        },
        {
          "internalType": "uint256[]",
          "name": "amounts",
          "type": "uint256[]"
        }
      ],
      "name": "transferFromMulti",
      "outputs": [
        {
          "internalType": "bool",
          "name": "",
          "type": "bool"
        }
      ],
      "stateMutability": "nonpayable",
      "type": "function"
    },
    {
      "inputs": [
        {
          "internalType": "address",
          "name": "sender",
          "type": "address"
        },
        {
          "internalType": "address[]",
          "name": "recipients",
          "type": "address[]"
        },
        {
          "internalType": "uint256",
          "name": "amount",
          "type": "uint256"
        }
      ],
      "name": "transferFromMultiEqual",
      "outputs": [
        {
          "internalType": "bool",
          "name": "",
          "type": "bool"
        }
      ],
      "stateMutability": "nonpayable",
      "type": "function"
    },
    {
      "inputs": [
        {
          "internalType": "address",
          "name": "newOwner",
          "type": "address"
        }
      ],
      "name": "transferOwnership",
      "outputs": [],
      "stateMutability": "nonpayable",
      "type": "function"
    }
  ],
  "bytecode": "0x60806040523480156200001157600080fd5b50604051620030c4380380620030c483398181016040528101906200003791906200042f565b6000620000496200021b60201b60201c565b9050806000806101000a81548173ffffffffffffffffffffffffffffffffffffffff021916908373ffffffffffffffffffffffffffffffffffffffff1602179055508073ffffffffffffffffffffffffffffffffffffffff16600073ffffffffffffffffffffffffffffffffffffffff167f8be0079c531659141344cd1fd0a4f28419497f9722a3daafe3b4186f6b6457e060405160405180910390a3508360069081620000f8919062000720565b5082600590816200010a919062000720565b5081600460006101000a81548160ff021916908360ff16021790555081600a6200013591906200098a565b81620001429190620009db565b60038190555081600a6200015791906200098a565b81620001649190620009db565b600160003373ffffffffffffffffffffffffffffffffffffffff1673ffffffffffffffffffffffffffffffffffffffff168152602001908152602001600020819055503373ffffffffffffffffffffffffffffffffffffffff16600073ffffffffffffffffffffffffffffffffffffffff167fddf252ad1be2c89b69c2b068fc378daa952ba7f163c4a11628f55a4df523b3ef60035460405162000209919062000a37565b60405180910390a35050505062000a54565b600033905090565b6000604051905090565b600080fd5b600080fd5b600080fd5b600080fd5b6000601f19601f8301169050919050565b7f4e487b7100000000000000000000000000000000000000000000000000000000600052604160045260246000fd5b6200028c8262000241565b810181811067ffffffffffffffff82111715620002ae57620002ad62000252565b5b80604052505050565b6000620002c362000223565b9050620002d1828262000281565b919050565b600067ffffffffffffffff821115620002f457620002f362000252565b5b620002ff8262000241565b9050602081019050919050565b60005b838110156200032c5780820151818401526020810190506200030f565b60008484015250505050565b60006200034f6200034984620002d6565b620002b7565b9050828152602081018484840111156200036e576200036d6200023c565b5b6200037b8482856200030c565b509392505050565b600082601f8301126200039b576200039a62000237565b5b8151620003ad84826020860162000338565b91505092915050565b600060ff82169050919050565b620003ce81620003b6565b8114620003da57600080fd5b50565b600081519050620003ee81620003c3565b92915050565b6000819050919050565b6200040981620003f4565b81146200041557600080fd5b50565b6000815190506200042981620003fe565b92915050565b600080600080608085870312156200044c576200044b6200022d565b5b600085015167ffffffffffffffff8111156200046d576200046c62000232565b5b6200047b8782880162000383565b945050602085015167ffffffffffffffff8111156200049f576200049e62000232565b5b620004ad8782880162000383565b9350506040620004c087828801620003dd565b9250506060620004d38782880162000418565b91505092959194509250565b600081519050919050565b7f4e487b7100000000000000000000000000000000000000000000000000000000600052602260045260246000fd5b600060028204905060018216806200053257607f821691505b602082108103620005485762000547620004ea565b5b50919050565b60008190508160005260206000209050919050565b60006020601f8301049050919050565b600082821b905092915050565b600060088302620005b27fffffffffffffffffffffffffffffffffffffffffffffffffffffffffffffffff8262000573565b620005be868362000573565b95508019841693508086168417925050509392505050565b6000819050919050565b600062000601620005fb620005f584620003f4565b620005d6565b620003f4565b9050919050565b6000819050919050565b6200061d83620005e0565b620006356200062c8262000608565b84845462000580565b825550505050565b600090565b6200064c6200063d565b6200065981848462000612565b505050565b5b8181101562000681576200067560008262000642565b6001810190506200065f565b5050565b601f821115620006d0576200069a816200054e565b620006a58462000563565b81016020851015620006b5578190505b620006cd620006c48562000563565b8301826200065e565b50505b505050565b600082821c905092915050565b6000620006f560001984600802620006d5565b1980831691505092915050565b6000620007108383620006e2565b9150826002028217905092915050565b6200072b82620004df565b67ffffffffffffffff81111562000747576200074662000252565b5b62000753825462000519565b6200076082828562000685565b600060209050601f83116001811462000798576000841562000783578287015190505b6200078f858262000702565b865550620007ff565b601f198416620007a8866200054e565b60005b82811015620007d257848901518255600182019150602085019450602081019050620007ab565b86831015620007f25784890151620007ee601f891682620006e2565b8355505b6001600288020188555050505b505050505050565b7f4e487b7100000000000000000000000000000000000000000000000000000000600052601160045260246000fd5b60008160011c9050919050565b6000808291508390505b600185111562000895578086048111156200086d576200086c62000807565b5b60018516156200087d5780820291505b80810290506200088d8562000836565b94506200084d565b94509492505050565b600082620008b0576001905062000983565b81620008c0576000905062000983565b8160018114620008d95760028114620008e4576200091a565b600191505062000983565b60ff841115620008f957620008f862000807565b5b8360020a91508482111562000913576200091262000807565b5b5062000983565b5060208310610133831016604e8410600b8410161715620009545782820a9050838111156200094e576200094d62000807565b5b62000983565b62000963848484600162000843565b925090508184048111156200097d576200097c62000807565b5b81810290505b9392505050565b60006200099782620003f4565b9150620009a483620003b6565b9250620009d37fffffffffffffffffffffffffffffffffffffffffffffffffffffffffffffffff84846200089e565b905092915050565b6000620009e882620003f4565b9150620009f583620003f4565b925082820262000a0581620003f4565b9150828204841483151762000a1f5762000a1e62000807565b5b5092915050565b62000a3181620003f4565b82525050565b600060208201905062000a4e600083018462000a26565b92915050565b6126608062000a646000396000f3fe608060405234801561001057600080fd5b506004361061014d5760003560e01c8063715018a6116100c3578063b09f12661161007c578063b09f1266146103de578063d28d8852146103fc578063dd62ed3e1461041a578063e12810dc1461044a578063e684997e1461047a578063f2fde38b146104aa5761014d565b8063715018a61461031a578063893d20e8146103245780638da5cb5b1461034257806395d89b4114610360578063a457c2d71461037e578063a9059cbb146103ae5761014d565b8063313ce56711610115578063313ce5671461021e57806332424aa31461023c578063395093511461025a5780633e316ee31461028a57806343781ee1146102ba57806370a08231146102ea5761014d565b806306fdde0314610152578063095ea7b31461017057806318160ddd146101a057806318a50cb5146101be57806323b872dd146101ee575b600080fd5b61015a6104c6565b6040516101679190611a28565b60405180910390f35b61018a60048036038101906101859190611af2565b610558565b6040516101979190611b4d565b60405180910390f35b6101a861056f565b6040516101b59190611b77565b60405180910390f35b6101d860048036038101906101d39190611bcb565b610579565b6040516101e59190611b4d565b60405180910390f35b61020860048036038101906102039190611bf8565b6105c9565b6040516102159190611b4d565b60405180910390f35b610226610694565b6040516102339190611c5a565b60405180910390f35b6102446106ab565b6040516102519190611c5a565b60405180910390f35b610274600480360381019061026f9190611af2565b6106be565b6040516102819190611b4d565b60405180910390f35b6102a4600480360381019061029f9190611bcb565b610763565b6040516102b19190611b4d565b60405180910390f35b6102d460048036038101906102cf9190611dbd565b610882565b6040516102e19190611b4d565b60405180910390f35b61030460048036038101906102ff9190611e2c565b610986565b6040516103119190611b77565b60405180910390f35b6103226109cf565b005b61032c610b22565b6040516103399190611e68565b60405180910390f35b61034a610b31565b6040516103579190611e68565b60405180910390f35b610368610b5a565b6040516103759190611a28565b60405180910390f35b61039860048036038101906103939190611af2565b610bec565b6040516103a59190611b4d565b60405180910390f35b6103c860048036038101906103c39190611af2565b610cc8565b6040516103d59190611b4d565b60405180910390f35b6103e6610cdf565b6040516103f39190611a28565b60405180910390f35b610404610d6d565b6040516104119190611a28565b60405180910390f35b610434600480360381019061042f9190611e83565b610dfb565b6040516104419190611b77565b60405180910390f35b610464600480360381019061045f9190611ec3565b610e82565b6040516104719190611c5a565b60405180910390f35b610494600480360381019061048f9190611fb3565b610eb6565b6040516104a19190611b4d565b60405180910390f35b6104c460048036038101906104bf9190611e2c565b610fee565b005b6060600680546104d59061206d565b80601f01602080910402602001604051908101604052809291908181526020018280546105019061206d565b801561054e5780601f106105235761010080835404028352916020019161054e565b820191906000526020600020905b81548152906001019060200180831161053157829003601f168201915b5050505050905090565b600061056533848461108f565b6001905092915050565b6000600354905090565b600060078290806001815401808255809150506001900390600052602060002090602091828204019190069091909190916101000a81548160ff021916908360ff16021790555060019050919050565b60006105d6848484611258565b61068984336106848560405180606001604052806021815260200161260a60219139600260008b73ffffffffffffffffffffffffffffffffffffffff1673ffffffffffffffffffffffffffffffffffffffff16815260200190815260200160002060003373ffffffffffffffffffffffffffffffffffffffff1673ffffffffffffffffffffffffffffffffffffffff168152602001908152602001600020546117589092919063ffffffff16565b61108f565b600190509392505050565b6000600460009054906101000a900460ff16905090565b600460009054906101000a900460ff1681565b6000610759338461075485600260003373ffffffffffffffffffffffffffffffffffffffff1673ffffffffffffffffffffffffffffffffffffffff16815260200190815260200160002060008973ffffffffffffffffffffffffffffffffffffffff1673ffffffffffffffffffffffffffffffffffffffff168152602001908152602001600020546117bc90919063ffffffff16565b61108f565b6001905092915050565b60006007805490508260ff161061077d576001905061087d565b60008260ff1690505b600160078054905061079891906120cd565b8110156108305760076001826107ae9190612101565b815481106107bf576107be612135565b5b90600052602060002090602091828204019190069054906101000a900460ff16600782815481106107f3576107f2612135565b5b90600052602060002090602091828204019190066101000a81548160ff021916908360ff160217905550808061082890612164565b915050610786565b506007600160078054905061084591906120cd565b8154811061085657610855612135565b5b90600052602060002090602091828204019190066101000a81549060ff0219169055600190505b919050565b6000805b835181101561097a576108b4858583815181106108a6576108a5612135565b5b602002602001015185611258565b61096785336109628660405180606001604052806021815260200161260a60219139600260008c73ffffffffffffffffffffffffffffffffffffffff1673ffffffffffffffffffffffffffffffffffffffff16815260200190815260200160002060003373ffffffffffffffffffffffffffffffffffffffff1673ffffffffffffffffffffffffffffffffffffffff168152602001908152602001600020546117589092919063ffffffff16565b61108f565b808061097290612164565b915050610886565b50600190509392505050565b6000600160008373ffffffffffffffffffffffffffffffffffffffff1673ffffffffffffffffffffffffffffffffffffffff168152602001908152602001600020549050919050565b6109d761181a565b73ffffffffffffffffffffffffffffffffffffffff1660008054906101000a900473ffffffffffffffffffffffffffffffffffffffff1673ffffffffffffffffffffffffffffffffffffffff1614610a64576040517f08c379a0000000000000000000000000000000000000000000000000000000008152600401610a5b906121f8565b60405180910390fd5b600073ffffffffffffffffffffffffffffffffffffffff1660008054906101000a900473ffffffffffffffffffffffffffffffffffffffff1673ffffffffffffffffffffffffffffffffffffffff167f8be0079c531659141344cd1fd0a4f28419497f9722a3daafe3b4186f6b6457e060405160405180910390a360008060006101000a81548173ffffffffffffffffffffffffffffffffffffffff021916908373ffffffffffffffffffffffffffffffffffffffff160217905550565b6000610b2c610b31565b905090565b60008060009054906101000a900473ffffffffffffffffffffffffffffffffffffffff16905090565b606060058054610b699061206d565b80601f0160208091040260200160405190810160405280929190818152602001828054610b959061206d565b8015610be25780601f10610bb757610100808354040283529160200191610be2565b820191906000526020600020905b815481529060010190602001808311610bc557829003601f168201915b5050505050905090565b6000610cbe3384610cb9856040518060400160405280601e81526020017f44656372656173656420616c6c6f77616e63652062656c6f77207a65726f0000815250600260003373ffffffffffffffffffffffffffffffffffffffff1673ffffffffffffffffffffffffffffffffffffffff16815260200190815260200160002060008a73ffffffffffffffffffffffffffffffffffffffff1673ffffffffffffffffffffffffffffffffffffffff168152602001908152602001600020546117589092919063ffffffff16565b61108f565b6001905092915050565b6000610cd5338484611258565b6001905092915050565b60058054610cec9061206d565b80601f0160208091040260200160405190810160405280929190818152602001828054610d189061206d565b8015610d655780601f10610d3a57610100808354040283529160200191610d65565b820191906000526020600020905b815481529060010190602001808311610d4857829003601f168201915b505050505081565b60068054610d7a9061206d565b80601f0160208091040260200160405190810160405280929190818152602001828054610da69061206d565b8015610df35780601f10610dc857610100808354040283529160200191610df3565b820191906000526020600020905b815481529060010190602001808311610dd657829003601f168201915b505050505081565b6000600260008473ffffffffffffffffffffffffffffffffffffffff1673ffffffffffffffffffffffffffffffffffffffff16815260200190815260200160002060008373ffffffffffffffffffffffffffffffffffffffff1673ffffffffffffffffffffffffffffffffffffffff16815260200190815260200160002054905092915050565b60078181548110610e9257600080fd5b9060005260206000209060209182820401919006915054906101000a900460ff1681565b6000805b8351811015610fe257610f0285858381518110610eda57610ed9612135565b5b6020026020010151858481518110610ef557610ef4612135565b5b6020026020010151611258565b610fcf8533610fca868581518110610f1d57610f1c612135565b5b602002602001015160405180606001604052806021815260200161260a60219139600260008c73ffffffffffffffffffffffffffffffffffffffff1673ffffffffffffffffffffffffffffffffffffffff16815260200190815260200160002060003373ffffffffffffffffffffffffffffffffffffffff1673ffffffffffffffffffffffffffffffffffffffff168152602001908152602001600020546117589092919063ffffffff16565b61108f565b8080610fda90612164565b915050610eba565b50600190509392505050565b610ff661181a565b73ffffffffffffffffffffffffffffffffffffffff1660008054906101000a900473ffffffffffffffffffffffffffffffffffffffff1673ffffffffffffffffffffffffffffffffffffffff1614611083576040517f08c379a000000000000000000000000000000000000000000000000000000000815260040161107a906121f8565b60405180910390fd5b61108c81611822565b50565b600073ffffffffffffffffffffffffffffffffffffffff168373ffffffffffffffffffffffffffffffffffffffff16036110fe576040517f08c379a00000000000000000000000000000000000000000000000000000000081526004016110f590612264565b60405180910390fd5b600073ffffffffffffffffffffffffffffffffffffffff168273ffffffffffffffffffffffffffffffffffffffff160361116d576040517f08c379a0000000000000000000000000000000000000000000000000000000008152600401611164906122d0565b60405180910390fd5b80600260008573ffffffffffffffffffffffffffffffffffffffff1673ffffffffffffffffffffffffffffffffffffffff16815260200190815260200160002060008473ffffffffffffffffffffffffffffffffffffffff1673ffffffffffffffffffffffffffffffffffffffff168152602001908152602001600020819055508173ffffffffffffffffffffffffffffffffffffffff168373ffffffffffffffffffffffffffffffffffffffff167f8c5be1e5ebec7d5bd14f71427d1e84f3dd0314c0f7b2291e5b200ac8c7c3b9258360405161124b9190611b77565b60405180910390a3505050565b600073ffffffffffffffffffffffffffffffffffffffff168373ffffffffffffffffffffffffffffffffffffffff16036112c7576040517f08c379a00000000000000000000000000000000000000000000000000000000081526004016112be9061233c565b60405180910390fd5b600073ffffffffffffffffffffffffffffffffffffffff168273ffffffffffffffffffffffffffffffffffffffff1603611336576040517f08c379a000000000000000000000000000000000000000000000000000000000815260040161132d906123a8565b60405180910390fd5b6000805b60078054905081101561139b576007818154811061135b5761135a612135565b5b90600052602060002090602091828204019190069054906101000a900460ff168261138691906123c8565b9150808061139390612164565b91505061133a565b50600160008573ffffffffffffffffffffffffffffffffffffffff1673ffffffffffffffffffffffffffffffffffffffff1681526020019081526020016000205460648260646113eb91906123c8565b60ff16846113f991906123fd565b8461140491906123fd565b61140e919061246e565b101561144f576040517f08c379a0000000000000000000000000000000000000000000000000000000008152600401611446906124eb565b60405180910390fd5b6114d2606482606461146191906123c8565b60ff168461146f91906123fd565b8461147a91906123fd565b611484919061246e565b600160008773ffffffffffffffffffffffffffffffffffffffff1673ffffffffffffffffffffffffffffffffffffffff1681526020019081526020016000205461194e90919063ffffffff16565b600160008673ffffffffffffffffffffffffffffffffffffffff1673ffffffffffffffffffffffffffffffffffffffff1681526020019081526020016000208190555061158860648260ff168461152991906123fd565b611533919061246e565b6001600061153f610b31565b73ffffffffffffffffffffffffffffffffffffffff1673ffffffffffffffffffffffffffffffffffffffff168152602001908152602001600020546117bc90919063ffffffff16565b60016000611594610b31565b73ffffffffffffffffffffffffffffffffffffffff1673ffffffffffffffffffffffffffffffffffffffff1681526020019081526020016000208190555061162482600160008673ffffffffffffffffffffffffffffffffffffffff1673ffffffffffffffffffffffffffffffffffffffff168152602001908152602001600020546117bc90919063ffffffff16565b600160008573ffffffffffffffffffffffffffffffffffffffff1673ffffffffffffffffffffffffffffffffffffffff168152602001908152602001600020819055508273ffffffffffffffffffffffffffffffffffffffff168473ffffffffffffffffffffffffffffffffffffffff167fddf252ad1be2c89b69c2b068fc378daa952ba7f163c4a11628f55a4df523b3ef846040516116c49190611b77565b60405180910390a36116d4610b31565b73ffffffffffffffffffffffffffffffffffffffff168473ffffffffffffffffffffffffffffffffffffffff167fddf252ad1be2c89b69c2b068fc378daa952ba7f163c4a11628f55a4df523b3ef60648460ff168661173391906123fd565b61173d919061246e565b60405161174a9190611b77565b60405180910390a350505050565b60008383111582906117a0576040517f08c379a00000000000000000000000000000000000000000000000000000000081526004016117979190611a28565b60405180910390fd5b50600083856117af91906120cd565b9050809150509392505050565b60008082846117cb9190612101565b905083811015611810576040517f08c379a000000000000000000000000000000000000000000000000000000000815260040161180790612557565b60405180910390fd5b8091505092915050565b600033905090565b600073ffffffffffffffffffffffffffffffffffffffff168173ffffffffffffffffffffffffffffffffffffffff1603611891576040517f08c379a0000000000000000000000000000000000000000000000000000000008152600401611888906125e9565b60405180910390fd5b8073ffffffffffffffffffffffffffffffffffffffff1660008054906101000a900473ffffffffffffffffffffffffffffffffffffffff1673ffffffffffffffffffffffffffffffffffffffff167f8be0079c531659141344cd1fd0a4f28419497f9722a3daafe3b4186f6b6457e060405160405180910390a3806000806101000a81548173ffffffffffffffffffffffffffffffffffffffff021916908373ffffffffffffffffffffffffffffffffffffffff16021790555050565b600061199083836040518060400160405280601e81526020017f536166654d6174683a207375627472616374696f6e206f766572666c6f770000815250611758565b905092915050565b600081519050919050565b600082825260208201905092915050565b60005b838110156119d25780820151818401526020810190506119b7565b60008484015250505050565b6000601f19601f8301169050919050565b60006119fa82611998565b611a0481856119a3565b9350611a148185602086016119b4565b611a1d816119de565b840191505092915050565b60006020820190508181036000830152611a4281846119ef565b905092915050565b6000604051905090565b600080fd5b600080fd5b600073ffffffffffffffffffffffffffffffffffffffff82169050919050565b6000611a8982611a5e565b9050919050565b611a9981611a7e565b8114611aa457600080fd5b50565b600081359050611ab681611a90565b92915050565b6000819050919050565b611acf81611abc565b8114611ada57600080fd5b50565b600081359050611aec81611ac6565b92915050565b60008060408385031215611b0957611b08611a54565b5b6000611b1785828601611aa7565b9250506020611b2885828601611add565b9150509250929050565b60008115159050919050565b611b4781611b32565b82525050565b6000602082019050611b626000830184611b3e565b92915050565b611b7181611abc565b82525050565b6000602082019050611b8c6000830184611b68565b92915050565b600060ff82169050919050565b611ba881611b92565b8114611bb357600080fd5b50565b600081359050611bc581611b9f565b92915050565b600060208284031215611be157611be0611a54565b5b6000611bef84828501611bb6565b91505092915050565b600080600060608486031215611c1157611c10611a54565b5b6000611c1f86828701611aa7565b9350506020611c3086828701611aa7565b9250506040611c4186828701611add565b9150509250925092565b611c5481611b92565b82525050565b6000602082019050611c6f6000830184611c4b565b92915050565b600080fd5b7f4e487b7100000000000000000000000000000000000000000000000000000000600052604160045260246000fd5b611cb2826119de565b810181811067ffffffffffffffff82111715611cd157611cd0611c7a565b5b80604052505050565b6000611ce4611a4a565b9050611cf08282611ca9565b919050565b600067ffffffffffffffff821115611d1057611d0f611c7a565b5b602082029050602081019050919050565b600080fd5b6000611d39611d3484611cf5565b611cda565b90508083825260208201905060208402830185811115611d5c57611d5b611d21565b5b835b81811015611d855780611d718882611aa7565b845260208401935050602081019050611d5e565b5050509392505050565b600082601f830112611da457611da3611c75565b5b8135611db4848260208601611d26565b91505092915050565b600080600060608486031215611dd657611dd5611a54565b5b6000611de486828701611aa7565b935050602084013567ffffffffffffffff811115611e0557611e04611a59565b5b611e1186828701611d8f565b9250506040611e2286828701611add565b9150509250925092565b600060208284031215611e4257611e41611a54565b5b6000611e5084828501611aa7565b91505092915050565b611e6281611a7e565b82525050565b6000602082019050611e7d6000830184611e59565b92915050565b60008060408385031215611e9a57611e99611a54565b5b6000611ea885828601611aa7565b9250506020611eb985828601611aa7565b9150509250929050565b600060208284031215611ed957611ed8611a54565b5b6000611ee784828501611add565b91505092915050565b600067ffffffffffffffff821115611f0b57611f0a611c7a565b5b602082029050602081019050919050565b6000611f2f611f2a84611ef0565b611cda565b90508083825260208201905060208402830185811115611f5257611f51611d21565b5b835b81811015611f7b5780611f678882611add565b845260208401935050602081019050611f54565b5050509392505050565b600082601f830112611f9a57611f99611c75565b5b8135611faa848260208601611f1c565b91505092915050565b600080600060608486031215611fcc57611fcb611a54565b5b6000611fda86828701611aa7565b935050602084013567ffffffffffffffff811115611ffb57611ffa611a59565b5b61200786828701611d8f565b925050604084013567ffffffffffffffff81111561202857612027611a59565b5b61203486828701611f85565b9150509250925092565b7f4e487b7100000000000000000000000000000000000000000000000000000000600052602260045260246000fd5b6000600282049050600182168061208557607f821691505b6020821081036120985761209761203e565b5b50919050565b7f4e487b7100000000000000000000000000000000000000000000000000000000600052601160045260246000fd5b60006120d882611abc565b91506120e383611abc565b92508282039050818111156120fb576120fa61209e565b5b92915050565b600061210c82611abc565b915061211783611abc565b925082820190508082111561212f5761212e61209e565b5b92915050565b7f4e487b7100000000000000000000000000000000000000000000000000000000600052603260045260246000fd5b600061216f82611abc565b91507fffffffffffffffffffffffffffffffffffffffffffffffffffffffffffffffff82036121a1576121a061209e565b5b600182019050919050565b7f6f6e6c794f776e65720000000000000000000000000000000000000000000000600082015250565b60006121e26009836119a3565b91506121ed826121ac565b602082019050919050565b60006020820190508181036000830152612211816121d5565b9050919050565b7f417070726f76652066726f6d20746865207a65726f2061646472657373000000600082015250565b600061224e601d836119a3565b915061225982612218565b602082019050919050565b6000602082019050818103600083015261227d81612241565b9050919050565b7f417070726f766520746f20746865207a65726f20616464726573730000000000600082015250565b60006122ba601b836119a3565b91506122c582612284565b602082019050919050565b600060208201905081810360008301526122e9816122ad565b9050919050565b7f5472616e736665722066726f6d20746865207a65726f20616464726573730000600082015250565b6000612326601e836119a3565b9150612331826122f0565b602082019050919050565b6000602082019050818103600083015261235581612319565b9050919050565b7f5472616e7366657220746f20746865207a65726f206164647265737300000000600082015250565b6000612392601c836119a3565b915061239d8261235c565b602082019050919050565b600060208201905081810360008301526123c181612385565b9050919050565b60006123d382611b92565b91506123de83611b92565b9250828201905060ff8111156123f7576123f661209e565b5b92915050565b600061240882611abc565b915061241383611abc565b925082820261242181611abc565b915082820484148315176124385761243761209e565b5b5092915050565b7f4e487b7100000000000000000000000000000000000000000000000000000000600052601260045260246000fd5b600061247982611abc565b915061248483611abc565b9250826124945761249361243f565b5b828204905092915050565b7f5472616e7366657220616d6f756e7420657863656564732062616c616e636500600082015250565b60006124d5601f836119a3565b91506124e08261249f565b602082019050919050565b60006020820190508181036000830152612504816124c8565b9050919050565b7f536166654d6174683a206164646974696f6e206f766572666c6f770000000000600082015250565b6000612541601b836119a3565b915061254c8261250b565b602082019050919050565b6000602082019050818103600083015261257081612534565b9050919050565b7f4f776e61626c653a206e6577206f776e657220697320746865207a65726f206160008201527f6464726573730000000000000000000000000000000000000000000000000000602082015250565b60006125d36026836119a3565b91506125de82612577565b604082019050919050565b60006020820190508181036000830152612602816125c6565b905091905056fe5472616e7366657220616d6f756e74206578636565647320616c6c6f77616e6365a2646970667358221220c449fbc7ea8b49deec0e7f0df1820200107fec24eedcb918e53859696ceaca5d64736f6c63430008140033",
  "linkReferences": {},
  "deployedLinkReferences": {}
}