{
  "_format": "hh-sol-artifact-1",
  "contractName": "TokenTax",
  "sourceName": "contracts/Tokens.sol",
  "abi": [
    {
      "inputs": [
        {
          "internalType": "string",
          "name": "n",
          "type": "string"
        },
        {
          "internalType": "string",
          "name": "s",
          "type": "string"
        },
        {
          "internalType": "uint8",
          "name": "dec",
          "type": "uint8"
        },
        {
          "internalType": "uint256",
          "name": "supply",
          "type": "uint256"
        },
        {
          "internalType": "uint8",
          "name": "com",
          "type": "uint8"
        }
      ],
      "stateMutability": "nonpayable",
      "type": "constructor"
    },
    {
      "anonymous": false,
      "inputs": [
        {
          "indexed": true,
          "internalType": "address",
          "name": "owner",
          "type": "address"
        },
        {
          "indexed": true,
          "internalType": "address",
          "name": "spender",
          "type": "address"
        },
        {
          "indexed": false,
          "internalType": "uint256",
          "name": "value",
          "type": "uint256"
        }
      ],
      "name": "Approval",
      "type": "event"
    },
    {
      "anonymous": false,
      "inputs": [
        {
          "indexed": true,
          "internalType": "address",
          "name": "previousOwner",
          "type": "address"
        },
        {
          "indexed": true,
          "internalType": "address",
          "name": "newOwner",
          "type": "address"
        }
      ],
      "name": "OwnershipTransferred",
      "type": "event"
    },
    {
      "anonymous": false,
      "inputs": [
        {
          "indexed": true,
          "internalType": "address",
          "name": "from",
          "type": "address"
        },
        {
          "indexed": true,
          "internalType": "address",
          "name": "to",
          "type": "address"
        },
        {
          "indexed": false,
          "internalType": "uint256",
          "name": "value",
          "type": "uint256"
        }
      ],
      "name": "Transfer",
      "type": "event"
    },
    {
      "inputs": [],
      "name": "_com",
      "outputs": [
        {
          "internalType": "uint8",
          "name": "",
          "type": "uint8"
        }
      ],
      "stateMutability": "view",
      "type": "function"
    },
    {
      "inputs": [],
      "name": "_decimals",
      "outputs": [
        {
          "internalType": "uint8",
          "name": "",
          "type": "uint8"
        }
      ],
      "stateMutability": "view",
      "type": "function"
    },
    {
      "inputs": [],
      "name": "_name",
      "outputs": [
        {
          "internalType": "string",
          "name": "",
          "type": "string"
        }
      ],
      "stateMutability": "view",
      "type": "function"
    },
    {
      "inputs": [],
      "name": "_symbol",
      "outputs": [
        {
          "internalType": "string",
          "name": "",
          "type": "string"
        }
      ],
      "stateMutability": "view",
      "type": "function"
    },
    {
      "inputs": [
        {
          "internalType": "address",
          "name": "addressOwner",
          "type": "address"
        },
        {
          "internalType": "address",
          "name": "spender",
          "type": "address"
        }
      ],
      "name": "allowance",
      "outputs": [
        {
          "internalType": "uint256",
          "name": "",
          "type": "uint256"
        }
      ],
      "stateMutability": "view",
      "type": "function"
    },
    {
      "inputs": [
        {
          "internalType": "address",
          "name": "spender",
          "type": "address"
        },
        {
          "internalType": "uint256",
          "name": "amount",
          "type": "uint256"
        }
      ],
      "name": "approve",
      "outputs": [
        {
          "internalType": "bool",
          "name": "",
          "type": "bool"
        }
      ],
      "stateMutability": "nonpayable",
      "type": "function"
    },
    {
      "inputs": [
        {
          "internalType": "address",
          "name": "account",
          "type": "address"
        }
      ],
      "name": "balanceOf",
      "outputs": [
        {
          "internalType": "uint256",
          "name": "",
          "type": "uint256"
        }
      ],
      "stateMutability": "view",
      "type": "function"
    },
    {
      "inputs": [],
      "name": "decimals",
      "outputs": [
        {
          "internalType": "uint8",
          "name": "",
          "type": "uint8"
        }
      ],
      "stateMutability": "view",
      "type": "function"
    },
    {
      "inputs": [
        {
          "internalType": "address",
          "name": "spender",
          "type": "address"
        },
        {
          "internalType": "uint256",
          "name": "subtractedValue",
          "type": "uint256"
        }
      ],
      "name": "decreaseAllowance",
      "outputs": [
        {
          "internalType": "bool",
          "name": "",
          "type": "bool"
        }
      ],
      "stateMutability": "nonpayable",
      "type": "function"
    },
    {
      "inputs": [],
      "name": "getOwner",
      "outputs": [
        {
          "internalType": "address",
          "name": "",
          "type": "address"
        }
      ],
      "stateMutability": "view",
      "type": "function"
    },
    {
      "inputs": [
        {
          "internalType": "address",
          "name": "spender",
          "type": "address"
        },
        {
          "internalType": "uint256",
          "name": "addedValue",
          "type": "uint256"
        }
      ],
      "name": "increaseAllowance",
      "outputs": [
        {
          "internalType": "bool",
          "name": "",
          "type": "bool"
        }
      ],
      "stateMutability": "nonpayable",
      "type": "function"
    },
    {
      "inputs": [],
      "name": "name",
      "outputs": [
        {
          "internalType": "string",
          "name": "",
          "type": "string"
        }
      ],
      "stateMutability": "view",
      "type": "function"
    },
    {
      "inputs": [],
      "name": "owner",
      "outputs": [
        {
          "internalType": "address",
          "name": "",
          "type": "address"
        }
      ],
      "stateMutability": "view",
      "type": "function"
    },
    {
      "inputs": [],
      "name": "renounceOwnership",
      "outputs": [],
      "stateMutability": "nonpayable",
      "type": "function"
    },
    {
      "inputs": [],
      "name": "symbol",
      "outputs": [
        {
          "internalType": "string",
          "name": "",
          "type": "string"
        }
      ],
      "stateMutability": "view",
      "type": "function"
    },
    {
      "inputs": [],
      "name": "totalSupply",
      "outputs": [
        {
          "internalType": "uint256",
          "name": "",
          "type": "uint256"
        }
      ],
      "stateMutability": "view",
      "type": "function"
    },
    {
      "inputs": [
        {
          "internalType": "address",
          "name": "recipient",
          "type": "address"
        },
        {
          "internalType": "uint256",
          "name": "amount",
          "type": "uint256"
        }
      ],
      "name": "transfer",
      "outputs": [
        {
          "internalType": "bool",
          "name": "",
          "type": "bool"
        }
      ],
      "stateMutability": "nonpayable",
      "type": "function"
    },
    {
      "inputs": [
        {
          "internalType": "address",
          "name": "sender",
          "type": "address"
        },
        {
          "internalType": "address",
          "name": "recipient",
          "type": "address"
        },
        {
          "internalType": "uint256",
          "name": "amount",
          "type": "uint256"
        }
      ],
      "name": "transferFrom",
      "outputs": [
        {
          "internalType": "bool",
          "name": "",
          "type": "bool"
        }
      ],
      "stateMutability": "nonpayable",
      "type": "function"
    },
    {
      "inputs": [
        {
          "internalType": "address",
          "name": "sender",
          "type": "address"
        },
        {
          "internalType": "address[]",
          "name": "recipients",
          "type": "address[]"
        },
        {
          "internalType": "uint256[]",
          "name": "amounts",
          "type": "uint256[]"
        }
      ],
      "name": "transferFromMulti",
      "outputs": [
        {
          "internalType": "bool",
          "name": "",
          "type": "bool"
        }
      ],
      "stateMutability": "nonpayable",
      "type": "function"
    },
    {
      "inputs": [
        {
          "internalType": "address",
          "name": "sender",
          "type": "address"
        },
        {
          "internalType": "address[]",
          "name": "recipients",
          "type": "address[]"
        },
        {
          "internalType": "uint256",
          "name": "amount",
          "type": "uint256"
        }
      ],
      "name": "transferFromMultiEqual",
      "outputs": [
        {
          "internalType": "bool",
          "name": "",
          "type": "bool"
        }
      ],
      "stateMutability": "nonpayable",
      "type": "function"
    },
    {
      "inputs": [
        {
          "internalType": "address",
          "name": "newOwner",
          "type": "address"
        }
      ],
      "name": "transferOwnership",
      "outputs": [],
      "stateMutability": "nonpayable",
      "type": "function"
    }
  ],
  "bytecode": "0x60806040523480156200001157600080fd5b5060405162002e2d38038062002e2d83398181016040528101906200003791906200044b565b6000620000496200023760201b60201c565b9050806000806101000a81548173ffffffffffffffffffffffffffffffffffffffff021916908373ffffffffffffffffffffffffffffffffffffffff1602179055508073ffffffffffffffffffffffffffffffffffffffff16600073ffffffffffffffffffffffffffffffffffffffff167f8be0079c531659141344cd1fd0a4f28419497f9722a3daafe3b4186f6b6457e060405160405180910390a3508460069081620000f8919062000752565b5083600590816200010a919062000752565b5082600460006101000a81548160ff021916908360ff16021790555082600a620001359190620009bc565b8262000142919062000a0d565b60038190555082600a620001579190620009bc565b8262000164919062000a0d565b600160003373ffffffffffffffffffffffffffffffffffffffff1673ffffffffffffffffffffffffffffffffffffffff1681526020019081526020016000208190555080600760006101000a81548160ff021916908360ff1602179055503373ffffffffffffffffffffffffffffffffffffffff16600073ffffffffffffffffffffffffffffffffffffffff167fddf252ad1be2c89b69c2b068fc378daa952ba7f163c4a11628f55a4df523b3ef60035460405162000224919062000a69565b60405180910390a3505050505062000a86565b600033905090565b6000604051905090565b600080fd5b600080fd5b600080fd5b600080fd5b6000601f19601f8301169050919050565b7f4e487b7100000000000000000000000000000000000000000000000000000000600052604160045260246000fd5b620002a8826200025d565b810181811067ffffffffffffffff82111715620002ca57620002c96200026e565b5b80604052505050565b6000620002df6200023f565b9050620002ed82826200029d565b919050565b600067ffffffffffffffff82111562000310576200030f6200026e565b5b6200031b826200025d565b9050602081019050919050565b60005b83811015620003485780820151818401526020810190506200032b565b60008484015250505050565b60006200036b6200036584620002f2565b620002d3565b9050828152602081018484840111156200038a576200038962000258565b5b6200039784828562000328565b509392505050565b600082601f830112620003b757620003b662000253565b5b8151620003c984826020860162000354565b91505092915050565b600060ff82169050919050565b620003ea81620003d2565b8114620003f657600080fd5b50565b6000815190506200040a81620003df565b92915050565b6000819050919050565b620004258162000410565b81146200043157600080fd5b50565b60008151905062000445816200041a565b92915050565b600080600080600060a086880312156200046a576200046962000249565b5b600086015167ffffffffffffffff8111156200048b576200048a6200024e565b5b62000499888289016200039f565b955050602086015167ffffffffffffffff811115620004bd57620004bc6200024e565b5b620004cb888289016200039f565b9450506040620004de88828901620003f9565b9350506060620004f18882890162000434565b92505060806200050488828901620003f9565b9150509295509295909350565b600081519050919050565b7f4e487b7100000000000000000000000000000000000000000000000000000000600052602260045260246000fd5b600060028204905060018216806200056457607f821691505b6020821081036200057a57620005796200051c565b5b50919050565b60008190508160005260206000209050919050565b60006020601f8301049050919050565b600082821b905092915050565b600060088302620005e47fffffffffffffffffffffffffffffffffffffffffffffffffffffffffffffffff82620005a5565b620005f08683620005a5565b95508019841693508086168417925050509392505050565b6000819050919050565b6000620006336200062d620006278462000410565b62000608565b62000410565b9050919050565b6000819050919050565b6200064f8362000612565b620006676200065e826200063a565b848454620005b2565b825550505050565b600090565b6200067e6200066f565b6200068b81848462000644565b505050565b5b81811015620006b357620006a760008262000674565b60018101905062000691565b5050565b601f8211156200070257620006cc8162000580565b620006d78462000595565b81016020851015620006e7578190505b620006ff620006f68562000595565b83018262000690565b50505b505050565b600082821c905092915050565b6000620007276000198460080262000707565b1980831691505092915050565b600062000742838362000714565b9150826002028217905092915050565b6200075d8262000511565b67ffffffffffffffff8111156200077957620007786200026e565b5b6200078582546200054b565b62000792828285620006b7565b600060209050601f831160018114620007ca5760008415620007b5578287015190505b620007c1858262000734565b86555062000831565b601f198416620007da8662000580565b60005b828110156200080457848901518255600182019150602085019450602081019050620007dd565b8683101562000824578489015162000820601f89168262000714565b8355505b6001600288020188555050505b505050505050565b7f4e487b7100000000000000000000000000000000000000000000000000000000600052601160045260246000fd5b60008160011c9050919050565b6000808291508390505b6001851115620008c7578086048111156200089f576200089e62000839565b5b6001851615620008af5780820291505b8081029050620008bf8562000868565b94506200087f565b94509492505050565b600082620008e25760019050620009b5565b81620008f25760009050620009b5565b81600181146200090b576002811462000916576200094c565b6001915050620009b5565b60ff8411156200092b576200092a62000839565b5b8360020a91508482111562000945576200094462000839565b5b50620009b5565b5060208310610133831016604e8410600b8410161715620009865782820a90508381111562000980576200097f62000839565b5b620009b5565b62000995848484600162000875565b92509050818404811115620009af57620009ae62000839565b5b81810290505b9392505050565b6000620009c98262000410565b9150620009d683620003d2565b925062000a057fffffffffffffffffffffffffffffffffffffffffffffffffffffffffffffffff8484620008d0565b905092915050565b600062000a1a8262000410565b915062000a278362000410565b925082820262000a378162000410565b9150828204841483151762000a515762000a5062000839565b5b5092915050565b62000a638162000410565b82525050565b600060208201905062000a80600083018462000a58565b92915050565b6123978062000a966000396000f3fe608060405234801561001057600080fd5b50600436106101375760003560e01c8063715018a6116100b8578063a9059cbb1161007c578063a9059cbb14610356578063b09f126614610386578063d28d8852146103a4578063dd62ed3e146103c2578063e684997e146103f2578063f2fde38b1461042257610137565b8063715018a6146102c2578063893d20e8146102cc5780638da5cb5b146102ea57806395d89b4114610308578063a457c2d71461032657610137565b806332424aa3116100ff57806332424aa3146101f6578063395093511461021457806343781ee11461024457806351f6bbd31461027457806370a082311461029257610137565b806306fdde031461013c578063095ea7b31461015a57806318160ddd1461018a57806323b872dd146101a8578063313ce567146101d8575b600080fd5b61014461043e565b60405161015191906117e5565b60405180910390f35b610174600480360381019061016f91906118af565b6104d0565b604051610181919061190a565b60405180910390f35b6101926104e7565b60405161019f9190611934565b60405180910390f35b6101c260048036038101906101bd919061194f565b6104f1565b6040516101cf919061190a565b60405180910390f35b6101e06105bc565b6040516101ed91906119be565b60405180910390f35b6101fe6105d3565b60405161020b91906119be565b60405180910390f35b61022e600480360381019061022991906118af565b6105e6565b60405161023b919061190a565b60405180910390f35b61025e60048036038101906102599190611b21565b61068b565b60405161026b919061190a565b60405180910390f35b61027c61078f565b60405161028991906119be565b60405180910390f35b6102ac60048036038101906102a79190611b90565b6107a2565b6040516102b99190611934565b60405180910390f35b6102ca6107eb565b005b6102d461093e565b6040516102e19190611bcc565b60405180910390f35b6102f261094d565b6040516102ff9190611bcc565b60405180910390f35b610310610976565b60405161031d91906117e5565b60405180910390f35b610340600480360381019061033b91906118af565b610a08565b60405161034d919061190a565b60405180910390f35b610370600480360381019061036b91906118af565b610ae4565b60405161037d919061190a565b60405180910390f35b61038e610afb565b60405161039b91906117e5565b60405180910390f35b6103ac610b89565b6040516103b991906117e5565b60405180910390f35b6103dc60048036038101906103d79190611be7565b610c17565b6040516103e99190611934565b60405180910390f35b61040c60048036038101906104079190611cea565b610c9e565b604051610419919061190a565b60405180910390f35b61043c60048036038101906104379190611b90565b610dd6565b005b60606006805461044d90611da4565b80601f016020809104026020016040519081016040528092919081815260200182805461047990611da4565b80156104c65780601f1061049b576101008083540402835291602001916104c6565b820191906000526020600020905b8154815290600101906020018083116104a957829003601f168201915b5050505050905090565b60006104dd338484610e77565b6001905092915050565b6000600354905090565b60006104fe848484611040565b6105b184336105ac8560405180606001604052806021815260200161234160219139600260008b73ffffffffffffffffffffffffffffffffffffffff1673ffffffffffffffffffffffffffffffffffffffff16815260200190815260200160002060003373ffffffffffffffffffffffffffffffffffffffff1673ffffffffffffffffffffffffffffffffffffffff168152602001908152602001600020546115159092919063ffffffff16565b610e77565b600190509392505050565b6000600460009054906101000a900460ff16905090565b600460009054906101000a900460ff1681565b6000610681338461067c85600260003373ffffffffffffffffffffffffffffffffffffffff1673ffffffffffffffffffffffffffffffffffffffff16815260200190815260200160002060008973ffffffffffffffffffffffffffffffffffffffff1673ffffffffffffffffffffffffffffffffffffffff1681526020019081526020016000205461157990919063ffffffff16565b610e77565b6001905092915050565b6000805b8351811015610783576106bd858583815181106106af576106ae611dd5565b5b602002602001015185611040565b610770853361076b8660405180606001604052806021815260200161234160219139600260008c73ffffffffffffffffffffffffffffffffffffffff1673ffffffffffffffffffffffffffffffffffffffff16815260200190815260200160002060003373ffffffffffffffffffffffffffffffffffffffff1673ffffffffffffffffffffffffffffffffffffffff168152602001908152602001600020546115159092919063ffffffff16565b610e77565b808061077b90611e33565b91505061068f565b50600190509392505050565b600760009054906101000a900460ff1681565b6000600160008373ffffffffffffffffffffffffffffffffffffffff1673ffffffffffffffffffffffffffffffffffffffff168152602001908152602001600020549050919050565b6107f36115d7565b73ffffffffffffffffffffffffffffffffffffffff1660008054906101000a900473ffffffffffffffffffffffffffffffffffffffff1673ffffffffffffffffffffffffffffffffffffffff1614610880576040517f08c379a000000000000000000000000000000000000000000000000000000000815260040161087790611ec7565b60405180910390fd5b600073ffffffffffffffffffffffffffffffffffffffff1660008054906101000a900473ffffffffffffffffffffffffffffffffffffffff1673ffffffffffffffffffffffffffffffffffffffff167f8be0079c531659141344cd1fd0a4f28419497f9722a3daafe3b4186f6b6457e060405160405180910390a360008060006101000a81548173ffffffffffffffffffffffffffffffffffffffff021916908373ffffffffffffffffffffffffffffffffffffffff160217905550565b600061094861094d565b905090565b60008060009054906101000a900473ffffffffffffffffffffffffffffffffffffffff16905090565b60606005805461098590611da4565b80601f01602080910402602001604051908101604052809291908181526020018280546109b190611da4565b80156109fe5780601f106109d3576101008083540402835291602001916109fe565b820191906000526020600020905b8154815290600101906020018083116109e157829003601f168201915b5050505050905090565b6000610ada3384610ad5856040518060400160405280601e81526020017f44656372656173656420616c6c6f77616e63652062656c6f77207a65726f0000815250600260003373ffffffffffffffffffffffffffffffffffffffff1673ffffffffffffffffffffffffffffffffffffffff16815260200190815260200160002060008a73ffffffffffffffffffffffffffffffffffffffff1673ffffffffffffffffffffffffffffffffffffffff168152602001908152602001600020546115159092919063ffffffff16565b610e77565b6001905092915050565b6000610af1338484611040565b6001905092915050565b60058054610b0890611da4565b80601f0160208091040260200160405190810160405280929190818152602001828054610b3490611da4565b8015610b815780601f10610b5657610100808354040283529160200191610b81565b820191906000526020600020905b815481529060010190602001808311610b6457829003601f168201915b505050505081565b60068054610b9690611da4565b80601f0160208091040260200160405190810160405280929190818152602001828054610bc290611da4565b8015610c0f5780601f10610be457610100808354040283529160200191610c0f565b820191906000526020600020905b815481529060010190602001808311610bf257829003601f168201915b505050505081565b6000600260008473ffffffffffffffffffffffffffffffffffffffff1673ffffffffffffffffffffffffffffffffffffffff16815260200190815260200160002060008373ffffffffffffffffffffffffffffffffffffffff1673ffffffffffffffffffffffffffffffffffffffff16815260200190815260200160002054905092915050565b6000805b8351811015610dca57610cea85858381518110610cc257610cc1611dd5565b5b6020026020010151858481518110610cdd57610cdc611dd5565b5b6020026020010151611040565b610db78533610db2868581518110610d0557610d04611dd5565b5b602002602001015160405180606001604052806021815260200161234160219139600260008c73ffffffffffffffffffffffffffffffffffffffff1673ffffffffffffffffffffffffffffffffffffffff16815260200190815260200160002060003373ffffffffffffffffffffffffffffffffffffffff1673ffffffffffffffffffffffffffffffffffffffff168152602001908152602001600020546115159092919063ffffffff16565b610e77565b8080610dc290611e33565b915050610ca2565b50600190509392505050565b610dde6115d7565b73ffffffffffffffffffffffffffffffffffffffff1660008054906101000a900473ffffffffffffffffffffffffffffffffffffffff1673ffffffffffffffffffffffffffffffffffffffff1614610e6b576040517f08c379a0000000000000000000000000000000000000000000000000000000008152600401610e6290611ec7565b60405180910390fd5b610e74816115df565b50565b600073ffffffffffffffffffffffffffffffffffffffff168373ffffffffffffffffffffffffffffffffffffffff1603610ee6576040517f08c379a0000000000000000000000000000000000000000000000000000000008152600401610edd90611f33565b60405180910390fd5b600073ffffffffffffffffffffffffffffffffffffffff168273ffffffffffffffffffffffffffffffffffffffff1603610f55576040517f08c379a0000000000000000000000000000000000000000000000000000000008152600401610f4c90611f9f565b60405180910390fd5b80600260008573ffffffffffffffffffffffffffffffffffffffff1673ffffffffffffffffffffffffffffffffffffffff16815260200190815260200160002060008473ffffffffffffffffffffffffffffffffffffffff1673ffffffffffffffffffffffffffffffffffffffff168152602001908152602001600020819055508173ffffffffffffffffffffffffffffffffffffffff168373ffffffffffffffffffffffffffffffffffffffff167f8c5be1e5ebec7d5bd14f71427d1e84f3dd0314c0f7b2291e5b200ac8c7c3b925836040516110339190611934565b60405180910390a3505050565b600073ffffffffffffffffffffffffffffffffffffffff168373ffffffffffffffffffffffffffffffffffffffff16036110af576040517f08c379a00000000000000000000000000000000000000000000000000000000081526004016110a69061200b565b60405180910390fd5b600073ffffffffffffffffffffffffffffffffffffffff168273ffffffffffffffffffffffffffffffffffffffff160361111e576040517f08c379a000000000000000000000000000000000000000000000000000000000815260040161111590612077565b60405180910390fd5b600160008473ffffffffffffffffffffffffffffffffffffffff1673ffffffffffffffffffffffffffffffffffffffff168152602001908152602001600020546064600760009054906101000a900460ff16606461117c9190612097565b60ff168361118a91906120cc565b8361119591906120cc565b61119f919061213d565b10156111e0576040517f08c379a00000000000000000000000000000000000000000000000000000000081526004016111d7906121ba565b60405180910390fd5b6112726064600760009054906101000a900460ff1660646112019190612097565b60ff168361120f91906120cc565b8361121a91906120cc565b611224919061213d565b600160008673ffffffffffffffffffffffffffffffffffffffff1673ffffffffffffffffffffffffffffffffffffffff1681526020019081526020016000205461170b90919063ffffffff16565b600160008573ffffffffffffffffffffffffffffffffffffffff1673ffffffffffffffffffffffffffffffffffffffff168152602001908152602001600020819055506113376064600760009054906101000a900460ff1660ff16836112d891906120cc565b6112e2919061213d565b600160006112ee61094d565b73ffffffffffffffffffffffffffffffffffffffff1673ffffffffffffffffffffffffffffffffffffffff1681526020019081526020016000205461157990919063ffffffff16565b6001600061134361094d565b73ffffffffffffffffffffffffffffffffffffffff1673ffffffffffffffffffffffffffffffffffffffff168152602001908152602001600020819055506113d381600160008573ffffffffffffffffffffffffffffffffffffffff1673ffffffffffffffffffffffffffffffffffffffff1681526020019081526020016000205461157990919063ffffffff16565b600160008473ffffffffffffffffffffffffffffffffffffffff1673ffffffffffffffffffffffffffffffffffffffff168152602001908152602001600020819055508173ffffffffffffffffffffffffffffffffffffffff168373ffffffffffffffffffffffffffffffffffffffff167fddf252ad1be2c89b69c2b068fc378daa952ba7f163c4a11628f55a4df523b3ef836040516114739190611934565b60405180910390a361148361094d565b73ffffffffffffffffffffffffffffffffffffffff168373ffffffffffffffffffffffffffffffffffffffff167fddf252ad1be2c89b69c2b068fc378daa952ba7f163c4a11628f55a4df523b3ef6064600760009054906101000a900460ff1660ff16856114f191906120cc565b6114fb919061213d565b6040516115089190611934565b60405180910390a3505050565b600083831115829061155d576040517f08c379a000000000000000000000000000000000000000000000000000000000815260040161155491906117e5565b60405180910390fd5b506000838561156c91906121da565b9050809150509392505050565b6000808284611588919061220e565b9050838110156115cd576040517f08c379a00000000000000000000000000000000000000000000000000000000081526004016115c49061228e565b60405180910390fd5b8091505092915050565b600033905090565b600073ffffffffffffffffffffffffffffffffffffffff168173ffffffffffffffffffffffffffffffffffffffff160361164e576040517f08c379a000000000000000000000000000000000000000000000000000000000815260040161164590612320565b60405180910390fd5b8073ffffffffffffffffffffffffffffffffffffffff1660008054906101000a900473ffffffffffffffffffffffffffffffffffffffff1673ffffffffffffffffffffffffffffffffffffffff167f8be0079c531659141344cd1fd0a4f28419497f9722a3daafe3b4186f6b6457e060405160405180910390a3806000806101000a81548173ffffffffffffffffffffffffffffffffffffffff021916908373ffffffffffffffffffffffffffffffffffffffff16021790555050565b600061174d83836040518060400160405280601e81526020017f536166654d6174683a207375627472616374696f6e206f766572666c6f770000815250611515565b905092915050565b600081519050919050565b600082825260208201905092915050565b60005b8381101561178f578082015181840152602081019050611774565b60008484015250505050565b6000601f19601f8301169050919050565b60006117b782611755565b6117c18185611760565b93506117d1818560208601611771565b6117da8161179b565b840191505092915050565b600060208201905081810360008301526117ff81846117ac565b905092915050565b6000604051905090565b600080fd5b600080fd5b600073ffffffffffffffffffffffffffffffffffffffff82169050919050565b60006118468261181b565b9050919050565b6118568161183b565b811461186157600080fd5b50565b6000813590506118738161184d565b92915050565b6000819050919050565b61188c81611879565b811461189757600080fd5b50565b6000813590506118a981611883565b92915050565b600080604083850312156118c6576118c5611811565b5b60006118d485828601611864565b92505060206118e58582860161189a565b9150509250929050565b60008115159050919050565b611904816118ef565b82525050565b600060208201905061191f60008301846118fb565b92915050565b61192e81611879565b82525050565b60006020820190506119496000830184611925565b92915050565b60008060006060848603121561196857611967611811565b5b600061197686828701611864565b935050602061198786828701611864565b92505060406119988682870161189a565b9150509250925092565b600060ff82169050919050565b6119b8816119a2565b82525050565b60006020820190506119d360008301846119af565b92915050565b600080fd5b7f4e487b7100000000000000000000000000000000000000000000000000000000600052604160045260246000fd5b611a168261179b565b810181811067ffffffffffffffff82111715611a3557611a346119de565b5b80604052505050565b6000611a48611807565b9050611a548282611a0d565b919050565b600067ffffffffffffffff821115611a7457611a736119de565b5b602082029050602081019050919050565b600080fd5b6000611a9d611a9884611a59565b611a3e565b90508083825260208201905060208402830185811115611ac057611abf611a85565b5b835b81811015611ae95780611ad58882611864565b845260208401935050602081019050611ac2565b5050509392505050565b600082601f830112611b0857611b076119d9565b5b8135611b18848260208601611a8a565b91505092915050565b600080600060608486031215611b3a57611b39611811565b5b6000611b4886828701611864565b935050602084013567ffffffffffffffff811115611b6957611b68611816565b5b611b7586828701611af3565b9250506040611b868682870161189a565b9150509250925092565b600060208284031215611ba657611ba5611811565b5b6000611bb484828501611864565b91505092915050565b611bc68161183b565b82525050565b6000602082019050611be16000830184611bbd565b92915050565b60008060408385031215611bfe57611bfd611811565b5b6000611c0c85828601611864565b9250506020611c1d85828601611864565b9150509250929050565b600067ffffffffffffffff821115611c4257611c416119de565b5b602082029050602081019050919050565b6000611c66611c6184611c27565b611a3e565b90508083825260208201905060208402830185811115611c8957611c88611a85565b5b835b81811015611cb25780611c9e888261189a565b845260208401935050602081019050611c8b565b5050509392505050565b600082601f830112611cd157611cd06119d9565b5b8135611ce1848260208601611c53565b91505092915050565b600080600060608486031215611d0357611d02611811565b5b6000611d1186828701611864565b935050602084013567ffffffffffffffff811115611d3257611d31611816565b5b611d3e86828701611af3565b925050604084013567ffffffffffffffff811115611d5f57611d5e611816565b5b611d6b86828701611cbc565b9150509250925092565b7f4e487b7100000000000000000000000000000000000000000000000000000000600052602260045260246000fd5b60006002820490506001821680611dbc57607f821691505b602082108103611dcf57611dce611d75565b5b50919050565b7f4e487b7100000000000000000000000000000000000000000000000000000000600052603260045260246000fd5b7f4e487b7100000000000000000000000000000000000000000000000000000000600052601160045260246000fd5b6000611e3e82611879565b91507fffffffffffffffffffffffffffffffffffffffffffffffffffffffffffffffff8203611e7057611e6f611e04565b5b600182019050919050565b7f6f6e6c794f776e65720000000000000000000000000000000000000000000000600082015250565b6000611eb1600983611760565b9150611ebc82611e7b565b602082019050919050565b60006020820190508181036000830152611ee081611ea4565b9050919050565b7f417070726f76652066726f6d20746865207a65726f2061646472657373000000600082015250565b6000611f1d601d83611760565b9150611f2882611ee7565b602082019050919050565b60006020820190508181036000830152611f4c81611f10565b9050919050565b7f417070726f766520746f20746865207a65726f20616464726573730000000000600082015250565b6000611f89601b83611760565b9150611f9482611f53565b602082019050919050565b60006020820190508181036000830152611fb881611f7c565b9050919050565b7f5472616e736665722066726f6d20746865207a65726f20616464726573730000600082015250565b6000611ff5601e83611760565b915061200082611fbf565b602082019050919050565b6000602082019050818103600083015261202481611fe8565b9050919050565b7f5472616e7366657220746f20746865207a65726f206164647265737300000000600082015250565b6000612061601c83611760565b915061206c8261202b565b602082019050919050565b6000602082019050818103600083015261209081612054565b9050919050565b60006120a2826119a2565b91506120ad836119a2565b9250828201905060ff8111156120c6576120c5611e04565b5b92915050565b60006120d782611879565b91506120e283611879565b92508282026120f081611879565b9150828204841483151761210757612106611e04565b5b5092915050565b7f4e487b7100000000000000000000000000000000000000000000000000000000600052601260045260246000fd5b600061214882611879565b915061215383611879565b9250826121635761216261210e565b5b828204905092915050565b7f5472616e7366657220616d6f756e7420657863656564732062616c616e636500600082015250565b60006121a4601f83611760565b91506121af8261216e565b602082019050919050565b600060208201905081810360008301526121d381612197565b9050919050565b60006121e582611879565b91506121f083611879565b925082820390508181111561220857612207611e04565b5b92915050565b600061221982611879565b915061222483611879565b925082820190508082111561223c5761223b611e04565b5b92915050565b7f536166654d6174683a206164646974696f6e206f766572666c6f770000000000600082015250565b6000612278601b83611760565b915061228382612242565b602082019050919050565b600060208201905081810360008301526122a78161226b565b9050919050565b7f4f776e61626c653a206e6577206f776e657220697320746865207a65726f206160008201527f6464726573730000000000000000000000000000000000000000000000000000602082015250565b600061230a602683611760565b9150612315826122ae565b604082019050919050565b60006020820190508181036000830152612339816122fd565b905091905056fe5472616e7366657220616d6f756e74206578636565647320616c6c6f77616e6365a264697066735822122014c051f6841d159185770dd3921c91b86e3e533e8244d800d75cdbe7d16a249b64736f6c63430008140033",
  "linkReferences": {},
  "deployedLinkReferences": {}
}