{
	"contracts/MultiTransfer.sol": {
		"Wallet": {
			"abi": [
				{
					"anonymous": false,
					"inputs": [
						{
							"indexed": true,
							"internalType": "address",
							"name": "previousOwner",
							"type": "address"
						},
						{
							"indexed": true,
							"internalType": "address",
							"name": "newOwner",
							"type": "address"
						}
					],
					"name": "OwnershipTransferred",
					"type": "event"
				},
				{
					"stateMutability": "payable",
					"type": "fallback"
				},
				{
					"inputs": [],
					"name": "owner",
					"outputs": [
						{
							"internalType": "address",
							"name": "",
							"type": "address"
						}
					],
					"stateMutability": "view",
					"type": "function"
				},
				{
					"inputs": [],
					"name": "renounceOwnership",
					"outputs": [],
					"stateMutability": "nonpayable",
					"type": "function"
				},
				{
					"inputs": [
						{
							"internalType": "address",
							"name": "_to",
							"type": "address"
						},
						{
							"internalType": "uint256",
							"name": "_amount",
							"type": "uint256"
						}
					],
					"name": "transferEth",
					"outputs": [],
					"stateMutability": "nonpayable",
					"type": "function"
				},
				{
					"inputs": [
						{
							"internalType": "address",
							"name": "newOwner",
							"type": "address"
						}
					],
					"name": "transferOwnership",
					"outputs": [],
					"stateMutability": "nonpayable",
					"type": "function"
				},
				{
					"inputs": [
						{
							"internalType": "address",
							"name": "_token",
							"type": "address"
						},
						{
							"internalType": "address",
							"name": "_to",
							"type": "address"
						},
						{
							"internalType": "uint256",
							"name": "_amount",
							"type": "uint256"
						}
					],
					"name": "transferTokens",
					"outputs": [],
					"stateMutability": "nonpayable",
					"type": "function"
				},
				{
					"stateMutability": "payable",
					"type": "receive"
				}
			],
			"devdoc": {
				"kind": "dev",
				"methods": {},
				"version": 1
			},
			"evm": {
				"assembly": "    /* \"contracts/MultiTransfer.sol\":4486:5004  contract Wallet is Ownable {... */\n  mstore(0x40, 0x80)\n  callvalue\n  dup1\n  iszero\n  tag_1\n  jumpi\n  0x00\n  dup1\n  revert\ntag_1:\n  pop\n    /* \"contracts/MultiTransfer.sol\":3688:3705  address msgSender */\n  0x00\n    /* \"contracts/MultiTransfer.sol\":3708:3720  _msgSender() */\n  tag_6\n    /* \"contracts/MultiTransfer.sol\":3708:3718  _msgSender */\n  shl(0x20, tag_7)\n    /* \"contracts/MultiTransfer.sol\":3708:3720  _msgSender() */\n  0x20\n  shr\n  jump\t// in\ntag_6:\n    /* \"contracts/MultiTransfer.sol\":3688:3720  address msgSender = _msgSender() */\n  swap1\n  pop\n    /* \"contracts/MultiTransfer.sol\":3739:3748  msgSender */\n  dup1\n    /* \"contracts/MultiTransfer.sol\":3730:3736  _owner */\n  0x00\n  dup1\n    /* \"contracts/MultiTransfer.sol\":3730:3748  _owner = msgSender */\n  0x0100\n  exp\n  dup2\n  sload\n  dup2\n  0xffffffffffffffffffffffffffffffffffffffff\n  mul\n  not\n  and\n  swap1\n  dup4\n  0xffffffffffffffffffffffffffffffffffffffff\n  and\n  mul\n  or\n  swap1\n  sstore\n  pop\n    /* \"contracts/MultiTransfer.sol\":3796:3805  msgSender */\n  dup1\n    /* \"contracts/MultiTransfer.sol\":3763:3806  OwnershipTransferred(address(0), msgSender) */\n  0xffffffffffffffffffffffffffffffffffffffff\n  and\n    /* \"contracts/MultiTransfer.sol\":3792:3793  0 */\n  0x00\n    /* \"contracts/MultiTransfer.sol\":3763:3806  OwnershipTransferred(address(0), msgSender) */\n  0xffffffffffffffffffffffffffffffffffffffff\n  and\n  0x8be0079c531659141344cd1fd0a4f28419497f9722a3daafe3b4186f6b6457e0\n  mload(0x40)\n  mload(0x40)\n  dup1\n  swap2\n  sub\n  swap1\n  log3\n    /* \"contracts/MultiTransfer.sol\":3678:3813  {... */\n  pop\n    /* \"contracts/MultiTransfer.sol\":4486:5004  contract Wallet is Ownable {... */\n  jump(tag_8)\n    /* \"contracts/MultiTransfer.sol\":3173:3278  function _msgSender() internal view returns (address payable) {... */\ntag_7:\n    /* \"contracts/MultiTransfer.sol\":3218:3233  address payable */\n  0x00\n    /* \"contracts/MultiTransfer.sol\":3260:3270  msg.sender */\n  caller\n    /* \"contracts/MultiTransfer.sol\":3245:3271  return payable(msg.sender) */\n  swap1\n  pop\n    /* \"contracts/MultiTransfer.sol\":3173:3278  function _msgSender() internal view returns (address payable) {... */\n  swap1\n  jump\t// out\n    /* \"contracts/MultiTransfer.sol\":4486:5004  contract Wallet is Ownable {... */\ntag_8:\n  dataSize(sub_0)\n  dup1\n  dataOffset(sub_0)\n  0x00\n  codecopy\n  0x00\n  return\nstop\n\nsub_0: assembly {\n        /* \"contracts/MultiTransfer.sol\":4486:5004  contract Wallet is Ownable {... */\n      mstore(0x40, 0x80)\n      jumpi(tag_1, lt(calldatasize, 0x04))\n      shr(0xe0, calldataload(0x00))\n      dup1\n      0x715018a6\n      eq\n      tag_3\n      jumpi\n      dup1\n      0x8da5cb5b\n      eq\n      tag_4\n      jumpi\n      dup1\n      0xa64b6e5f\n      eq\n      tag_5\n      jumpi\n      dup1\n      0xe9bb84c2\n      eq\n      tag_6\n      jumpi\n      dup1\n      0xf2fde38b\n      eq\n      tag_7\n      jumpi\n      jump(tag_2)\n    tag_1:\n      jumpi(tag_2, calldatasize)\n      stop\n    tag_2:\n      stop\n        /* \"contracts/MultiTransfer.sol\":4001:4138  function renounceOwnership() public onlyOwner {... */\n    tag_3:\n      callvalue\n      dup1\n      iszero\n      tag_12\n      jumpi\n      0x00\n      dup1\n      revert\n    tag_12:\n      pop\n      tag_13\n      tag_14\n      jump\t// in\n    tag_13:\n      stop\n        /* \"contracts/MultiTransfer.sol\":3819:3896  function owner() public view returns (address) {... */\n    tag_4:\n      callvalue\n      dup1\n      iszero\n      tag_15\n      jumpi\n      0x00\n      dup1\n      revert\n    tag_15:\n      pop\n      tag_16\n      tag_17\n      jump\t// in\n    tag_16:\n      mload(0x40)\n      tag_18\n      swap2\n      swap1\n      tag_19\n      jump\t// in\n    tag_18:\n      mload(0x40)\n      dup1\n      swap2\n      sub\n      swap1\n      return\n        /* \"contracts/MultiTransfer.sol\":4814:5001  function transferTokens(address _token, address _to, uint256 _amount) public onlyOwner {... */\n    tag_5:\n      callvalue\n      dup1\n      iszero\n      tag_20\n      jumpi\n      0x00\n      dup1\n      revert\n    tag_20:\n      pop\n      tag_21\n      0x04\n      dup1\n      calldatasize\n      sub\n      dup2\n      add\n      swap1\n      tag_22\n      swap2\n      swap1\n      tag_23\n      jump\t// in\n    tag_22:\n      tag_24\n      jump\t// in\n    tag_21:\n      stop\n        /* \"contracts/MultiTransfer.sol\":4609:4785  function transferEth(address _to, uint256 _amount) public onlyOwner {... */\n    tag_6:\n      callvalue\n      dup1\n      iszero\n      tag_25\n      jumpi\n      0x00\n      dup1\n      revert\n    tag_25:\n      pop\n      tag_26\n      0x04\n      dup1\n      calldatasize\n      sub\n      dup2\n      add\n      swap1\n      tag_27\n      swap2\n      swap1\n      tag_28\n      jump\t// in\n    tag_27:\n      tag_29\n      jump\t// in\n    tag_26:\n      stop\n        /* \"contracts/MultiTransfer.sol\":4144:4251  function transferOwnership(address newOwner) public onlyOwner {... */\n    tag_7:\n      callvalue\n      dup1\n      iszero\n      tag_30\n      jumpi\n      0x00\n      dup1\n      revert\n    tag_30:\n      pop\n      tag_31\n      0x04\n      dup1\n      calldatasize\n      sub\n      dup2\n      add\n      swap1\n      tag_32\n      swap2\n      swap1\n      tag_33\n      jump\t// in\n    tag_32:\n      tag_34\n      jump\t// in\n    tag_31:\n      stop\n        /* \"contracts/MultiTransfer.sol\":4001:4138  function renounceOwnership() public onlyOwner {... */\n    tag_14:\n        /* \"contracts/MultiTransfer.sol\":3951:3963  _msgSender() */\n      tag_36\n        /* \"contracts/MultiTransfer.sol\":3951:3961  _msgSender */\n      tag_37\n        /* \"contracts/MultiTransfer.sol\":3951:3963  _msgSender() */\n      jump\t// in\n    tag_36:\n        /* \"contracts/MultiTransfer.sol\":3941:3963  _owner == _msgSender() */\n      0xffffffffffffffffffffffffffffffffffffffff\n      and\n        /* \"contracts/MultiTransfer.sol\":3941:3947  _owner */\n      0x00\n      dup1\n      sload\n      swap1\n      0x0100\n      exp\n      swap1\n      div\n      0xffffffffffffffffffffffffffffffffffffffff\n      and\n        /* \"contracts/MultiTransfer.sol\":3941:3963  _owner == _msgSender() */\n      0xffffffffffffffffffffffffffffffffffffffff\n      and\n      eq\n        /* \"contracts/MultiTransfer.sol\":3933:3977  require(_owner == _msgSender(), \"onlyOwner\") */\n      tag_38\n      jumpi\n      mload(0x40)\n      0x08c379a000000000000000000000000000000000000000000000000000000000\n      dup2\n      mstore\n      0x04\n      add\n      tag_39\n      swap1\n      tag_40\n      jump\t// in\n    tag_39:\n      mload(0x40)\n      dup1\n      swap2\n      sub\n      swap1\n      revert\n    tag_38:\n        /* \"contracts/MultiTransfer.sol\":4099:4100  0 */\n      0x00\n        /* \"contracts/MultiTransfer.sol\":4062:4102  OwnershipTransferred(_owner, address(0)) */\n      0xffffffffffffffffffffffffffffffffffffffff\n      and\n        /* \"contracts/MultiTransfer.sol\":4083:4089  _owner */\n      0x00\n      dup1\n      sload\n      swap1\n      0x0100\n      exp\n      swap1\n      div\n      0xffffffffffffffffffffffffffffffffffffffff\n      and\n        /* \"contracts/MultiTransfer.sol\":4062:4102  OwnershipTransferred(_owner, address(0)) */\n      0xffffffffffffffffffffffffffffffffffffffff\n      and\n      0x8be0079c531659141344cd1fd0a4f28419497f9722a3daafe3b4186f6b6457e0\n      mload(0x40)\n      mload(0x40)\n      dup1\n      swap2\n      sub\n      swap1\n      log3\n        /* \"contracts/MultiTransfer.sol\":4129:4130  0 */\n      0x00\n        /* \"contracts/MultiTransfer.sol\":4112:4118  _owner */\n      dup1\n      0x00\n        /* \"contracts/MultiTransfer.sol\":4112:4131  _owner = address(0) */\n      0x0100\n      exp\n      dup2\n      sload\n      dup2\n      0xffffffffffffffffffffffffffffffffffffffff\n      mul\n      not\n      and\n      swap1\n      dup4\n      0xffffffffffffffffffffffffffffffffffffffff\n      and\n      mul\n      or\n      swap1\n      sstore\n      pop\n        /* \"contracts/MultiTransfer.sol\":4001:4138  function renounceOwnership() public onlyOwner {... */\n      jump\t// out\n        /* \"contracts/MultiTransfer.sol\":3819:3896  function owner() public view returns (address) {... */\n    tag_17:\n        /* \"contracts/MultiTransfer.sol\":3857:3864  address */\n      0x00\n        /* \"contracts/MultiTransfer.sol\":3883:3889  _owner */\n      dup1\n      0x00\n      swap1\n      sload\n      swap1\n      0x0100\n      exp\n      swap1\n      div\n      0xffffffffffffffffffffffffffffffffffffffff\n      and\n        /* \"contracts/MultiTransfer.sol\":3876:3889  return _owner */\n      swap1\n      pop\n        /* \"contracts/MultiTransfer.sol\":3819:3896  function owner() public view returns (address) {... */\n      swap1\n      jump\t// out\n        /* \"contracts/MultiTransfer.sol\":4814:5001  function transferTokens(address _token, address _to, uint256 _amount) public onlyOwner {... */\n    tag_24:\n        /* \"contracts/MultiTransfer.sol\":3951:3963  _msgSender() */\n      tag_44\n        /* \"contracts/MultiTransfer.sol\":3951:3961  _msgSender */\n      tag_37\n        /* \"contracts/MultiTransfer.sol\":3951:3963  _msgSender() */\n      jump\t// in\n    tag_44:\n        /* \"contracts/MultiTransfer.sol\":3941:3963  _owner == _msgSender() */\n      0xffffffffffffffffffffffffffffffffffffffff\n      and\n        /* \"contracts/MultiTransfer.sol\":3941:3947  _owner */\n      0x00\n      dup1\n      sload\n      swap1\n      0x0100\n      exp\n      swap1\n      div\n      0xffffffffffffffffffffffffffffffffffffffff\n      and\n        /* \"contracts/MultiTransfer.sol\":3941:3963  _owner == _msgSender() */\n      0xffffffffffffffffffffffffffffffffffffffff\n      and\n      eq\n        /* \"contracts/MultiTransfer.sol\":3933:3977  require(_owner == _msgSender(), \"onlyOwner\") */\n      tag_45\n      jumpi\n      mload(0x40)\n      0x08c379a000000000000000000000000000000000000000000000000000000000\n      dup2\n      mstore\n      0x04\n      add\n      tag_46\n      swap1\n      tag_40\n      jump\t// in\n    tag_46:\n      mload(0x40)\n      dup1\n      swap2\n      sub\n      swap1\n      revert\n    tag_45:\n        /* \"contracts/MultiTransfer.sol\":4911:4931  IERC20 contractToken */\n      0x00\n        /* \"contracts/MultiTransfer.sol\":4941:4947  _token */\n      dup4\n        /* \"contracts/MultiTransfer.sol\":4911:4948  IERC20 contractToken = IERC20(_token) */\n      swap1\n      pop\n        /* \"contracts/MultiTransfer.sol\":4958:4971  contractToken */\n      dup1\n        /* \"contracts/MultiTransfer.sol\":4958:4980  contractToken.transfer */\n      0xffffffffffffffffffffffffffffffffffffffff\n      and\n      0xa9059cbb\n        /* \"contracts/MultiTransfer.sol\":4981:4984  _to */\n      dup5\n        /* \"contracts/MultiTransfer.sol\":4986:4993  _amount */\n      dup5\n        /* \"contracts/MultiTransfer.sol\":4958:4994  contractToken.transfer(_to, _amount) */\n      mload(0x40)\n      dup4\n      0xffffffff\n      and\n      0xe0\n      shl\n      dup2\n      mstore\n      0x04\n      add\n      tag_48\n      swap3\n      swap2\n      swap1\n      tag_49\n      jump\t// in\n    tag_48:\n      0x20\n      mload(0x40)\n      dup1\n      dup4\n      sub\n      dup2\n      0x00\n      dup8\n      gas\n      call\n      iszero\n      dup1\n      iszero\n      tag_51\n      jumpi\n      returndatasize\n      0x00\n      dup1\n      returndatacopy\n      revert(0x00, returndatasize)\n    tag_51:\n      pop\n      pop\n      pop\n      pop\n      mload(0x40)\n      returndatasize\n      not(0x1f)\n      0x1f\n      dup3\n      add\n      and\n      dup3\n      add\n      dup1\n      0x40\n      mstore\n      pop\n      dup2\n      add\n      swap1\n      tag_52\n      swap2\n      swap1\n      tag_53\n      jump\t// in\n    tag_52:\n      pop\n        /* \"contracts/MultiTransfer.sol\":4901:5001  {... */\n      pop\n        /* \"contracts/MultiTransfer.sol\":4814:5001  function transferTokens(address _token, address _to, uint256 _amount) public onlyOwner {... */\n      pop\n      pop\n      pop\n      jump\t// out\n        /* \"contracts/MultiTransfer.sol\":4609:4785  function transferEth(address _to, uint256 _amount) public onlyOwner {... */\n    tag_29:\n        /* \"contracts/MultiTransfer.sol\":3951:3963  _msgSender() */\n      tag_55\n        /* \"contracts/MultiTransfer.sol\":3951:3961  _msgSender */\n      tag_37\n        /* \"contracts/MultiTransfer.sol\":3951:3963  _msgSender() */\n      jump\t// in\n    tag_55:\n        /* \"contracts/MultiTransfer.sol\":3941:3963  _owner == _msgSender() */\n      0xffffffffffffffffffffffffffffffffffffffff\n      and\n        /* \"contracts/MultiTransfer.sol\":3941:3947  _owner */\n      0x00\n      dup1\n      sload\n      swap1\n      0x0100\n      exp\n      swap1\n      div\n      0xffffffffffffffffffffffffffffffffffffffff\n      and\n        /* \"contracts/MultiTransfer.sol\":3941:3963  _owner == _msgSender() */\n      0xffffffffffffffffffffffffffffffffffffffff\n      and\n      eq\n        /* \"contracts/MultiTransfer.sol\":3933:3977  require(_owner == _msgSender(), \"onlyOwner\") */\n      tag_56\n      jumpi\n      mload(0x40)\n      0x08c379a000000000000000000000000000000000000000000000000000000000\n      dup2\n      mstore\n      0x04\n      add\n      tag_57\n      swap1\n      tag_40\n      jump\t// in\n    tag_57:\n      mload(0x40)\n      dup1\n      swap2\n      sub\n      swap1\n      revert\n    tag_56:\n        /* \"contracts/MultiTransfer.sol\":4688:4697  bool sent */\n      0x00\n        /* \"contracts/MultiTransfer.sol\":4703:4706  _to */\n      dup3\n        /* \"contracts/MultiTransfer.sol\":4703:4711  _to.call */\n      0xffffffffffffffffffffffffffffffffffffffff\n      and\n        /* \"contracts/MultiTransfer.sol\":4719:4726  _amount */\n      dup3\n        /* \"contracts/MultiTransfer.sol\":4703:4731  _to.call{value: _amount}(\"\") */\n      mload(0x40)\n      tag_59\n      swap1\n      tag_60\n      jump\t// in\n    tag_59:\n      0x00\n      mload(0x40)\n      dup1\n      dup4\n      sub\n      dup2\n      dup6\n      dup8\n      gas\n      call\n      swap3\n      pop\n      pop\n      pop\n      returndatasize\n      dup1\n      0x00\n      dup2\n      eq\n      tag_63\n      jumpi\n      mload(0x40)\n      swap2\n      pop\n      and(add(returndatasize, 0x3f), not(0x1f))\n      dup3\n      add\n      0x40\n      mstore\n      returndatasize\n      dup3\n      mstore\n      returndatasize\n      0x00\n      0x20\n      dup5\n      add\n      returndatacopy\n      jump(tag_62)\n    tag_63:\n      0x60\n      swap2\n      pop\n    tag_62:\n      pop\n        /* \"contracts/MultiTransfer.sol\":4687:4731  (bool sent, ) = _to.call{value: _amount}(\"\") */\n      pop\n      swap1\n      pop\n        /* \"contracts/MultiTransfer.sol\":4749:4753  sent */\n      dup1\n        /* \"contracts/MultiTransfer.sol\":4741:4778  require(sent, \"Failed to send Ether\") */\n      tag_64\n      jumpi\n      mload(0x40)\n      0x08c379a000000000000000000000000000000000000000000000000000000000\n      dup2\n      mstore\n      0x04\n      add\n      tag_65\n      swap1\n      tag_66\n      jump\t// in\n    tag_65:\n      mload(0x40)\n      dup1\n      swap2\n      sub\n      swap1\n      revert\n    tag_64:\n        /* \"contracts/MultiTransfer.sol\":4677:4785  {... */\n      pop\n        /* \"contracts/MultiTransfer.sol\":4609:4785  function transferEth(address _to, uint256 _amount) public onlyOwner {... */\n      pop\n      pop\n      jump\t// out\n        /* \"contracts/MultiTransfer.sol\":4144:4251  function transferOwnership(address newOwner) public onlyOwner {... */\n    tag_34:\n        /* \"contracts/MultiTransfer.sol\":3951:3963  _msgSender() */\n      tag_68\n        /* \"contracts/MultiTransfer.sol\":3951:3961  _msgSender */\n      tag_37\n        /* \"contracts/MultiTransfer.sol\":3951:3963  _msgSender() */\n      jump\t// in\n    tag_68:\n        /* \"contracts/MultiTransfer.sol\":3941:3963  _owner == _msgSender() */\n      0xffffffffffffffffffffffffffffffffffffffff\n      and\n        /* \"contracts/MultiTransfer.sol\":3941:3947  _owner */\n      0x00\n      dup1\n      sload\n      swap1\n      0x0100\n      exp\n      swap1\n      div\n      0xffffffffffffffffffffffffffffffffffffffff\n      and\n        /* \"contracts/MultiTransfer.sol\":3941:3963  _owner == _msgSender() */\n      0xffffffffffffffffffffffffffffffffffffffff\n      and\n      eq\n        /* \"contracts/MultiTransfer.sol\":3933:3977  require(_owner == _msgSender(), \"onlyOwner\") */\n      tag_69\n      jumpi\n      mload(0x40)\n      0x08c379a000000000000000000000000000000000000000000000000000000000\n      dup2\n      mstore\n      0x04\n      add\n      tag_70\n      swap1\n      tag_40\n      jump\t// in\n    tag_70:\n      mload(0x40)\n      dup1\n      swap2\n      sub\n      swap1\n      revert\n    tag_69:\n        /* \"contracts/MultiTransfer.sol\":4216:4244  _transferOwnership(newOwner) */\n      tag_72\n        /* \"contracts/MultiTransfer.sol\":4235:4243  newOwner */\n      dup2\n        /* \"contracts/MultiTransfer.sol\":4216:4234  _transferOwnership */\n      tag_73\n        /* \"contracts/MultiTransfer.sol\":4216:4244  _transferOwnership(newOwner) */\n      jump\t// in\n    tag_72:\n        /* \"contracts/MultiTransfer.sol\":4144:4251  function transferOwnership(address newOwner) public onlyOwner {... */\n      pop\n      jump\t// out\n        /* \"contracts/MultiTransfer.sol\":3173:3278  function _msgSender() internal view returns (address payable) {... */\n    tag_37:\n        /* \"contracts/MultiTransfer.sol\":3218:3233  address payable */\n      0x00\n        /* \"contracts/MultiTransfer.sol\":3260:3270  msg.sender */\n      caller\n        /* \"contracts/MultiTransfer.sol\":3245:3271  return payable(msg.sender) */\n      swap1\n      pop\n        /* \"contracts/MultiTransfer.sol\":3173:3278  function _msgSender() internal view returns (address payable) {... */\n      swap1\n      jump\t// out\n        /* \"contracts/MultiTransfer.sol\":4257:4482  function _transferOwnership(address newOwner) internal {... */\n    tag_73:\n        /* \"contracts/MultiTransfer.sol\":4350:4351  0 */\n      0x00\n        /* \"contracts/MultiTransfer.sol\":4330:4352  newOwner != address(0) */\n      0xffffffffffffffffffffffffffffffffffffffff\n      and\n        /* \"contracts/MultiTransfer.sol\":4330:4338  newOwner */\n      dup2\n        /* \"contracts/MultiTransfer.sol\":4330:4352  newOwner != address(0) */\n      0xffffffffffffffffffffffffffffffffffffffff\n      and\n      sub\n        /* \"contracts/MultiTransfer.sol\":4322:4395  require(newOwner != address(0), \"Ownable: new owner is the zero address\") */\n      tag_76\n      jumpi\n      mload(0x40)\n      0x08c379a000000000000000000000000000000000000000000000000000000000\n      dup2\n      mstore\n      0x04\n      add\n      tag_77\n      swap1\n      tag_78\n      jump\t// in\n    tag_77:\n      mload(0x40)\n      dup1\n      swap2\n      sub\n      swap1\n      revert\n    tag_76:\n        /* \"contracts/MultiTransfer.sol\":4439:4447  newOwner */\n      dup1\n        /* \"contracts/MultiTransfer.sol\":4410:4448  OwnershipTransferred(_owner, newOwner) */\n      0xffffffffffffffffffffffffffffffffffffffff\n      and\n        /* \"contracts/MultiTransfer.sol\":4431:4437  _owner */\n      0x00\n      dup1\n      sload\n      swap1\n      0x0100\n      exp\n      swap1\n      div\n      0xffffffffffffffffffffffffffffffffffffffff\n      and\n        /* \"contracts/MultiTransfer.sol\":4410:4448  OwnershipTransferred(_owner, newOwner) */\n      0xffffffffffffffffffffffffffffffffffffffff\n      and\n      0x8be0079c531659141344cd1fd0a4f28419497f9722a3daafe3b4186f6b6457e0\n      mload(0x40)\n      mload(0x40)\n      dup1\n      swap2\n      sub\n      swap1\n      log3\n        /* \"contracts/MultiTransfer.sol\":4467:4475  newOwner */\n      dup1\n        /* \"contracts/MultiTransfer.sol\":4458:4464  _owner */\n      0x00\n      dup1\n        /* \"contracts/MultiTransfer.sol\":4458:4475  _owner = newOwner */\n      0x0100\n      exp\n      dup2\n      sload\n      dup2\n      0xffffffffffffffffffffffffffffffffffffffff\n      mul\n      not\n      and\n      swap1\n      dup4\n      0xffffffffffffffffffffffffffffffffffffffff\n      and\n      mul\n      or\n      swap1\n      sstore\n      pop\n        /* \"contracts/MultiTransfer.sol\":4257:4482  function _transferOwnership(address newOwner) internal {... */\n      pop\n      jump\t// out\n        /* \"#utility.yul\":7:133   */\n    tag_79:\n        /* \"#utility.yul\":44:51   */\n      0x00\n        /* \"#utility.yul\":84:126   */\n      0xffffffffffffffffffffffffffffffffffffffff\n        /* \"#utility.yul\":77:82   */\n      dup3\n        /* \"#utility.yul\":73:127   */\n      and\n        /* \"#utility.yul\":62:127   */\n      swap1\n      pop\n        /* \"#utility.yul\":7:133   */\n      swap2\n      swap1\n      pop\n      jump\t// out\n        /* \"#utility.yul\":139:235   */\n    tag_80:\n        /* \"#utility.yul\":176:183   */\n      0x00\n        /* \"#utility.yul\":205:229   */\n      tag_107\n        /* \"#utility.yul\":223:228   */\n      dup3\n        /* \"#utility.yul\":205:229   */\n      tag_79\n      jump\t// in\n    tag_107:\n        /* \"#utility.yul\":194:229   */\n      swap1\n      pop\n        /* \"#utility.yul\":139:235   */\n      swap2\n      swap1\n      pop\n      jump\t// out\n        /* \"#utility.yul\":241:359   */\n    tag_81:\n        /* \"#utility.yul\":328:352   */\n      tag_109\n        /* \"#utility.yul\":346:351   */\n      dup2\n        /* \"#utility.yul\":328:352   */\n      tag_80\n      jump\t// in\n    tag_109:\n        /* \"#utility.yul\":323:326   */\n      dup3\n        /* \"#utility.yul\":316:353   */\n      mstore\n        /* \"#utility.yul\":241:359   */\n      pop\n      pop\n      jump\t// out\n        /* \"#utility.yul\":365:587   */\n    tag_19:\n        /* \"#utility.yul\":458:462   */\n      0x00\n        /* \"#utility.yul\":496:498   */\n      0x20\n        /* \"#utility.yul\":485:494   */\n      dup3\n        /* \"#utility.yul\":481:499   */\n      add\n        /* \"#utility.yul\":473:499   */\n      swap1\n      pop\n        /* \"#utility.yul\":509:580   */\n      tag_111\n        /* \"#utility.yul\":577:578   */\n      0x00\n        /* \"#utility.yul\":566:575   */\n      dup4\n        /* \"#utility.yul\":562:579   */\n      add\n        /* \"#utility.yul\":553:559   */\n      dup5\n        /* \"#utility.yul\":509:580   */\n      tag_81\n      jump\t// in\n    tag_111:\n        /* \"#utility.yul\":365:587   */\n      swap3\n      swap2\n      pop\n      pop\n      jump\t// out\n        /* \"#utility.yul\":674:791   */\n    tag_83:\n        /* \"#utility.yul\":783:784   */\n      0x00\n        /* \"#utility.yul\":780:781   */\n      dup1\n        /* \"#utility.yul\":773:785   */\n      revert\n        /* \"#utility.yul\":920:1042   */\n    tag_85:\n        /* \"#utility.yul\":993:1017   */\n      tag_116\n        /* \"#utility.yul\":1011:1016   */\n      dup2\n        /* \"#utility.yul\":993:1017   */\n      tag_80\n      jump\t// in\n    tag_116:\n        /* \"#utility.yul\":986:991   */\n      dup2\n        /* \"#utility.yul\":983:1018   */\n      eq\n        /* \"#utility.yul\":973:1036   */\n      tag_117\n      jumpi\n        /* \"#utility.yul\":1032:1033   */\n      0x00\n        /* \"#utility.yul\":1029:1030   */\n      dup1\n        /* \"#utility.yul\":1022:1034   */\n      revert\n        /* \"#utility.yul\":973:1036   */\n    tag_117:\n        /* \"#utility.yul\":920:1042   */\n      pop\n      jump\t// out\n        /* \"#utility.yul\":1048:1187   */\n    tag_86:\n        /* \"#utility.yul\":1094:1099   */\n      0x00\n        /* \"#utility.yul\":1132:1138   */\n      dup2\n        /* \"#utility.yul\":1119:1139   */\n      calldataload\n        /* \"#utility.yul\":1110:1139   */\n      swap1\n      pop\n        /* \"#utility.yul\":1148:1181   */\n      tag_119\n        /* \"#utility.yul\":1175:1180   */\n      dup2\n        /* \"#utility.yul\":1148:1181   */\n      tag_85\n      jump\t// in\n    tag_119:\n        /* \"#utility.yul\":1048:1187   */\n      swap3\n      swap2\n      pop\n      pop\n      jump\t// out\n        /* \"#utility.yul\":1193:1270   */\n    tag_87:\n        /* \"#utility.yul\":1230:1237   */\n      0x00\n        /* \"#utility.yul\":1259:1264   */\n      dup2\n        /* \"#utility.yul\":1248:1264   */\n      swap1\n      pop\n        /* \"#utility.yul\":1193:1270   */\n      swap2\n      swap1\n      pop\n      jump\t// out\n        /* \"#utility.yul\":1276:1398   */\n    tag_88:\n        /* \"#utility.yul\":1349:1373   */\n      tag_122\n        /* \"#utility.yul\":1367:1372   */\n      dup2\n        /* \"#utility.yul\":1349:1373   */\n      tag_87\n      jump\t// in\n    tag_122:\n        /* \"#utility.yul\":1342:1347   */\n      dup2\n        /* \"#utility.yul\":1339:1374   */\n      eq\n        /* \"#utility.yul\":1329:1392   */\n      tag_123\n      jumpi\n        /* \"#utility.yul\":1388:1389   */\n      0x00\n        /* \"#utility.yul\":1385:1386   */\n      dup1\n        /* \"#utility.yul\":1378:1390   */\n      revert\n        /* \"#utility.yul\":1329:1392   */\n    tag_123:\n        /* \"#utility.yul\":1276:1398   */\n      pop\n      jump\t// out\n        /* \"#utility.yul\":1404:1543   */\n    tag_89:\n        /* \"#utility.yul\":1450:1455   */\n      0x00\n        /* \"#utility.yul\":1488:1494   */\n      dup2\n        /* \"#utility.yul\":1475:1495   */\n      calldataload\n        /* \"#utility.yul\":1466:1495   */\n      swap1\n      pop\n        /* \"#utility.yul\":1504:1537   */\n      tag_125\n        /* \"#utility.yul\":1531:1536   */\n      dup2\n        /* \"#utility.yul\":1504:1537   */\n      tag_88\n      jump\t// in\n    tag_125:\n        /* \"#utility.yul\":1404:1543   */\n      swap3\n      swap2\n      pop\n      pop\n      jump\t// out\n        /* \"#utility.yul\":1549:2168   */\n    tag_23:\n        /* \"#utility.yul\":1626:1632   */\n      0x00\n        /* \"#utility.yul\":1634:1640   */\n      dup1\n        /* \"#utility.yul\":1642:1648   */\n      0x00\n        /* \"#utility.yul\":1691:1693   */\n      0x60\n        /* \"#utility.yul\":1679:1688   */\n      dup5\n        /* \"#utility.yul\":1670:1677   */\n      dup7\n        /* \"#utility.yul\":1666:1689   */\n      sub\n        /* \"#utility.yul\":1662:1694   */\n      slt\n        /* \"#utility.yul\":1659:1778   */\n      iszero\n      tag_127\n      jumpi\n        /* \"#utility.yul\":1697:1776   */\n      tag_128\n      tag_83\n      jump\t// in\n    tag_128:\n        /* \"#utility.yul\":1659:1778   */\n    tag_127:\n        /* \"#utility.yul\":1817:1818   */\n      0x00\n        /* \"#utility.yul\":1842:1895   */\n      tag_129\n        /* \"#utility.yul\":1887:1894   */\n      dup7\n        /* \"#utility.yul\":1878:1884   */\n      dup3\n        /* \"#utility.yul\":1867:1876   */\n      dup8\n        /* \"#utility.yul\":1863:1885   */\n      add\n        /* \"#utility.yul\":1842:1895   */\n      tag_86\n      jump\t// in\n    tag_129:\n        /* \"#utility.yul\":1832:1895   */\n      swap4\n      pop\n        /* \"#utility.yul\":1788:1905   */\n      pop\n        /* \"#utility.yul\":1944:1946   */\n      0x20\n        /* \"#utility.yul\":1970:2023   */\n      tag_130\n        /* \"#utility.yul\":2015:2022   */\n      dup7\n        /* \"#utility.yul\":2006:2012   */\n      dup3\n        /* \"#utility.yul\":1995:2004   */\n      dup8\n        /* \"#utility.yul\":1991:2013   */\n      add\n        /* \"#utility.yul\":1970:2023   */\n      tag_86\n      jump\t// in\n    tag_130:\n        /* \"#utility.yul\":1960:2023   */\n      swap3\n      pop\n        /* \"#utility.yul\":1915:2033   */\n      pop\n        /* \"#utility.yul\":2072:2074   */\n      0x40\n        /* \"#utility.yul\":2098:2151   */\n      tag_131\n        /* \"#utility.yul\":2143:2150   */\n      dup7\n        /* \"#utility.yul\":2134:2140   */\n      dup3\n        /* \"#utility.yul\":2123:2132   */\n      dup8\n        /* \"#utility.yul\":2119:2141   */\n      add\n        /* \"#utility.yul\":2098:2151   */\n      tag_89\n      jump\t// in\n    tag_131:\n        /* \"#utility.yul\":2088:2151   */\n      swap2\n      pop\n        /* \"#utility.yul\":2043:2161   */\n      pop\n        /* \"#utility.yul\":1549:2168   */\n      swap3\n      pop\n      swap3\n      pop\n      swap3\n      jump\t// out\n        /* \"#utility.yul\":2174:2648   */\n    tag_28:\n        /* \"#utility.yul\":2242:2248   */\n      0x00\n        /* \"#utility.yul\":2250:2256   */\n      dup1\n        /* \"#utility.yul\":2299:2301   */\n      0x40\n        /* \"#utility.yul\":2287:2296   */\n      dup4\n        /* \"#utility.yul\":2278:2285   */\n      dup6\n        /* \"#utility.yul\":2274:2297   */\n      sub\n        /* \"#utility.yul\":2270:2302   */\n      slt\n        /* \"#utility.yul\":2267:2386   */\n      iszero\n      tag_133\n      jumpi\n        /* \"#utility.yul\":2305:2384   */\n      tag_134\n      tag_83\n      jump\t// in\n    tag_134:\n        /* \"#utility.yul\":2267:2386   */\n    tag_133:\n        /* \"#utility.yul\":2425:2426   */\n      0x00\n        /* \"#utility.yul\":2450:2503   */\n      tag_135\n        /* \"#utility.yul\":2495:2502   */\n      dup6\n        /* \"#utility.yul\":2486:2492   */\n      dup3\n        /* \"#utility.yul\":2475:2484   */\n      dup7\n        /* \"#utility.yul\":2471:2493   */\n      add\n        /* \"#utility.yul\":2450:2503   */\n      tag_86\n      jump\t// in\n    tag_135:\n        /* \"#utility.yul\":2440:2503   */\n      swap3\n      pop\n        /* \"#utility.yul\":2396:2513   */\n      pop\n        /* \"#utility.yul\":2552:2554   */\n      0x20\n        /* \"#utility.yul\":2578:2631   */\n      tag_136\n        /* \"#utility.yul\":2623:2630   */\n      dup6\n        /* \"#utility.yul\":2614:2620   */\n      dup3\n        /* \"#utility.yul\":2603:2612   */\n      dup7\n        /* \"#utility.yul\":2599:2621   */\n      add\n        /* \"#utility.yul\":2578:2631   */\n      tag_89\n      jump\t// in\n    tag_136:\n        /* \"#utility.yul\":2568:2631   */\n      swap2\n      pop\n        /* \"#utility.yul\":2523:2641   */\n      pop\n        /* \"#utility.yul\":2174:2648   */\n      swap3\n      pop\n      swap3\n      swap1\n      pop\n      jump\t// out\n        /* \"#utility.yul\":2654:2983   */\n    tag_33:\n        /* \"#utility.yul\":2713:2719   */\n      0x00\n        /* \"#utility.yul\":2762:2764   */\n      0x20\n        /* \"#utility.yul\":2750:2759   */\n      dup3\n        /* \"#utility.yul\":2741:2748   */\n      dup5\n        /* \"#utility.yul\":2737:2760   */\n      sub\n        /* \"#utility.yul\":2733:2765   */\n      slt\n        /* \"#utility.yul\":2730:2849   */\n      iszero\n      tag_138\n      jumpi\n        /* \"#utility.yul\":2768:2847   */\n      tag_139\n      tag_83\n      jump\t// in\n    tag_139:\n        /* \"#utility.yul\":2730:2849   */\n    tag_138:\n        /* \"#utility.yul\":2888:2889   */\n      0x00\n        /* \"#utility.yul\":2913:2966   */\n      tag_140\n        /* \"#utility.yul\":2958:2965   */\n      dup5\n        /* \"#utility.yul\":2949:2955   */\n      dup3\n        /* \"#utility.yul\":2938:2947   */\n      dup6\n        /* \"#utility.yul\":2934:2956   */\n      add\n        /* \"#utility.yul\":2913:2966   */\n      tag_86\n      jump\t// in\n    tag_140:\n        /* \"#utility.yul\":2903:2966   */\n      swap2\n      pop\n        /* \"#utility.yul\":2859:2976   */\n      pop\n        /* \"#utility.yul\":2654:2983   */\n      swap3\n      swap2\n      pop\n      pop\n      jump\t// out\n        /* \"#utility.yul\":2989:3158   */\n    tag_90:\n        /* \"#utility.yul\":3073:3084   */\n      0x00\n        /* \"#utility.yul\":3107:3113   */\n      dup3\n        /* \"#utility.yul\":3102:3105   */\n      dup3\n        /* \"#utility.yul\":3095:3114   */\n      mstore\n        /* \"#utility.yul\":3147:3151   */\n      0x20\n        /* \"#utility.yul\":3142:3145   */\n      dup3\n        /* \"#utility.yul\":3138:3152   */\n      add\n        /* \"#utility.yul\":3123:3152   */\n      swap1\n      pop\n        /* \"#utility.yul\":2989:3158   */\n      swap3\n      swap2\n      pop\n      pop\n      jump\t// out\n        /* \"#utility.yul\":3164:3323   */\n    tag_91:\n        /* \"#utility.yul\":3304:3315   */\n      0x6f6e6c794f776e65720000000000000000000000000000000000000000000000\n        /* \"#utility.yul\":3300:3301   */\n      0x00\n        /* \"#utility.yul\":3292:3298   */\n      dup3\n        /* \"#utility.yul\":3288:3302   */\n      add\n        /* \"#utility.yul\":3281:3316   */\n      mstore\n        /* \"#utility.yul\":3164:3323   */\n      pop\n      jump\t// out\n        /* \"#utility.yul\":3329:3694   */\n    tag_92:\n        /* \"#utility.yul\":3471:3474   */\n      0x00\n        /* \"#utility.yul\":3492:3558   */\n      tag_144\n        /* \"#utility.yul\":3556:3557   */\n      0x09\n        /* \"#utility.yul\":3551:3554   */\n      dup4\n        /* \"#utility.yul\":3492:3558   */\n      tag_90\n      jump\t// in\n    tag_144:\n        /* \"#utility.yul\":3485:3558   */\n      swap2\n      pop\n        /* \"#utility.yul\":3567:3660   */\n      tag_145\n        /* \"#utility.yul\":3656:3659   */\n      dup3\n        /* \"#utility.yul\":3567:3660   */\n      tag_91\n      jump\t// in\n    tag_145:\n        /* \"#utility.yul\":3685:3687   */\n      0x20\n        /* \"#utility.yul\":3680:3683   */\n      dup3\n        /* \"#utility.yul\":3676:3688   */\n      add\n        /* \"#utility.yul\":3669:3688   */\n      swap1\n      pop\n        /* \"#utility.yul\":3329:3694   */\n      swap2\n      swap1\n      pop\n      jump\t// out\n        /* \"#utility.yul\":3700:4119   */\n    tag_40:\n        /* \"#utility.yul\":3866:3870   */\n      0x00\n        /* \"#utility.yul\":3904:3906   */\n      0x20\n        /* \"#utility.yul\":3893:3902   */\n      dup3\n        /* \"#utility.yul\":3889:3907   */\n      add\n        /* \"#utility.yul\":3881:3907   */\n      swap1\n      pop\n        /* \"#utility.yul\":3953:3962   */\n      dup2\n        /* \"#utility.yul\":3947:3951   */\n      dup2\n        /* \"#utility.yul\":3943:3963   */\n      sub\n        /* \"#utility.yul\":3939:3940   */\n      0x00\n        /* \"#utility.yul\":3928:3937   */\n      dup4\n        /* \"#utility.yul\":3924:3941   */\n      add\n        /* \"#utility.yul\":3917:3964   */\n      mstore\n        /* \"#utility.yul\":3981:4112   */\n      tag_147\n        /* \"#utility.yul\":4107:4111   */\n      dup2\n        /* \"#utility.yul\":3981:4112   */\n      tag_92\n      jump\t// in\n    tag_147:\n        /* \"#utility.yul\":3973:4112   */\n      swap1\n      pop\n        /* \"#utility.yul\":3700:4119   */\n      swap2\n      swap1\n      pop\n      jump\t// out\n        /* \"#utility.yul\":4125:4243   */\n    tag_93:\n        /* \"#utility.yul\":4212:4236   */\n      tag_149\n        /* \"#utility.yul\":4230:4235   */\n      dup2\n        /* \"#utility.yul\":4212:4236   */\n      tag_87\n      jump\t// in\n    tag_149:\n        /* \"#utility.yul\":4207:4210   */\n      dup3\n        /* \"#utility.yul\":4200:4237   */\n      mstore\n        /* \"#utility.yul\":4125:4243   */\n      pop\n      pop\n      jump\t// out\n        /* \"#utility.yul\":4249:4581   */\n    tag_49:\n        /* \"#utility.yul\":4370:4374   */\n      0x00\n        /* \"#utility.yul\":4408:4410   */\n      0x40\n        /* \"#utility.yul\":4397:4406   */\n      dup3\n        /* \"#utility.yul\":4393:4411   */\n      add\n        /* \"#utility.yul\":4385:4411   */\n      swap1\n      pop\n        /* \"#utility.yul\":4421:4492   */\n      tag_151\n        /* \"#utility.yul\":4489:4490   */\n      0x00\n        /* \"#utility.yul\":4478:4487   */\n      dup4\n        /* \"#utility.yul\":4474:4491   */\n      add\n        /* \"#utility.yul\":4465:4471   */\n      dup6\n        /* \"#utility.yul\":4421:4492   */\n      tag_81\n      jump\t// in\n    tag_151:\n        /* \"#utility.yul\":4502:4574   */\n      tag_152\n        /* \"#utility.yul\":4570:4572   */\n      0x20\n        /* \"#utility.yul\":4559:4568   */\n      dup4\n        /* \"#utility.yul\":4555:4573   */\n      add\n        /* \"#utility.yul\":4546:4552   */\n      dup5\n        /* \"#utility.yul\":4502:4574   */\n      tag_93\n      jump\t// in\n    tag_152:\n        /* \"#utility.yul\":4249:4581   */\n      swap4\n      swap3\n      pop\n      pop\n      pop\n      jump\t// out\n        /* \"#utility.yul\":4587:4677   */\n    tag_94:\n        /* \"#utility.yul\":4621:4628   */\n      0x00\n        /* \"#utility.yul\":4664:4669   */\n      dup2\n        /* \"#utility.yul\":4657:4670   */\n      iszero\n        /* \"#utility.yul\":4650:4671   */\n      iszero\n        /* \"#utility.yul\":4639:4671   */\n      swap1\n      pop\n        /* \"#utility.yul\":4587:4677   */\n      swap2\n      swap1\n      pop\n      jump\t// out\n        /* \"#utility.yul\":4683:4799   */\n    tag_95:\n        /* \"#utility.yul\":4753:4774   */\n      tag_155\n        /* \"#utility.yul\":4768:4773   */\n      dup2\n        /* \"#utility.yul\":4753:4774   */\n      tag_94\n      jump\t// in\n    tag_155:\n        /* \"#utility.yul\":4746:4751   */\n      dup2\n        /* \"#utility.yul\":4743:4775   */\n      eq\n        /* \"#utility.yul\":4733:4793   */\n      tag_156\n      jumpi\n        /* \"#utility.yul\":4789:4790   */\n      0x00\n        /* \"#utility.yul\":4786:4787   */\n      dup1\n        /* \"#utility.yul\":4779:4791   */\n      revert\n        /* \"#utility.yul\":4733:4793   */\n    tag_156:\n        /* \"#utility.yul\":4683:4799   */\n      pop\n      jump\t// out\n        /* \"#utility.yul\":4805:4942   */\n    tag_96:\n        /* \"#utility.yul\":4859:4864   */\n      0x00\n        /* \"#utility.yul\":4890:4896   */\n      dup2\n        /* \"#utility.yul\":4884:4897   */\n      mload\n        /* \"#utility.yul\":4875:4897   */\n      swap1\n      pop\n        /* \"#utility.yul\":4906:4936   */\n      tag_158\n        /* \"#utility.yul\":4930:4935   */\n      dup2\n        /* \"#utility.yul\":4906:4936   */\n      tag_95\n      jump\t// in\n    tag_158:\n        /* \"#utility.yul\":4805:4942   */\n      swap3\n      swap2\n      pop\n      pop\n      jump\t// out\n        /* \"#utility.yul\":4948:5293   */\n    tag_53:\n        /* \"#utility.yul\":5015:5021   */\n      0x00\n        /* \"#utility.yul\":5064:5066   */\n      0x20\n        /* \"#utility.yul\":5052:5061   */\n      dup3\n        /* \"#utility.yul\":5043:5050   */\n      dup5\n        /* \"#utility.yul\":5039:5062   */\n      sub\n        /* \"#utility.yul\":5035:5067   */\n      slt\n        /* \"#utility.yul\":5032:5151   */\n      iszero\n      tag_160\n      jumpi\n        /* \"#utility.yul\":5070:5149   */\n      tag_161\n      tag_83\n      jump\t// in\n    tag_161:\n        /* \"#utility.yul\":5032:5151   */\n    tag_160:\n        /* \"#utility.yul\":5190:5191   */\n      0x00\n        /* \"#utility.yul\":5215:5276   */\n      tag_162\n        /* \"#utility.yul\":5268:5275   */\n      dup5\n        /* \"#utility.yul\":5259:5265   */\n      dup3\n        /* \"#utility.yul\":5248:5257   */\n      dup6\n        /* \"#utility.yul\":5244:5266   */\n      add\n        /* \"#utility.yul\":5215:5276   */\n      tag_96\n      jump\t// in\n    tag_162:\n        /* \"#utility.yul\":5205:5276   */\n      swap2\n      pop\n        /* \"#utility.yul\":5161:5286   */\n      pop\n        /* \"#utility.yul\":4948:5293   */\n      swap3\n      swap2\n      pop\n      pop\n      jump\t// out\n        /* \"#utility.yul\":5299:5446   */\n    tag_97:\n        /* \"#utility.yul\":5400:5411   */\n      0x00\n        /* \"#utility.yul\":5437:5440   */\n      dup2\n        /* \"#utility.yul\":5422:5440   */\n      swap1\n      pop\n        /* \"#utility.yul\":5299:5446   */\n      swap3\n      swap2\n      pop\n      pop\n      jump\t// out\n        /* \"#utility.yul\":5452:5566   */\n    tag_98:\n      pop\n      jump\t// out\n        /* \"#utility.yul\":5572:5970   */\n    tag_99:\n        /* \"#utility.yul\":5731:5734   */\n      0x00\n        /* \"#utility.yul\":5752:5835   */\n      tag_166\n        /* \"#utility.yul\":5833:5834   */\n      0x00\n        /* \"#utility.yul\":5828:5831   */\n      dup4\n        /* \"#utility.yul\":5752:5835   */\n      tag_97\n      jump\t// in\n    tag_166:\n        /* \"#utility.yul\":5745:5835   */\n      swap2\n      pop\n        /* \"#utility.yul\":5844:5937   */\n      tag_167\n        /* \"#utility.yul\":5933:5936   */\n      dup3\n        /* \"#utility.yul\":5844:5937   */\n      tag_98\n      jump\t// in\n    tag_167:\n        /* \"#utility.yul\":5962:5963   */\n      0x00\n        /* \"#utility.yul\":5957:5960   */\n      dup3\n        /* \"#utility.yul\":5953:5964   */\n      add\n        /* \"#utility.yul\":5946:5964   */\n      swap1\n      pop\n        /* \"#utility.yul\":5572:5970   */\n      swap2\n      swap1\n      pop\n      jump\t// out\n        /* \"#utility.yul\":5976:6355   */\n    tag_60:\n        /* \"#utility.yul\":6160:6163   */\n      0x00\n        /* \"#utility.yul\":6182:6329   */\n      tag_169\n        /* \"#utility.yul\":6325:6328   */\n      dup3\n        /* \"#utility.yul\":6182:6329   */\n      tag_99\n      jump\t// in\n    tag_169:\n        /* \"#utility.yul\":6175:6329   */\n      swap2\n      pop\n        /* \"#utility.yul\":6346:6349   */\n      dup2\n        /* \"#utility.yul\":6339:6349   */\n      swap1\n      pop\n        /* \"#utility.yul\":5976:6355   */\n      swap2\n      swap1\n      pop\n      jump\t// out\n        /* \"#utility.yul\":6361:6531   */\n    tag_100:\n        /* \"#utility.yul\":6501:6523   */\n      0x4661696c656420746f2073656e64204574686572000000000000000000000000\n        /* \"#utility.yul\":6497:6498   */\n      0x00\n        /* \"#utility.yul\":6489:6495   */\n      dup3\n        /* \"#utility.yul\":6485:6499   */\n      add\n        /* \"#utility.yul\":6478:6524   */\n      mstore\n        /* \"#utility.yul\":6361:6531   */\n      pop\n      jump\t// out\n        /* \"#utility.yul\":6537:6903   */\n    tag_101:\n        /* \"#utility.yul\":6679:6682   */\n      0x00\n        /* \"#utility.yul\":6700:6767   */\n      tag_172\n        /* \"#utility.yul\":6764:6766   */\n      0x14\n        /* \"#utility.yul\":6759:6762   */\n      dup4\n        /* \"#utility.yul\":6700:6767   */\n      tag_90\n      jump\t// in\n    tag_172:\n        /* \"#utility.yul\":6693:6767   */\n      swap2\n      pop\n        /* \"#utility.yul\":6776:6869   */\n      tag_173\n        /* \"#utility.yul\":6865:6868   */\n      dup3\n        /* \"#utility.yul\":6776:6869   */\n      tag_100\n      jump\t// in\n    tag_173:\n        /* \"#utility.yul\":6894:6896   */\n      0x20\n        /* \"#utility.yul\":6889:6892   */\n      dup3\n        /* \"#utility.yul\":6885:6897   */\n      add\n        /* \"#utility.yul\":6878:6897   */\n      swap1\n      pop\n        /* \"#utility.yul\":6537:6903   */\n      swap2\n      swap1\n      pop\n      jump\t// out\n        /* \"#utility.yul\":6909:7328   */\n    tag_66:\n        /* \"#utility.yul\":7075:7079   */\n      0x00\n        /* \"#utility.yul\":7113:7115   */\n      0x20\n        /* \"#utility.yul\":7102:7111   */\n      dup3\n        /* \"#utility.yul\":7098:7116   */\n      add\n        /* \"#utility.yul\":7090:7116   */\n      swap1\n      pop\n        /* \"#utility.yul\":7162:7171   */\n      dup2\n        /* \"#utility.yul\":7156:7160   */\n      dup2\n        /* \"#utility.yul\":7152:7172   */\n      sub\n        /* \"#utility.yul\":7148:7149   */\n      0x00\n        /* \"#utility.yul\":7137:7146   */\n      dup4\n        /* \"#utility.yul\":7133:7150   */\n      add\n        /* \"#utility.yul\":7126:7173   */\n      mstore\n        /* \"#utility.yul\":7190:7321   */\n      tag_175\n        /* \"#utility.yul\":7316:7320   */\n      dup2\n        /* \"#utility.yul\":7190:7321   */\n      tag_101\n      jump\t// in\n    tag_175:\n        /* \"#utility.yul\":7182:7321   */\n      swap1\n      pop\n        /* \"#utility.yul\":6909:7328   */\n      swap2\n      swap1\n      pop\n      jump\t// out\n        /* \"#utility.yul\":7334:7559   */\n    tag_102:\n        /* \"#utility.yul\":7474:7508   */\n      0x4f776e61626c653a206e6577206f776e657220697320746865207a65726f2061\n        /* \"#utility.yul\":7470:7471   */\n      0x00\n        /* \"#utility.yul\":7462:7468   */\n      dup3\n        /* \"#utility.yul\":7458:7472   */\n      add\n        /* \"#utility.yul\":7451:7509   */\n      mstore\n        /* \"#utility.yul\":7543:7551   */\n      0x6464726573730000000000000000000000000000000000000000000000000000\n        /* \"#utility.yul\":7538:7540   */\n      0x20\n        /* \"#utility.yul\":7530:7536   */\n      dup3\n        /* \"#utility.yul\":7526:7541   */\n      add\n        /* \"#utility.yul\":7519:7552   */\n      mstore\n        /* \"#utility.yul\":7334:7559   */\n      pop\n      jump\t// out\n        /* \"#utility.yul\":7565:7931   */\n    tag_103:\n        /* \"#utility.yul\":7707:7710   */\n      0x00\n        /* \"#utility.yul\":7728:7795   */\n      tag_178\n        /* \"#utility.yul\":7792:7794   */\n      0x26\n        /* \"#utility.yul\":7787:7790   */\n      dup4\n        /* \"#utility.yul\":7728:7795   */\n      tag_90\n      jump\t// in\n    tag_178:\n        /* \"#utility.yul\":7721:7795   */\n      swap2\n      pop\n        /* \"#utility.yul\":7804:7897   */\n      tag_179\n        /* \"#utility.yul\":7893:7896   */\n      dup3\n        /* \"#utility.yul\":7804:7897   */\n      tag_102\n      jump\t// in\n    tag_179:\n        /* \"#utility.yul\":7922:7924   */\n      0x40\n        /* \"#utility.yul\":7917:7920   */\n      dup3\n        /* \"#utility.yul\":7913:7925   */\n      add\n        /* \"#utility.yul\":7906:7925   */\n      swap1\n      pop\n        /* \"#utility.yul\":7565:7931   */\n      swap2\n      swap1\n      pop\n      jump\t// out\n        /* \"#utility.yul\":7937:8356   */\n    tag_78:\n        /* \"#utility.yul\":8103:8107   */\n      0x00\n        /* \"#utility.yul\":8141:8143   */\n      0x20\n        /* \"#utility.yul\":8130:8139   */\n      dup3\n        /* \"#utility.yul\":8126:8144   */\n      add\n        /* \"#utility.yul\":8118:8144   */\n      swap1\n      pop\n        /* \"#utility.yul\":8190:8199   */\n      dup2\n        /* \"#utility.yul\":8184:8188   */\n      dup2\n        /* \"#utility.yul\":8180:8200   */\n      sub\n        /* \"#utility.yul\":8176:8177   */\n      0x00\n        /* \"#utility.yul\":8165:8174   */\n      dup4\n        /* \"#utility.yul\":8161:8178   */\n      add\n        /* \"#utility.yul\":8154:8201   */\n      mstore\n        /* \"#utility.yul\":8218:8349   */\n      tag_181\n        /* \"#utility.yul\":8344:8348   */\n      dup2\n        /* \"#utility.yul\":8218:8349   */\n      tag_103\n      jump\t// in\n    tag_181:\n        /* \"#utility.yul\":8210:8349   */\n      swap1\n      pop\n        /* \"#utility.yul\":7937:8356   */\n      swap2\n      swap1\n      pop\n      jump\t// out\n\n    auxdata: 0xa2646970667358221220a4c5aca7e161b0c96453ccc4dbee131f41687ffc03ab637b56d34eb5c4f42c3664736f6c63430008160033\n}\n",
				"bytecode": {
					"linkReferences": {},
					"object": "608060405234801561000f575f80fd5b505f61001f6100c060201b60201c565b9050805f806101000a81548173ffffffffffffffffffffffffffffffffffffffff021916908373ffffffffffffffffffffffffffffffffffffffff1602179055508073ffffffffffffffffffffffffffffffffffffffff165f73ffffffffffffffffffffffffffffffffffffffff167f8be0079c531659141344cd1fd0a4f28419497f9722a3daafe3b4186f6b6457e060405160405180910390a3506100c7565b5f33905090565b610a9b806100d45f395ff3fe60806040526004361061004d575f3560e01c8063715018a6146100565780638da5cb5b1461006c578063a64b6e5f14610096578063e9bb84c2146100be578063f2fde38b146100e657610054565b3661005457005b005b348015610061575f80fd5b5061006a61010e565b005b348015610077575f80fd5b5061008061025c565b60405161008d91906106ed565b60405180910390f35b3480156100a1575f80fd5b506100bc60048036038101906100b79190610767565b610283565b005b3480156100c9575f80fd5b506100e460048036038101906100df91906107b7565b61039d565b005b3480156100f1575f80fd5b5061010c600480360381019061010791906107f5565b6104de565b005b61011661057e565b73ffffffffffffffffffffffffffffffffffffffff165f8054906101000a900473ffffffffffffffffffffffffffffffffffffffff1673ffffffffffffffffffffffffffffffffffffffff16146101a2576040517f08c379a00000000000000000000000000000000000000000000000000000000081526004016101999061087a565b60405180910390fd5b5f73ffffffffffffffffffffffffffffffffffffffff165f8054906101000a900473ffffffffffffffffffffffffffffffffffffffff1673ffffffffffffffffffffffffffffffffffffffff167f8be0079c531659141344cd1fd0a4f28419497f9722a3daafe3b4186f6b6457e060405160405180910390a35f805f6101000a81548173ffffffffffffffffffffffffffffffffffffffff021916908373ffffffffffffffffffffffffffffffffffffffff160217905550565b5f805f9054906101000a900473ffffffffffffffffffffffffffffffffffffffff16905090565b61028b61057e565b73ffffffffffffffffffffffffffffffffffffffff165f8054906101000a900473ffffffffffffffffffffffffffffffffffffffff1673ffffffffffffffffffffffffffffffffffffffff1614610317576040517f08c379a000000000000000000000000000000000000000000000000000000000815260040161030e9061087a565b60405180910390fd5b5f8390508073ffffffffffffffffffffffffffffffffffffffff1663a9059cbb84846040518363ffffffff1660e01b81526004016103569291906108a7565b6020604051808303815f875af1158015610372573d5f803e3d5ffd5b505050506040513d601f19601f820116820180604052508101906103969190610903565b5050505050565b6103a561057e565b73ffffffffffffffffffffffffffffffffffffffff165f8054906101000a900473ffffffffffffffffffffffffffffffffffffffff1673ffffffffffffffffffffffffffffffffffffffff1614610431576040517f08c379a00000000000000000000000000000000000000000000000000000000081526004016104289061087a565b60405180910390fd5b5f8273ffffffffffffffffffffffffffffffffffffffff16826040516104569061095b565b5f6040518083038185875af1925050503d805f8114610490576040519150601f19603f3d011682016040523d82523d5f602084013e610495565b606091505b50509050806104d9576040517f08c379a00000000000000000000000000000000000000000000000000000000081526004016104d0906109b9565b60405180910390fd5b505050565b6104e661057e565b73ffffffffffffffffffffffffffffffffffffffff165f8054906101000a900473ffffffffffffffffffffffffffffffffffffffff1673ffffffffffffffffffffffffffffffffffffffff1614610572576040517f08c379a00000000000000000000000000000000000000000000000000000000081526004016105699061087a565b60405180910390fd5b61057b81610585565b50565b5f33905090565b5f73ffffffffffffffffffffffffffffffffffffffff168173ffffffffffffffffffffffffffffffffffffffff16036105f3576040517f08c379a00000000000000000000000000000000000000000000000000000000081526004016105ea90610a47565b60405180910390fd5b8073ffffffffffffffffffffffffffffffffffffffff165f8054906101000a900473ffffffffffffffffffffffffffffffffffffffff1673ffffffffffffffffffffffffffffffffffffffff167f8be0079c531659141344cd1fd0a4f28419497f9722a3daafe3b4186f6b6457e060405160405180910390a3805f806101000a81548173ffffffffffffffffffffffffffffffffffffffff021916908373ffffffffffffffffffffffffffffffffffffffff16021790555050565b5f73ffffffffffffffffffffffffffffffffffffffff82169050919050565b5f6106d7826106ae565b9050919050565b6106e7816106cd565b82525050565b5f6020820190506107005f8301846106de565b92915050565b5f80fd5b610713816106cd565b811461071d575f80fd5b50565b5f8135905061072e8161070a565b92915050565b5f819050919050565b61074681610734565b8114610750575f80fd5b50565b5f813590506107618161073d565b92915050565b5f805f6060848603121561077e5761077d610706565b5b5f61078b86828701610720565b935050602061079c86828701610720565b92505060406107ad86828701610753565b9150509250925092565b5f80604083850312156107cd576107cc610706565b5b5f6107da85828601610720565b92505060206107eb85828601610753565b9150509250929050565b5f6020828403121561080a57610809610706565b5b5f61081784828501610720565b91505092915050565b5f82825260208201905092915050565b7f6f6e6c794f776e657200000000000000000000000000000000000000000000005f82015250565b5f610864600983610820565b915061086f82610830565b602082019050919050565b5f6020820190508181035f83015261089181610858565b9050919050565b6108a181610734565b82525050565b5f6040820190506108ba5f8301856106de565b6108c76020830184610898565b9392505050565b5f8115159050919050565b6108e2816108ce565b81146108ec575f80fd5b50565b5f815190506108fd816108d9565b92915050565b5f6020828403121561091857610917610706565b5b5f610925848285016108ef565b91505092915050565b5f81905092915050565b50565b5f6109465f8361092e565b915061095182610938565b5f82019050919050565b5f6109658261093b565b9150819050919050565b7f4661696c656420746f2073656e642045746865720000000000000000000000005f82015250565b5f6109a3601483610820565b91506109ae8261096f565b602082019050919050565b5f6020820190508181035f8301526109d081610997565b9050919050565b7f4f776e61626c653a206e6577206f776e657220697320746865207a65726f20615f8201527f6464726573730000000000000000000000000000000000000000000000000000602082015250565b5f610a31602683610820565b9150610a3c826109d7565b604082019050919050565b5f6020820190508181035f830152610a5e81610a25565b905091905056fea2646970667358221220a4c5aca7e161b0c96453ccc4dbee131f41687ffc03ab637b56d34eb5c4f42c3664736f6c63430008160033",
					"opcodes": "PUSH1 0x80 PUSH1 0x40 MSTORE CALLVALUE DUP1 ISZERO PUSH2 0xF JUMPI PUSH0 DUP1 REVERT JUMPDEST POP PUSH0 PUSH2 0x1F PUSH2 0xC0 PUSH1 0x20 SHL PUSH1 0x20 SHR JUMP JUMPDEST SWAP1 POP DUP1 PUSH0 DUP1 PUSH2 0x100 EXP DUP2 SLOAD DUP2 PUSH20 0xFFFFFFFFFFFFFFFFFFFFFFFFFFFFFFFFFFFFFFFF MUL NOT AND SWAP1 DUP4 PUSH20 0xFFFFFFFFFFFFFFFFFFFFFFFFFFFFFFFFFFFFFFFF AND MUL OR SWAP1 SSTORE POP DUP1 PUSH20 0xFFFFFFFFFFFFFFFFFFFFFFFFFFFFFFFFFFFFFFFF AND PUSH0 PUSH20 0xFFFFFFFFFFFFFFFFFFFFFFFFFFFFFFFFFFFFFFFF AND PUSH32 0x8BE0079C531659141344CD1FD0A4F28419497F9722A3DAAFE3B4186F6B6457E0 PUSH1 0x40 MLOAD PUSH1 0x40 MLOAD DUP1 SWAP2 SUB SWAP1 LOG3 POP PUSH2 0xC7 JUMP JUMPDEST PUSH0 CALLER SWAP1 POP SWAP1 JUMP JUMPDEST PUSH2 0xA9B DUP1 PUSH2 0xD4 PUSH0 CODECOPY PUSH0 RETURN INVALID PUSH1 0x80 PUSH1 0x40 MSTORE PUSH1 0x4 CALLDATASIZE LT PUSH2 0x4D JUMPI PUSH0 CALLDATALOAD PUSH1 0xE0 SHR DUP1 PUSH4 0x715018A6 EQ PUSH2 0x56 JUMPI DUP1 PUSH4 0x8DA5CB5B EQ PUSH2 0x6C JUMPI DUP1 PUSH4 0xA64B6E5F EQ PUSH2 0x96 JUMPI DUP1 PUSH4 0xE9BB84C2 EQ PUSH2 0xBE JUMPI DUP1 PUSH4 0xF2FDE38B EQ PUSH2 0xE6 JUMPI PUSH2 0x54 JUMP JUMPDEST CALLDATASIZE PUSH2 0x54 JUMPI STOP JUMPDEST STOP JUMPDEST CALLVALUE DUP1 ISZERO PUSH2 0x61 JUMPI PUSH0 DUP1 REVERT JUMPDEST POP PUSH2 0x6A PUSH2 0x10E JUMP JUMPDEST STOP JUMPDEST CALLVALUE DUP1 ISZERO PUSH2 0x77 JUMPI PUSH0 DUP1 REVERT JUMPDEST POP PUSH2 0x80 PUSH2 0x25C JUMP JUMPDEST PUSH1 0x40 MLOAD PUSH2 0x8D SWAP2 SWAP1 PUSH2 0x6ED JUMP JUMPDEST PUSH1 0x40 MLOAD DUP1 SWAP2 SUB SWAP1 RETURN JUMPDEST CALLVALUE DUP1 ISZERO PUSH2 0xA1 JUMPI PUSH0 DUP1 REVERT JUMPDEST POP PUSH2 0xBC PUSH1 0x4 DUP1 CALLDATASIZE SUB DUP2 ADD SWAP1 PUSH2 0xB7 SWAP2 SWAP1 PUSH2 0x767 JUMP JUMPDEST PUSH2 0x283 JUMP JUMPDEST STOP JUMPDEST CALLVALUE DUP1 ISZERO PUSH2 0xC9 JUMPI PUSH0 DUP1 REVERT JUMPDEST POP PUSH2 0xE4 PUSH1 0x4 DUP1 CALLDATASIZE SUB DUP2 ADD SWAP1 PUSH2 0xDF SWAP2 SWAP1 PUSH2 0x7B7 JUMP JUMPDEST PUSH2 0x39D JUMP JUMPDEST STOP JUMPDEST CALLVALUE DUP1 ISZERO PUSH2 0xF1 JUMPI PUSH0 DUP1 REVERT JUMPDEST POP PUSH2 0x10C PUSH1 0x4 DUP1 CALLDATASIZE SUB DUP2 ADD SWAP1 PUSH2 0x107 SWAP2 SWAP1 PUSH2 0x7F5 JUMP JUMPDEST PUSH2 0x4DE JUMP JUMPDEST STOP JUMPDEST PUSH2 0x116 PUSH2 0x57E JUMP JUMPDEST PUSH20 0xFFFFFFFFFFFFFFFFFFFFFFFFFFFFFFFFFFFFFFFF AND PUSH0 DUP1 SLOAD SWAP1 PUSH2 0x100 EXP SWAP1 DIV PUSH20 0xFFFFFFFFFFFFFFFFFFFFFFFFFFFFFFFFFFFFFFFF AND PUSH20 0xFFFFFFFFFFFFFFFFFFFFFFFFFFFFFFFFFFFFFFFF AND EQ PUSH2 0x1A2 JUMPI PUSH1 0x40 MLOAD PUSH32 0x8C379A000000000000000000000000000000000000000000000000000000000 DUP2 MSTORE PUSH1 0x4 ADD PUSH2 0x199 SWAP1 PUSH2 0x87A JUMP JUMPDEST PUSH1 0x40 MLOAD DUP1 SWAP2 SUB SWAP1 REVERT JUMPDEST PUSH0 PUSH20 0xFFFFFFFFFFFFFFFFFFFFFFFFFFFFFFFFFFFFFFFF AND PUSH0 DUP1 SLOAD SWAP1 PUSH2 0x100 EXP SWAP1 DIV PUSH20 0xFFFFFFFFFFFFFFFFFFFFFFFFFFFFFFFFFFFFFFFF AND PUSH20 0xFFFFFFFFFFFFFFFFFFFFFFFFFFFFFFFFFFFFFFFF AND PUSH32 0x8BE0079C531659141344CD1FD0A4F28419497F9722A3DAAFE3B4186F6B6457E0 PUSH1 0x40 MLOAD PUSH1 0x40 MLOAD DUP1 SWAP2 SUB SWAP1 LOG3 PUSH0 DUP1 PUSH0 PUSH2 0x100 EXP DUP2 SLOAD DUP2 PUSH20 0xFFFFFFFFFFFFFFFFFFFFFFFFFFFFFFFFFFFFFFFF MUL NOT AND SWAP1 DUP4 PUSH20 0xFFFFFFFFFFFFFFFFFFFFFFFFFFFFFFFFFFFFFFFF AND MUL OR SWAP1 SSTORE POP JUMP JUMPDEST PUSH0 DUP1 PUSH0 SWAP1 SLOAD SWAP1 PUSH2 0x100 EXP SWAP1 DIV PUSH20 0xFFFFFFFFFFFFFFFFFFFFFFFFFFFFFFFFFFFFFFFF AND SWAP1 POP SWAP1 JUMP JUMPDEST PUSH2 0x28B PUSH2 0x57E JUMP JUMPDEST PUSH20 0xFFFFFFFFFFFFFFFFFFFFFFFFFFFFFFFFFFFFFFFF AND PUSH0 DUP1 SLOAD SWAP1 PUSH2 0x100 EXP SWAP1 DIV PUSH20 0xFFFFFFFFFFFFFFFFFFFFFFFFFFFFFFFFFFFFFFFF AND PUSH20 0xFFFFFFFFFFFFFFFFFFFFFFFFFFFFFFFFFFFFFFFF AND EQ PUSH2 0x317 JUMPI PUSH1 0x40 MLOAD PUSH32 0x8C379A000000000000000000000000000000000000000000000000000000000 DUP2 MSTORE PUSH1 0x4 ADD PUSH2 0x30E SWAP1 PUSH2 0x87A JUMP JUMPDEST PUSH1 0x40 MLOAD DUP1 SWAP2 SUB SWAP1 REVERT JUMPDEST PUSH0 DUP4 SWAP1 POP DUP1 PUSH20 0xFFFFFFFFFFFFFFFFFFFFFFFFFFFFFFFFFFFFFFFF AND PUSH4 0xA9059CBB DUP5 DUP5 PUSH1 0x40 MLOAD DUP4 PUSH4 0xFFFFFFFF AND PUSH1 0xE0 SHL DUP2 MSTORE PUSH1 0x4 ADD PUSH2 0x356 SWAP3 SWAP2 SWAP1 PUSH2 0x8A7 JUMP JUMPDEST PUSH1 0x20 PUSH1 0x40 MLOAD DUP1 DUP4 SUB DUP2 PUSH0 DUP8 GAS CALL ISZERO DUP1 ISZERO PUSH2 0x372 JUMPI RETURNDATASIZE PUSH0 DUP1 RETURNDATACOPY RETURNDATASIZE PUSH0 REVERT JUMPDEST POP POP POP POP PUSH1 0x40 MLOAD RETURNDATASIZE PUSH1 0x1F NOT PUSH1 0x1F DUP3 ADD AND DUP3 ADD DUP1 PUSH1 0x40 MSTORE POP DUP2 ADD SWAP1 PUSH2 0x396 SWAP2 SWAP1 PUSH2 0x903 JUMP JUMPDEST POP POP POP POP POP JUMP JUMPDEST PUSH2 0x3A5 PUSH2 0x57E JUMP JUMPDEST PUSH20 0xFFFFFFFFFFFFFFFFFFFFFFFFFFFFFFFFFFFFFFFF AND PUSH0 DUP1 SLOAD SWAP1 PUSH2 0x100 EXP SWAP1 DIV PUSH20 0xFFFFFFFFFFFFFFFFFFFFFFFFFFFFFFFFFFFFFFFF AND PUSH20 0xFFFFFFFFFFFFFFFFFFFFFFFFFFFFFFFFFFFFFFFF AND EQ PUSH2 0x431 JUMPI PUSH1 0x40 MLOAD PUSH32 0x8C379A000000000000000000000000000000000000000000000000000000000 DUP2 MSTORE PUSH1 0x4 ADD PUSH2 0x428 SWAP1 PUSH2 0x87A JUMP JUMPDEST PUSH1 0x40 MLOAD DUP1 SWAP2 SUB SWAP1 REVERT JUMPDEST PUSH0 DUP3 PUSH20 0xFFFFFFFFFFFFFFFFFFFFFFFFFFFFFFFFFFFFFFFF AND DUP3 PUSH1 0x40 MLOAD PUSH2 0x456 SWAP1 PUSH2 0x95B JUMP JUMPDEST PUSH0 PUSH1 0x40 MLOAD DUP1 DUP4 SUB DUP2 DUP6 DUP8 GAS CALL SWAP3 POP POP POP RETURNDATASIZE DUP1 PUSH0 DUP2 EQ PUSH2 0x490 JUMPI PUSH1 0x40 MLOAD SWAP2 POP PUSH1 0x1F NOT PUSH1 0x3F RETURNDATASIZE ADD AND DUP3 ADD PUSH1 0x40 MSTORE RETURNDATASIZE DUP3 MSTORE RETURNDATASIZE PUSH0 PUSH1 0x20 DUP5 ADD RETURNDATACOPY PUSH2 0x495 JUMP JUMPDEST PUSH1 0x60 SWAP2 POP JUMPDEST POP POP SWAP1 POP DUP1 PUSH2 0x4D9 JUMPI PUSH1 0x40 MLOAD PUSH32 0x8C379A000000000000000000000000000000000000000000000000000000000 DUP2 MSTORE PUSH1 0x4 ADD PUSH2 0x4D0 SWAP1 PUSH2 0x9B9 JUMP JUMPDEST PUSH1 0x40 MLOAD DUP1 SWAP2 SUB SWAP1 REVERT JUMPDEST POP POP POP JUMP JUMPDEST PUSH2 0x4E6 PUSH2 0x57E JUMP JUMPDEST PUSH20 0xFFFFFFFFFFFFFFFFFFFFFFFFFFFFFFFFFFFFFFFF AND PUSH0 DUP1 SLOAD SWAP1 PUSH2 0x100 EXP SWAP1 DIV PUSH20 0xFFFFFFFFFFFFFFFFFFFFFFFFFFFFFFFFFFFFFFFF AND PUSH20 0xFFFFFFFFFFFFFFFFFFFFFFFFFFFFFFFFFFFFFFFF AND EQ PUSH2 0x572 JUMPI PUSH1 0x40 MLOAD PUSH32 0x8C379A000000000000000000000000000000000000000000000000000000000 DUP2 MSTORE PUSH1 0x4 ADD PUSH2 0x569 SWAP1 PUSH2 0x87A JUMP JUMPDEST PUSH1 0x40 MLOAD DUP1 SWAP2 SUB SWAP1 REVERT JUMPDEST PUSH2 0x57B DUP2 PUSH2 0x585 JUMP JUMPDEST POP JUMP JUMPDEST PUSH0 CALLER SWAP1 POP SWAP1 JUMP JUMPDEST PUSH0 PUSH20 0xFFFFFFFFFFFFFFFFFFFFFFFFFFFFFFFFFFFFFFFF AND DUP2 PUSH20 0xFFFFFFFFFFFFFFFFFFFFFFFFFFFFFFFFFFFFFFFF AND SUB PUSH2 0x5F3 JUMPI PUSH1 0x40 MLOAD PUSH32 0x8C379A000000000000000000000000000000000000000000000000000000000 DUP2 MSTORE PUSH1 0x4 ADD PUSH2 0x5EA SWAP1 PUSH2 0xA47 JUMP JUMPDEST PUSH1 0x40 MLOAD DUP1 SWAP2 SUB SWAP1 REVERT JUMPDEST DUP1 PUSH20 0xFFFFFFFFFFFFFFFFFFFFFFFFFFFFFFFFFFFFFFFF AND PUSH0 DUP1 SLOAD SWAP1 PUSH2 0x100 EXP SWAP1 DIV PUSH20 0xFFFFFFFFFFFFFFFFFFFFFFFFFFFFFFFFFFFFFFFF AND PUSH20 0xFFFFFFFFFFFFFFFFFFFFFFFFFFFFFFFFFFFFFFFF AND PUSH32 0x8BE0079C531659141344CD1FD0A4F28419497F9722A3DAAFE3B4186F6B6457E0 PUSH1 0x40 MLOAD PUSH1 0x40 MLOAD DUP1 SWAP2 SUB SWAP1 LOG3 DUP1 PUSH0 DUP1 PUSH2 0x100 EXP DUP2 SLOAD DUP2 PUSH20 0xFFFFFFFFFFFFFFFFFFFFFFFFFFFFFFFFFFFFFFFF MUL NOT AND SWAP1 DUP4 PUSH20 0xFFFFFFFFFFFFFFFFFFFFFFFFFFFFFFFFFFFFFFFF AND MUL OR SWAP1 SSTORE POP POP JUMP JUMPDEST PUSH0 PUSH20 0xFFFFFFFFFFFFFFFFFFFFFFFFFFFFFFFFFFFFFFFF DUP3 AND SWAP1 POP SWAP2 SWAP1 POP JUMP JUMPDEST PUSH0 PUSH2 0x6D7 DUP3 PUSH2 0x6AE JUMP JUMPDEST SWAP1 POP SWAP2 SWAP1 POP JUMP JUMPDEST PUSH2 0x6E7 DUP2 PUSH2 0x6CD JUMP JUMPDEST DUP3 MSTORE POP POP JUMP JUMPDEST PUSH0 PUSH1 0x20 DUP3 ADD SWAP1 POP PUSH2 0x700 PUSH0 DUP4 ADD DUP5 PUSH2 0x6DE JUMP JUMPDEST SWAP3 SWAP2 POP POP JUMP JUMPDEST PUSH0 DUP1 REVERT JUMPDEST PUSH2 0x713 DUP2 PUSH2 0x6CD JUMP JUMPDEST DUP2 EQ PUSH2 0x71D JUMPI PUSH0 DUP1 REVERT JUMPDEST POP JUMP JUMPDEST PUSH0 DUP2 CALLDATALOAD SWAP1 POP PUSH2 0x72E DUP2 PUSH2 0x70A JUMP JUMPDEST SWAP3 SWAP2 POP POP JUMP JUMPDEST PUSH0 DUP2 SWAP1 POP SWAP2 SWAP1 POP JUMP JUMPDEST PUSH2 0x746 DUP2 PUSH2 0x734 JUMP JUMPDEST DUP2 EQ PUSH2 0x750 JUMPI PUSH0 DUP1 REVERT JUMPDEST POP JUMP JUMPDEST PUSH0 DUP2 CALLDATALOAD SWAP1 POP PUSH2 0x761 DUP2 PUSH2 0x73D JUMP JUMPDEST SWAP3 SWAP2 POP POP JUMP JUMPDEST PUSH0 DUP1 PUSH0 PUSH1 0x60 DUP5 DUP7 SUB SLT ISZERO PUSH2 0x77E JUMPI PUSH2 0x77D PUSH2 0x706 JUMP JUMPDEST JUMPDEST PUSH0 PUSH2 0x78B DUP7 DUP3 DUP8 ADD PUSH2 0x720 JUMP JUMPDEST SWAP4 POP POP PUSH1 0x20 PUSH2 0x79C DUP7 DUP3 DUP8 ADD PUSH2 0x720 JUMP JUMPDEST SWAP3 POP POP PUSH1 0x40 PUSH2 0x7AD DUP7 DUP3 DUP8 ADD PUSH2 0x753 JUMP JUMPDEST SWAP2 POP POP SWAP3 POP SWAP3 POP SWAP3 JUMP JUMPDEST PUSH0 DUP1 PUSH1 0x40 DUP4 DUP6 SUB SLT ISZERO PUSH2 0x7CD JUMPI PUSH2 0x7CC PUSH2 0x706 JUMP JUMPDEST JUMPDEST PUSH0 PUSH2 0x7DA DUP6 DUP3 DUP7 ADD PUSH2 0x720 JUMP JUMPDEST SWAP3 POP POP PUSH1 0x20 PUSH2 0x7EB DUP6 DUP3 DUP7 ADD PUSH2 0x753 JUMP JUMPDEST SWAP2 POP POP SWAP3 POP SWAP3 SWAP1 POP JUMP JUMPDEST PUSH0 PUSH1 0x20 DUP3 DUP5 SUB SLT ISZERO PUSH2 0x80A JUMPI PUSH2 0x809 PUSH2 0x706 JUMP JUMPDEST JUMPDEST PUSH0 PUSH2 0x817 DUP5 DUP3 DUP6 ADD PUSH2 0x720 JUMP JUMPDEST SWAP2 POP POP SWAP3 SWAP2 POP POP JUMP JUMPDEST PUSH0 DUP3 DUP3 MSTORE PUSH1 0x20 DUP3 ADD SWAP1 POP SWAP3 SWAP2 POP POP JUMP JUMPDEST PUSH32 0x6F6E6C794F776E65720000000000000000000000000000000000000000000000 PUSH0 DUP3 ADD MSTORE POP JUMP JUMPDEST PUSH0 PUSH2 0x864 PUSH1 0x9 DUP4 PUSH2 0x820 JUMP JUMPDEST SWAP2 POP PUSH2 0x86F DUP3 PUSH2 0x830 JUMP JUMPDEST PUSH1 0x20 DUP3 ADD SWAP1 POP SWAP2 SWAP1 POP JUMP JUMPDEST PUSH0 PUSH1 0x20 DUP3 ADD SWAP1 POP DUP2 DUP2 SUB PUSH0 DUP4 ADD MSTORE PUSH2 0x891 DUP2 PUSH2 0x858 JUMP JUMPDEST SWAP1 POP SWAP2 SWAP1 POP JUMP JUMPDEST PUSH2 0x8A1 DUP2 PUSH2 0x734 JUMP JUMPDEST DUP3 MSTORE POP POP JUMP JUMPDEST PUSH0 PUSH1 0x40 DUP3 ADD SWAP1 POP PUSH2 0x8BA PUSH0 DUP4 ADD DUP6 PUSH2 0x6DE JUMP JUMPDEST PUSH2 0x8C7 PUSH1 0x20 DUP4 ADD DUP5 PUSH2 0x898 JUMP JUMPDEST SWAP4 SWAP3 POP POP POP JUMP JUMPDEST PUSH0 DUP2 ISZERO ISZERO SWAP1 POP SWAP2 SWAP1 POP JUMP JUMPDEST PUSH2 0x8E2 DUP2 PUSH2 0x8CE JUMP JUMPDEST DUP2 EQ PUSH2 0x8EC JUMPI PUSH0 DUP1 REVERT JUMPDEST POP JUMP JUMPDEST PUSH0 DUP2 MLOAD SWAP1 POP PUSH2 0x8FD DUP2 PUSH2 0x8D9 JUMP JUMPDEST SWAP3 SWAP2 POP POP JUMP JUMPDEST PUSH0 PUSH1 0x20 DUP3 DUP5 SUB SLT ISZERO PUSH2 0x918 JUMPI PUSH2 0x917 PUSH2 0x706 JUMP JUMPDEST JUMPDEST PUSH0 PUSH2 0x925 DUP5 DUP3 DUP6 ADD PUSH2 0x8EF JUMP JUMPDEST SWAP2 POP POP SWAP3 SWAP2 POP POP JUMP JUMPDEST PUSH0 DUP2 SWAP1 POP SWAP3 SWAP2 POP POP JUMP JUMPDEST POP JUMP JUMPDEST PUSH0 PUSH2 0x946 PUSH0 DUP4 PUSH2 0x92E JUMP JUMPDEST SWAP2 POP PUSH2 0x951 DUP3 PUSH2 0x938 JUMP JUMPDEST PUSH0 DUP3 ADD SWAP1 POP SWAP2 SWAP1 POP JUMP JUMPDEST PUSH0 PUSH2 0x965 DUP3 PUSH2 0x93B JUMP JUMPDEST SWAP2 POP DUP2 SWAP1 POP SWAP2 SWAP1 POP JUMP JUMPDEST PUSH32 0x4661696C656420746F2073656E64204574686572000000000000000000000000 PUSH0 DUP3 ADD MSTORE POP JUMP JUMPDEST PUSH0 PUSH2 0x9A3 PUSH1 0x14 DUP4 PUSH2 0x820 JUMP JUMPDEST SWAP2 POP PUSH2 0x9AE DUP3 PUSH2 0x96F JUMP JUMPDEST PUSH1 0x20 DUP3 ADD SWAP1 POP SWAP2 SWAP1 POP JUMP JUMPDEST PUSH0 PUSH1 0x20 DUP3 ADD SWAP1 POP DUP2 DUP2 SUB PUSH0 DUP4 ADD MSTORE PUSH2 0x9D0 DUP2 PUSH2 0x997 JUMP JUMPDEST SWAP1 POP SWAP2 SWAP1 POP JUMP JUMPDEST PUSH32 0x4F776E61626C653A206E6577206F776E657220697320746865207A65726F2061 PUSH0 DUP3 ADD MSTORE PUSH32 0x6464726573730000000000000000000000000000000000000000000000000000 PUSH1 0x20 DUP3 ADD MSTORE POP JUMP JUMPDEST PUSH0 PUSH2 0xA31 PUSH1 0x26 DUP4 PUSH2 0x820 JUMP JUMPDEST SWAP2 POP PUSH2 0xA3C DUP3 PUSH2 0x9D7 JUMP JUMPDEST PUSH1 0x40 DUP3 ADD SWAP1 POP SWAP2 SWAP1 POP JUMP JUMPDEST PUSH0 PUSH1 0x20 DUP3 ADD SWAP1 POP DUP2 DUP2 SUB PUSH0 DUP4 ADD MSTORE PUSH2 0xA5E DUP2 PUSH2 0xA25 JUMP JUMPDEST SWAP1 POP SWAP2 SWAP1 POP JUMP INVALID LOG2 PUSH5 0x6970667358 0x22 SLT KECCAK256 LOG4 0xC5 0xAC 0xA7 0xE1 PUSH2 0xB0C9 PUSH5 0x53CCC4DBEE SGT 0x1F COINBASE PUSH9 0x7FFC03AB637B56D34E 0xB5 0xC4 DELEGATECALL 0x2C CALLDATASIZE PUSH5 0x736F6C6343 STOP ADDMOD AND STOP CALLER "
				},
				"gasEstimates": {
					"creation": {
						"codeDepositCost": "543000",
						"executionCost": "infinite",
						"totalCost": "infinite"
					},
					"external": {
						"": "172",
						"owner()": "2515",
						"renounceOwnership()": "30262",
						"transferEth(address,uint256)": "infinite",
						"transferOwnership(address)": "30721",
						"transferTokens(address,address,uint256)": "infinite"
					}
				},
				"methodIdentifiers": {
					"owner()": "8da5cb5b",
					"renounceOwnership()": "715018a6",
					"transferEth(address,uint256)": "e9bb84c2",
					"transferOwnership(address)": "f2fde38b",
					"transferTokens(address,address,uint256)": "a64b6e5f"
				}
			},
			"storageLayout": {
				"storage": [
					{
						"astId": 285,
						"contract": "contracts/MultiTransfer.sol:Wallet",
						"label": "_owner",
						"offset": 0,
						"slot": "0",
						"type": "t_address"
					}
				],
				"types": {
					"t_address": {
						"encoding": "inplace",
						"label": "address",
						"numberOfBytes": "20"
					}
				}
			},
			"userdoc": {
				"kind": "user",
				"methods": {},
				"version": 1
			}
		}
	}
}