{
  "_format": "hh-sol-artifact-1",
  "contractName": "MultiTransfer",
  "sourceName": "contracts/Tokens.sol",
  "abi": [
    {
      "anonymous": false,
      "inputs": [
        {
          "indexed": true,
          "internalType": "address",
          "name": "previousOwner",
          "type": "address"
        },
        {
          "indexed": true,
          "internalType": "address",
          "name": "newOwner",
          "type": "address"
        }
      ],
      "name": "OwnershipTransferred",
      "type": "event"
    },
    {
      "stateMutability": "payable",
      "type": "fallback"
    },
    {
      "inputs": [
        {
          "internalType": "address[]",
          "name": "_addressesArray",
          "type": "address[]"
        },
        {
          "internalType": "uint256[]",
          "name": "_amountsArray",
          "type": "uint256[]"
        }
      ],
      "name": "multiTransfersEth",
      "outputs": [
        {
          "internalType": "bool",
          "name": "",
          "type": "bool"
        }
      ],
      "stateMutability": "payable",
      "type": "function"
    },
    {
      "inputs": [
        {
          "internalType": "address[]",
          "name": "_addressesArray",
          "type": "address[]"
        },
        {
          "internalType": "uint256",
          "name": "_amount",
          "type": "uint256"
        }
      ],
      "name": "multiTransfersEthEqualAmount",
      "outputs": [
        {
          "internalType": "bool",
          "name": "",
          "type": "bool"
        }
      ],
      "stateMutability": "payable",
      "type": "function"
    },
    {
      "inputs": [
        {
          "internalType": "address",
          "name": "_token",
          "type": "address"
        },
        {
          "internalType": "address[]",
          "name": "_addressesArray",
          "type": "address[]"
        },
        {
          "internalType": "uint256[]",
          "name": "_amountsArray",
          "type": "uint256[]"
        }
      ],
      "name": "multiTransfersTokens",
      "outputs": [
        {
          "internalType": "bool",
          "name": "",
          "type": "bool"
        }
      ],
      "stateMutability": "nonpayable",
      "type": "function"
    },
    {
      "inputs": [
        {
          "internalType": "address",
          "name": "_token",
          "type": "address"
        },
        {
          "internalType": "address[]",
          "name": "_addressesArray",
          "type": "address[]"
        },
        {
          "internalType": "uint256",
          "name": "_amount",
          "type": "uint256"
        }
      ],
      "name": "multiTransfersTokensEqualAmount",
      "outputs": [
        {
          "internalType": "bool",
          "name": "",
          "type": "bool"
        }
      ],
      "stateMutability": "nonpayable",
      "type": "function"
    },
    {
      "inputs": [],
      "name": "owner",
      "outputs": [
        {
          "internalType": "address",
          "name": "",
          "type": "address"
        }
      ],
      "stateMutability": "view",
      "type": "function"
    },
    {
      "inputs": [],
      "name": "renounceOwnership",
      "outputs": [],
      "stateMutability": "nonpayable",
      "type": "function"
    },
    {
      "inputs": [
        {
          "internalType": "address",
          "name": "_to",
          "type": "address"
        },
        {
          "internalType": "uint256",
          "name": "_amount",
          "type": "uint256"
        }
      ],
      "name": "transferEth",
      "outputs": [],
      "stateMutability": "nonpayable",
      "type": "function"
    },
    {
      "inputs": [
        {
          "internalType": "address",
          "name": "newOwner",
          "type": "address"
        }
      ],
      "name": "transferOwnership",
      "outputs": [],
      "stateMutability": "nonpayable",
      "type": "function"
    },
    {
      "inputs": [
        {
          "internalType": "address",
          "name": "_token",
          "type": "address"
        },
        {
          "internalType": "address",
          "name": "_to",
          "type": "address"
        },
        {
          "internalType": "uint256",
          "name": "_amount",
          "type": "uint256"
        }
      ],
      "name": "transferTokens",
      "outputs": [],
      "stateMutability": "nonpayable",
      "type": "function"
    },
    {
      "stateMutability": "payable",
      "type": "receive"
    }
  ],
  "bytecode": "0x608060405234801561001057600080fd5b5060006100216100c460201b60201c565b9050806000806101000a81548173ffffffffffffffffffffffffffffffffffffffff021916908373ffffffffffffffffffffffffffffffffffffffff1602179055508073ffffffffffffffffffffffffffffffffffffffff16600073ffffffffffffffffffffffffffffffffffffffff167f8be0079c531659141344cd1fd0a4f28419497f9722a3daafe3b4186f6b6457e060405160405180910390a3506100cc565b600033905090565b61202f806100db6000396000f3fe60806040526004361061008a5760003560e01c8063be7c812311610059578063be7c81231461012e578063c1cb92d81461015e578063e977148e1461019b578063e9bb84c2146101d8578063f2fde38b1461020157610091565b806366a978ea14610093578063715018a6146100c35780638da5cb5b146100da578063a64b6e5f1461010557610091565b3661009157005b005b6100ad60048036038101906100a891906112b9565b61022a565b6040516100ba9190611330565b60405180910390f35b3480156100cf57600080fd5b506100d86103ef565b005b3480156100e657600080fd5b506100ef610542565b6040516100fc919061135a565b60405180910390f35b34801561011157600080fd5b5061012c60048036038101906101279190611375565b61056b565b005b6101486004803603810190610143919061148b565b61068a565b6040516101559190611330565b60405180910390f35b34801561016a57600080fd5b5061018560048036038101906101809190611503565b610897565b6040516101929190611330565b60405180910390f35b3480156101a757600080fd5b506101c260048036038101906101bd9190611572565b6109f8565b6040516101cf9190611330565b60405180910390f35b3480156101e457600080fd5b506101ff60048036038101906101fa91906115fd565b610bb8565b005b34801561020d57600080fd5b506102286004803603810190610223919061163d565b610cfe565b005b6000610240835183610d9f90919063ffffffff16565b341015610282576040517f08c379a0000000000000000000000000000000000000000000000000000000008152600401610279906116c7565b60405180910390fd5b60005b8351811015610302578381815181106102a1576102a06116e7565b5b602002602001015173ffffffffffffffffffffffffffffffffffffffff166108fc849081150290604051600060405180830381858888f193505050501580156102ee573d6000803e3d6000fd5b5080806102fa90611745565b915050610285565b50600061032b61031c855185610d9f90919063ffffffff16565b34610e1990919063ffffffff16565b905060008111156103e45760003373ffffffffffffffffffffffffffffffffffffffff168260405161035c906117be565b60006040518083038185875af1925050503d8060008114610399576040519150601f19603f3d011682016040523d82523d6000602084013e61039e565b606091505b50509050806103e2576040517f08c379a00000000000000000000000000000000000000000000000000000000081526004016103d99061181f565b60405180910390fd5b505b600191505092915050565b6103f7610e63565b73ffffffffffffffffffffffffffffffffffffffff1660008054906101000a900473ffffffffffffffffffffffffffffffffffffffff1673ffffffffffffffffffffffffffffffffffffffff1614610484576040517f08c379a000000000000000000000000000000000000000000000000000000000815260040161047b9061188b565b60405180910390fd5b600073ffffffffffffffffffffffffffffffffffffffff1660008054906101000a900473ffffffffffffffffffffffffffffffffffffffff1673ffffffffffffffffffffffffffffffffffffffff167f8be0079c531659141344cd1fd0a4f28419497f9722a3daafe3b4186f6b6457e060405160405180910390a360008060006101000a81548173ffffffffffffffffffffffffffffffffffffffff021916908373ffffffffffffffffffffffffffffffffffffffff160217905550565b60008060009054906101000a900473ffffffffffffffffffffffffffffffffffffffff16905090565b610573610e63565b73ffffffffffffffffffffffffffffffffffffffff1660008054906101000a900473ffffffffffffffffffffffffffffffffffffffff1673ffffffffffffffffffffffffffffffffffffffff1614610600576040517f08c379a00000000000000000000000000000000000000000000000000000000081526004016105f79061188b565b60405180910390fd5b60008390508073ffffffffffffffffffffffffffffffffffffffff1663a9059cbb84846040518363ffffffff1660e01b81526004016106409291906118ba565b6020604051808303816000875af115801561065f573d6000803e3d6000fd5b505050506040513d601f19601f82011682018060405250810190610683919061190f565b5050505050565b600081518351146106d0576040517f08c379a00000000000000000000000000000000000000000000000000000000081526004016106c7906119ae565b60405180910390fd5b6106d982610e6b565b34101561071b576040517f08c379a0000000000000000000000000000000000000000000000000000000008152600401610712906116c7565b60405180910390fd5b60005b83518110156107b55783818151811061073a576107396116e7565b5b602002602001015173ffffffffffffffffffffffffffffffffffffffff166108fc84838151811061076e5761076d6116e7565b5b60200260200101519081150290604051600060405180830381858888f193505050501580156107a1573d6000803e3d6000fd5b5080806107ad90611745565b91505061071e565b5060006107d36107c484610e6b565b34610e1990919063ffffffff16565b9050600081111561088c5760003373ffffffffffffffffffffffffffffffffffffffff1682604051610804906117be565b60006040518083038185875af1925050503d8060008114610841576040519150601f19603f3d011682016040523d82523d6000602084013e610846565b606091505b505090508061088a576040517f08c379a00000000000000000000000000000000000000000000000000000000081526004016108819061181f565b60405180910390fd5b505b600191505092915050565b6000808490508073ffffffffffffffffffffffffffffffffffffffff166343781ee13386866040518463ffffffff1660e01b81526004016108da93929190611a8c565b6020604051808303816000875af192505050801561091657506040513d601f19601f82011682018060405250810190610913919061190f565b60015b6109e15760005b84518110156109db578173ffffffffffffffffffffffffffffffffffffffff166323b872dd61094a610e63565b87848151811061095d5761095c6116e7565b5b6020026020010151876040518463ffffffff1660e01b815260040161098493929190611b29565b6020604051808303816000875af11580156109a3573d6000803e3d6000fd5b505050506040513d601f19601f820116820180604052508101906109c7919061190f565b5080806109d390611745565b91505061091d565b506109eb565b80925050506109f1565b60019150505b9392505050565b60008151835114610a3e576040517f08c379a0000000000000000000000000000000000000000000000000000000008152600401610a35906119ae565b60405180910390fd5b60008490508073ffffffffffffffffffffffffffffffffffffffff1663e684997e3386866040518463ffffffff1660e01b8152600401610a8093929190611c1e565b6020604051808303816000875af1925050508015610abc57506040513d601f19601f82011682018060405250810190610ab9919061190f565b60015b610ba15760005b8451811015610b9b578173ffffffffffffffffffffffffffffffffffffffff166323b872dd610af0610e63565b878481518110610b0357610b026116e7565b5b6020026020010151878581518110610b1e57610b1d6116e7565b5b60200260200101516040518463ffffffff1660e01b8152600401610b4493929190611b29565b6020604051808303816000875af1158015610b63573d6000803e3d6000fd5b505050506040513d601f19601f82011682018060405250810190610b87919061190f565b508080610b9390611745565b915050610ac3565b50610bab565b8092505050610bb1565b60019150505b9392505050565b610bc0610e63565b73ffffffffffffffffffffffffffffffffffffffff1660008054906101000a900473ffffffffffffffffffffffffffffffffffffffff1673ffffffffffffffffffffffffffffffffffffffff1614610c4d576040517f08c379a0000000000000000000000000000000000000000000000000000000008152600401610c449061188b565b60405180910390fd5b60008273ffffffffffffffffffffffffffffffffffffffff1682604051610c73906117be565b60006040518083038185875af1925050503d8060008114610cb0576040519150601f19603f3d011682016040523d82523d6000602084013e610cb5565b606091505b5050905080610cf9576040517f08c379a0000000000000000000000000000000000000000000000000000000008152600401610cf090611caf565b60405180910390fd5b505050565b610d06610e63565b73ffffffffffffffffffffffffffffffffffffffff1660008054906101000a900473ffffffffffffffffffffffffffffffffffffffff1673ffffffffffffffffffffffffffffffffffffffff1614610d93576040517f08c379a0000000000000000000000000000000000000000000000000000000008152600401610d8a9061188b565b60405180910390fd5b610d9c81610eca565b50565b6000808303610db15760009050610e13565b60008284610dbf9190611ccf565b9050828482610dce9190611d40565b14610e0e576040517f08c379a0000000000000000000000000000000000000000000000000000000008152600401610e0590611de3565b60405180910390fd5b809150505b92915050565b6000610e5b83836040518060400160405280601e81526020017f536166654d6174683a207375627472616374696f6e206f766572666c6f770000815250610ff6565b905092915050565b600033905090565b6000806000905060005b8351811015610ec057610eab848281518110610e9457610e936116e7565b5b60200260200101518361105a90919063ffffffff16565b91508080610eb890611745565b915050610e75565b5080915050919050565b600073ffffffffffffffffffffffffffffffffffffffff168173ffffffffffffffffffffffffffffffffffffffff1603610f39576040517f08c379a0000000000000000000000000000000000000000000000000000000008152600401610f3090611e75565b60405180910390fd5b8073ffffffffffffffffffffffffffffffffffffffff1660008054906101000a900473ffffffffffffffffffffffffffffffffffffffff1673ffffffffffffffffffffffffffffffffffffffff167f8be0079c531659141344cd1fd0a4f28419497f9722a3daafe3b4186f6b6457e060405160405180910390a3806000806101000a81548173ffffffffffffffffffffffffffffffffffffffff021916908373ffffffffffffffffffffffffffffffffffffffff16021790555050565b600083831115829061103e576040517f08c379a00000000000000000000000000000000000000000000000000000000081526004016110359190611f03565b60405180910390fd5b506000838561104d9190611f25565b9050809150509392505050565b60008082846110699190611f59565b9050838110156110ae576040517f08c379a00000000000000000000000000000000000000000000000000000000081526004016110a590611fd9565b60405180910390fd5b8091505092915050565b6000604051905090565b600080fd5b600080fd5b600080fd5b6000601f19601f8301169050919050565b7f4e487b7100000000000000000000000000000000000000000000000000000000600052604160045260246000fd5b61111a826110d1565b810181811067ffffffffffffffff82111715611139576111386110e2565b5b80604052505050565b600061114c6110b8565b90506111588282611111565b919050565b600067ffffffffffffffff821115611178576111776110e2565b5b602082029050602081019050919050565b600080fd5b600073ffffffffffffffffffffffffffffffffffffffff82169050919050565b60006111b98261118e565b9050919050565b6111c9816111ae565b81146111d457600080fd5b50565b6000813590506111e6816111c0565b92915050565b60006111ff6111fa8461115d565b611142565b9050808382526020820190506020840283018581111561122257611221611189565b5b835b8181101561124b578061123788826111d7565b845260208401935050602081019050611224565b5050509392505050565b600082601f83011261126a576112696110cc565b5b813561127a8482602086016111ec565b91505092915050565b6000819050919050565b61129681611283565b81146112a157600080fd5b50565b6000813590506112b38161128d565b92915050565b600080604083850312156112d0576112cf6110c2565b5b600083013567ffffffffffffffff8111156112ee576112ed6110c7565b5b6112fa85828601611255565b925050602061130b858286016112a4565b9150509250929050565b60008115159050919050565b61132a81611315565b82525050565b60006020820190506113456000830184611321565b92915050565b611354816111ae565b82525050565b600060208201905061136f600083018461134b565b92915050565b60008060006060848603121561138e5761138d6110c2565b5b600061139c868287016111d7565b93505060206113ad868287016111d7565b92505060406113be868287016112a4565b9150509250925092565b600067ffffffffffffffff8211156113e3576113e26110e2565b5b602082029050602081019050919050565b6000611407611402846113c8565b611142565b9050808382526020820190506020840283018581111561142a57611429611189565b5b835b81811015611453578061143f88826112a4565b84526020840193505060208101905061142c565b5050509392505050565b600082601f830112611472576114716110cc565b5b81356114828482602086016113f4565b91505092915050565b600080604083850312156114a2576114a16110c2565b5b600083013567ffffffffffffffff8111156114c0576114bf6110c7565b5b6114cc85828601611255565b925050602083013567ffffffffffffffff8111156114ed576114ec6110c7565b5b6114f98582860161145d565b9150509250929050565b60008060006060848603121561151c5761151b6110c2565b5b600061152a868287016111d7565b935050602084013567ffffffffffffffff81111561154b5761154a6110c7565b5b61155786828701611255565b9250506040611568868287016112a4565b9150509250925092565b60008060006060848603121561158b5761158a6110c2565b5b6000611599868287016111d7565b935050602084013567ffffffffffffffff8111156115ba576115b96110c7565b5b6115c686828701611255565b925050604084013567ffffffffffffffff8111156115e7576115e66110c7565b5b6115f38682870161145d565b9150509250925092565b60008060408385031215611614576116136110c2565b5b6000611622858286016111d7565b9250506020611633858286016112a4565b9150509250929050565b600060208284031215611653576116526110c2565b5b6000611661848285016111d7565b91505092915050565b600082825260208201905092915050565b7f596f75206d7573742073656e6420657468000000000000000000000000000000600082015250565b60006116b160118361166a565b91506116bc8261167b565b602082019050919050565b600060208201905081810360008301526116e0816116a4565b9050919050565b7f4e487b7100000000000000000000000000000000000000000000000000000000600052603260045260246000fd5b7f4e487b7100000000000000000000000000000000000000000000000000000000600052601160045260246000fd5b600061175082611283565b91507fffffffffffffffffffffffffffffffffffffffffffffffffffffffffffffffff820361178257611781611716565b5b600182019050919050565b600081905092915050565b50565b60006117a860008361178d565b91506117b382611798565b600082019050919050565b60006117c98261179b565b9150819050919050565b7f5472616e73666572206661696c65642e00000000000000000000000000000000600082015250565b600061180960108361166a565b9150611814826117d3565b602082019050919050565b60006020820190508181036000830152611838816117fc565b9050919050565b7f6f6e6c794f776e65720000000000000000000000000000000000000000000000600082015250565b600061187560098361166a565b91506118808261183f565b602082019050919050565b600060208201905081810360008301526118a481611868565b9050919050565b6118b481611283565b82525050565b60006040820190506118cf600083018561134b565b6118dc60208301846118ab565b9392505050565b6118ec81611315565b81146118f757600080fd5b50565b600081519050611909816118e3565b92915050565b600060208284031215611925576119246110c2565b5b6000611933848285016118fa565b91505092915050565b7f5f61646472657373657341727261792e6c656e67746820213d205f616d6f756e60008201527f747341727261792e6c656e677468000000000000000000000000000000000000602082015250565b6000611998602e8361166a565b91506119a38261193c565b604082019050919050565b600060208201905081810360008301526119c78161198b565b9050919050565b600081519050919050565b600082825260208201905092915050565b6000819050602082019050919050565b611a03816111ae565b82525050565b6000611a1583836119fa565b60208301905092915050565b6000602082019050919050565b6000611a39826119ce565b611a4381856119d9565b9350611a4e836119ea565b8060005b83811015611a7f578151611a668882611a09565b9750611a7183611a21565b925050600181019050611a52565b5085935050505092915050565b6000606082019050611aa1600083018661134b565b8181036020830152611ab38185611a2e565b9050611ac260408301846118ab565b949350505050565b6000819050919050565b6000611aef611aea611ae58461118e565b611aca565b61118e565b9050919050565b6000611b0182611ad4565b9050919050565b6000611b1382611af6565b9050919050565b611b2381611b08565b82525050565b6000606082019050611b3e6000830186611b1a565b611b4b602083018561134b565b611b5860408301846118ab565b949350505050565b600081519050919050565b600082825260208201905092915050565b6000819050602082019050919050565b611b9581611283565b82525050565b6000611ba78383611b8c565b60208301905092915050565b6000602082019050919050565b6000611bcb82611b60565b611bd58185611b6b565b9350611be083611b7c565b8060005b83811015611c11578151611bf88882611b9b565b9750611c0383611bb3565b925050600181019050611be4565b5085935050505092915050565b6000606082019050611c33600083018661134b565b8181036020830152611c458185611a2e565b90508181036040830152611c598184611bc0565b9050949350505050565b7f4661696c656420746f2073656e64204574686572000000000000000000000000600082015250565b6000611c9960148361166a565b9150611ca482611c63565b602082019050919050565b60006020820190508181036000830152611cc881611c8c565b9050919050565b6000611cda82611283565b9150611ce583611283565b9250828202611cf381611283565b91508282048414831517611d0a57611d09611716565b5b5092915050565b7f4e487b7100000000000000000000000000000000000000000000000000000000600052601260045260246000fd5b6000611d4b82611283565b9150611d5683611283565b925082611d6657611d65611d11565b5b828204905092915050565b7f536166654d6174683a206d756c7469706c69636174696f6e206f766572666c6f60008201527f7700000000000000000000000000000000000000000000000000000000000000602082015250565b6000611dcd60218361166a565b9150611dd882611d71565b604082019050919050565b60006020820190508181036000830152611dfc81611dc0565b9050919050565b7f4f776e61626c653a206e6577206f776e657220697320746865207a65726f206160008201527f6464726573730000000000000000000000000000000000000000000000000000602082015250565b6000611e5f60268361166a565b9150611e6a82611e03565b604082019050919050565b60006020820190508181036000830152611e8e81611e52565b9050919050565b600081519050919050565b60005b83811015611ebe578082015181840152602081019050611ea3565b60008484015250505050565b6000611ed582611e95565b611edf818561166a565b9350611eef818560208601611ea0565b611ef8816110d1565b840191505092915050565b60006020820190508181036000830152611f1d8184611eca565b905092915050565b6000611f3082611283565b9150611f3b83611283565b9250828203905081811115611f5357611f52611716565b5b92915050565b6000611f6482611283565b9150611f6f83611283565b9250828201905080821115611f8757611f86611716565b5b92915050565b7f536166654d6174683a206164646974696f6e206f766572666c6f770000000000600082015250565b6000611fc3601b8361166a565b9150611fce82611f8d565b602082019050919050565b60006020820190508181036000830152611ff281611fb6565b905091905056fea2646970667358221220580efb41e83b9a39fdcc7877c5cd3fed9f0d66b6dee40e4cbf75d11ad579d66c64736f6c63430008140033",
  "linkReferences": {},
  "deployedLinkReferences": {}
}