{
  "_format": "hh-sol-artifact-1",
  "contractName": "MultiTransfer",
  "sourceName": "contracts/MultiTransfer.sol",
  "abi": [
    {
      "anonymous": false,
      "inputs": [
        {
          "indexed": true,
          "internalType": "address",
          "name": "previousOwner",
          "type": "address"
        },
        {
          "indexed": true,
          "internalType": "address",
          "name": "newOwner",
          "type": "address"
        }
      ],
      "name": "OwnershipTransferred",
      "type": "event"
    },
    {
      "stateMutability": "payable",
      "type": "fallback"
    },
    {
      "inputs": [
        {
          "internalType": "address[]",
          "name": "_addressesArray",
          "type": "address[]"
        },
        {
          "internalType": "uint256[]",
          "name": "_amountsArray",
          "type": "uint256[]"
        }
      ],
      "name": "multiTransfersEth",
      "outputs": [
        {
          "internalType": "bool",
          "name": "",
          "type": "bool"
        }
      ],
      "stateMutability": "payable",
      "type": "function"
    },
    {
      "inputs": [
        {
          "internalType": "address[]",
          "name": "_addressesArray",
          "type": "address[]"
        },
        {
          "internalType": "uint256",
          "name": "_amount",
          "type": "uint256"
        }
      ],
      "name": "multiTransfersEthEqualAmount",
      "outputs": [
        {
          "internalType": "bool",
          "name": "",
          "type": "bool"
        }
      ],
      "stateMutability": "payable",
      "type": "function"
    },
    {
      "inputs": [
        {
          "internalType": "address",
          "name": "_token",
          "type": "address"
        },
        {
          "internalType": "address[]",
          "name": "_addressesArray",
          "type": "address[]"
        },
        {
          "internalType": "uint256[]",
          "name": "_amountsArray",
          "type": "uint256[]"
        }
      ],
      "name": "multiTransfersTokens",
      "outputs": [
        {
          "internalType": "bool",
          "name": "",
          "type": "bool"
        }
      ],
      "stateMutability": "nonpayable",
      "type": "function"
    },
    {
      "inputs": [
        {
          "internalType": "address",
          "name": "_token",
          "type": "address"
        },
        {
          "internalType": "address[]",
          "name": "_addressesArray",
          "type": "address[]"
        },
        {
          "internalType": "uint256",
          "name": "_amount",
          "type": "uint256"
        }
      ],
      "name": "multiTransfersTokensEqualAmount",
      "outputs": [
        {
          "internalType": "bool",
          "name": "",
          "type": "bool"
        }
      ],
      "stateMutability": "nonpayable",
      "type": "function"
    },
    {
      "inputs": [],
      "name": "owner",
      "outputs": [
        {
          "internalType": "address",
          "name": "",
          "type": "address"
        }
      ],
      "stateMutability": "view",
      "type": "function"
    },
    {
      "inputs": [],
      "name": "renounceOwnership",
      "outputs": [],
      "stateMutability": "nonpayable",
      "type": "function"
    },
    {
      "inputs": [],
      "name": "test",
      "outputs": [
        {
          "internalType": "bool",
          "name": "",
          "type": "bool"
        }
      ],
      "stateMutability": "payable",
      "type": "function"
    },
    {
      "inputs": [
        {
          "internalType": "address",
          "name": "_to",
          "type": "address"
        },
        {
          "internalType": "uint256",
          "name": "_amount",
          "type": "uint256"
        }
      ],
      "name": "transferEth",
      "outputs": [],
      "stateMutability": "nonpayable",
      "type": "function"
    },
    {
      "inputs": [
        {
          "internalType": "address",
          "name": "newOwner",
          "type": "address"
        }
      ],
      "name": "transferOwnership",
      "outputs": [],
      "stateMutability": "nonpayable",
      "type": "function"
    },
    {
      "inputs": [
        {
          "internalType": "address",
          "name": "_token",
          "type": "address"
        },
        {
          "internalType": "address",
          "name": "_to",
          "type": "address"
        },
        {
          "internalType": "uint256",
          "name": "_amount",
          "type": "uint256"
        }
      ],
      "name": "transferTokens",
      "outputs": [],
      "stateMutability": "nonpayable",
      "type": "function"
    },
    {
      "stateMutability": "payable",
      "type": "receive"
    }
  ],
  "bytecode": "0x608060405234801561001057600080fd5b5060006100216100c460201b60201c565b9050806000806101000a81548173ffffffffffffffffffffffffffffffffffffffff021916908373ffffffffffffffffffffffffffffffffffffffff1602179055508073ffffffffffffffffffffffffffffffffffffffff16600073ffffffffffffffffffffffffffffffffffffffff167f8be0079c531659141344cd1fd0a4f28419497f9722a3daafe3b4186f6b6457e060405160405180910390a3506100cc565b600033905090565b611d8f806100db6000396000f3fe6080604052600436106100955760003560e01c8063c1cb92d811610059578063c1cb92d814610169578063e977148e146101a6578063e9bb84c2146101e3578063f2fde38b1461020c578063f8a8fd6d146102355761009c565b806366a978ea1461009e578063715018a6146100ce5780638da5cb5b146100e5578063a64b6e5f14610110578063be7c8123146101395761009c565b3661009c57005b005b6100b860048036038101906100b39190611218565b610253565b6040516100c5919061128f565b60405180910390f35b3480156100da57600080fd5b506100e3610418565b005b3480156100f157600080fd5b506100fa61056b565b60405161010791906112b9565b60405180910390f35b34801561011c57600080fd5b50610137600480360381019061013291906112d4565b610594565b005b610153600480360381019061014e91906113ea565b6106b3565b604051610160919061128f565b60405180910390f35b34801561017557600080fd5b50610190600480360381019061018b9190611462565b6108c0565b60405161019d919061128f565b60405180910390f35b3480156101b257600080fd5b506101cd60048036038101906101c891906114d1565b610994565b6040516101da919061128f565b60405180910390f35b3480156101ef57600080fd5b5061020a6004803603810190610205919061155c565b610ac7565b005b34801561021857600080fd5b50610233600480360381019061022e919061159c565b610c0d565b005b61023d610cae565b60405161024a919061128f565b60405180910390f35b6000610269835183610cfe90919063ffffffff16565b3410156102ab576040517f08c379a00000000000000000000000000000000000000000000000000000000081526004016102a290611626565b60405180910390fd5b60005b835181101561032b578381815181106102ca576102c9611646565b5b602002602001015173ffffffffffffffffffffffffffffffffffffffff166108fc849081150290604051600060405180830381858888f19350505050158015610317573d6000803e3d6000fd5b508080610323906116a4565b9150506102ae565b506000610354610345855185610cfe90919063ffffffff16565b34610d7890919063ffffffff16565b9050600081111561040d5760003373ffffffffffffffffffffffffffffffffffffffff16826040516103859061171d565b60006040518083038185875af1925050503d80600081146103c2576040519150601f19603f3d011682016040523d82523d6000602084013e6103c7565b606091505b505090508061040b576040517f08c379a00000000000000000000000000000000000000000000000000000000081526004016104029061177e565b60405180910390fd5b505b600191505092915050565b610420610dc2565b73ffffffffffffffffffffffffffffffffffffffff1660008054906101000a900473ffffffffffffffffffffffffffffffffffffffff1673ffffffffffffffffffffffffffffffffffffffff16146104ad576040517f08c379a00000000000000000000000000000000000000000000000000000000081526004016104a4906117ea565b60405180910390fd5b600073ffffffffffffffffffffffffffffffffffffffff1660008054906101000a900473ffffffffffffffffffffffffffffffffffffffff1673ffffffffffffffffffffffffffffffffffffffff167f8be0079c531659141344cd1fd0a4f28419497f9722a3daafe3b4186f6b6457e060405160405180910390a360008060006101000a81548173ffffffffffffffffffffffffffffffffffffffff021916908373ffffffffffffffffffffffffffffffffffffffff160217905550565b60008060009054906101000a900473ffffffffffffffffffffffffffffffffffffffff16905090565b61059c610dc2565b73ffffffffffffffffffffffffffffffffffffffff1660008054906101000a900473ffffffffffffffffffffffffffffffffffffffff1673ffffffffffffffffffffffffffffffffffffffff1614610629576040517f08c379a0000000000000000000000000000000000000000000000000000000008152600401610620906117ea565b60405180910390fd5b60008390508073ffffffffffffffffffffffffffffffffffffffff1663a9059cbb84846040518363ffffffff1660e01b8152600401610669929190611819565b6020604051808303816000875af1158015610688573d6000803e3d6000fd5b505050506040513d601f19601f820116820180604052508101906106ac919061186e565b5050505050565b600081518351146106f9576040517f08c379a00000000000000000000000000000000000000000000000000000000081526004016106f09061190d565b60405180910390fd5b61070282610dca565b341015610744576040517f08c379a000000000000000000000000000000000000000000000000000000000815260040161073b90611626565b60405180910390fd5b60005b83518110156107de5783818151811061076357610762611646565b5b602002602001015173ffffffffffffffffffffffffffffffffffffffff166108fc84838151811061079757610796611646565b5b60200260200101519081150290604051600060405180830381858888f193505050501580156107ca573d6000803e3d6000fd5b5080806107d6906116a4565b915050610747565b5060006107fc6107ed84610dca565b34610d7890919063ffffffff16565b905060008111156108b55760003373ffffffffffffffffffffffffffffffffffffffff168260405161082d9061171d565b60006040518083038185875af1925050503d806000811461086a576040519150601f19603f3d011682016040523d82523d6000602084013e61086f565b606091505b50509050806108b3576040517f08c379a00000000000000000000000000000000000000000000000000000000081526004016108aa9061177e565b60405180910390fd5b505b600191505092915050565b60008084905060005b8451811015610987578173ffffffffffffffffffffffffffffffffffffffff166323b872dd6108f6610dc2565b87848151811061090957610908611646565b5b6020026020010151876040518463ffffffff1660e01b81526004016109309392919061198c565b6020604051808303816000875af115801561094f573d6000803e3d6000fd5b505050506040513d601f19601f82011682018060405250810190610973919061186e565b50808061097f906116a4565b9150506108c9565b5060019150509392505050565b600081518351146109da576040517f08c379a00000000000000000000000000000000000000000000000000000000081526004016109d19061190d565b60405180910390fd5b600084905060005b8451811015610aba578173ffffffffffffffffffffffffffffffffffffffff166323b872dd610a0f610dc2565b878481518110610a2257610a21611646565b5b6020026020010151878581518110610a3d57610a3c611646565b5b60200260200101516040518463ffffffff1660e01b8152600401610a639392919061198c565b6020604051808303816000875af1158015610a82573d6000803e3d6000fd5b505050506040513d601f19601f82011682018060405250810190610aa6919061186e565b508080610ab2906116a4565b9150506109e2565b5060019150509392505050565b610acf610dc2565b73ffffffffffffffffffffffffffffffffffffffff1660008054906101000a900473ffffffffffffffffffffffffffffffffffffffff1673ffffffffffffffffffffffffffffffffffffffff1614610b5c576040517f08c379a0000000000000000000000000000000000000000000000000000000008152600401610b53906117ea565b60405180910390fd5b60008273ffffffffffffffffffffffffffffffffffffffff1682604051610b829061171d565b60006040518083038185875af1925050503d8060008114610bbf576040519150601f19603f3d011682016040523d82523d6000602084013e610bc4565b606091505b5050905080610c08576040517f08c379a0000000000000000000000000000000000000000000000000000000008152600401610bff90611a0f565b60405180910390fd5b505050565b610c15610dc2565b73ffffffffffffffffffffffffffffffffffffffff1660008054906101000a900473ffffffffffffffffffffffffffffffffffffffff1673ffffffffffffffffffffffffffffffffffffffff1614610ca2576040517f08c379a0000000000000000000000000000000000000000000000000000000008152600401610c99906117ea565b60405180910390fd5b610cab81610e29565b50565b60003073ffffffffffffffffffffffffffffffffffffffff166108fc349081150290604051600060405180830381858888f19350505050158015610cf6573d6000803e3d6000fd5b506001905090565b6000808303610d105760009050610d72565b60008284610d1e9190611a2f565b9050828482610d2d9190611aa0565b14610d6d576040517f08c379a0000000000000000000000000000000000000000000000000000000008152600401610d6490611b43565b60405180910390fd5b809150505b92915050565b6000610dba83836040518060400160405280601e81526020017f536166654d6174683a207375627472616374696f6e206f766572666c6f770000815250610f55565b905092915050565b600033905090565b6000806000905060005b8351811015610e1f57610e0a848281518110610df357610df2611646565b5b602002602001015183610fb990919063ffffffff16565b91508080610e17906116a4565b915050610dd4565b5080915050919050565b600073ffffffffffffffffffffffffffffffffffffffff168173ffffffffffffffffffffffffffffffffffffffff1603610e98576040517f08c379a0000000000000000000000000000000000000000000000000000000008152600401610e8f90611bd5565b60405180910390fd5b8073ffffffffffffffffffffffffffffffffffffffff1660008054906101000a900473ffffffffffffffffffffffffffffffffffffffff1673ffffffffffffffffffffffffffffffffffffffff167f8be0079c531659141344cd1fd0a4f28419497f9722a3daafe3b4186f6b6457e060405160405180910390a3806000806101000a81548173ffffffffffffffffffffffffffffffffffffffff021916908373ffffffffffffffffffffffffffffffffffffffff16021790555050565b6000838311158290610f9d576040517f08c379a0000000000000000000000000000000000000000000000000000000008152600401610f949190611c63565b60405180910390fd5b5060008385610fac9190611c85565b9050809150509392505050565b6000808284610fc89190611cb9565b90508381101561100d576040517f08c379a000000000000000000000000000000000000000000000000000000000815260040161100490611d39565b60405180910390fd5b8091505092915050565b6000604051905090565b600080fd5b600080fd5b600080fd5b6000601f19601f8301169050919050565b7f4e487b7100000000000000000000000000000000000000000000000000000000600052604160045260246000fd5b61107982611030565b810181811067ffffffffffffffff8211171561109857611097611041565b5b80604052505050565b60006110ab611017565b90506110b78282611070565b919050565b600067ffffffffffffffff8211156110d7576110d6611041565b5b602082029050602081019050919050565b600080fd5b600073ffffffffffffffffffffffffffffffffffffffff82169050919050565b6000611118826110ed565b9050919050565b6111288161110d565b811461113357600080fd5b50565b6000813590506111458161111f565b92915050565b600061115e611159846110bc565b6110a1565b90508083825260208201905060208402830185811115611181576111806110e8565b5b835b818110156111aa57806111968882611136565b845260208401935050602081019050611183565b5050509392505050565b600082601f8301126111c9576111c861102b565b5b81356111d984826020860161114b565b91505092915050565b6000819050919050565b6111f5816111e2565b811461120057600080fd5b50565b600081359050611212816111ec565b92915050565b6000806040838503121561122f5761122e611021565b5b600083013567ffffffffffffffff81111561124d5761124c611026565b5b611259858286016111b4565b925050602061126a85828601611203565b9150509250929050565b60008115159050919050565b61128981611274565b82525050565b60006020820190506112a46000830184611280565b92915050565b6112b38161110d565b82525050565b60006020820190506112ce60008301846112aa565b92915050565b6000806000606084860312156112ed576112ec611021565b5b60006112fb86828701611136565b935050602061130c86828701611136565b925050604061131d86828701611203565b9150509250925092565b600067ffffffffffffffff82111561134257611341611041565b5b602082029050602081019050919050565b600061136661136184611327565b6110a1565b90508083825260208201905060208402830185811115611389576113886110e8565b5b835b818110156113b2578061139e8882611203565b84526020840193505060208101905061138b565b5050509392505050565b600082601f8301126113d1576113d061102b565b5b81356113e1848260208601611353565b91505092915050565b6000806040838503121561140157611400611021565b5b600083013567ffffffffffffffff81111561141f5761141e611026565b5b61142b858286016111b4565b925050602083013567ffffffffffffffff81111561144c5761144b611026565b5b611458858286016113bc565b9150509250929050565b60008060006060848603121561147b5761147a611021565b5b600061148986828701611136565b935050602084013567ffffffffffffffff8111156114aa576114a9611026565b5b6114b6868287016111b4565b92505060406114c786828701611203565b9150509250925092565b6000806000606084860312156114ea576114e9611021565b5b60006114f886828701611136565b935050602084013567ffffffffffffffff81111561151957611518611026565b5b611525868287016111b4565b925050604084013567ffffffffffffffff81111561154657611545611026565b5b611552868287016113bc565b9150509250925092565b6000806040838503121561157357611572611021565b5b600061158185828601611136565b925050602061159285828601611203565b9150509250929050565b6000602082840312156115b2576115b1611021565b5b60006115c084828501611136565b91505092915050565b600082825260208201905092915050565b7f596f75206d7573742073656e6420657468000000000000000000000000000000600082015250565b60006116106011836115c9565b915061161b826115da565b602082019050919050565b6000602082019050818103600083015261163f81611603565b9050919050565b7f4e487b7100000000000000000000000000000000000000000000000000000000600052603260045260246000fd5b7f4e487b7100000000000000000000000000000000000000000000000000000000600052601160045260246000fd5b60006116af826111e2565b91507fffffffffffffffffffffffffffffffffffffffffffffffffffffffffffffffff82036116e1576116e0611675565b5b600182019050919050565b600081905092915050565b50565b60006117076000836116ec565b9150611712826116f7565b600082019050919050565b6000611728826116fa565b9150819050919050565b7f5472616e73666572206661696c65642e00000000000000000000000000000000600082015250565b60006117686010836115c9565b915061177382611732565b602082019050919050565b600060208201905081810360008301526117978161175b565b9050919050565b7f6f6e6c794f776e65720000000000000000000000000000000000000000000000600082015250565b60006117d46009836115c9565b91506117df8261179e565b602082019050919050565b60006020820190508181036000830152611803816117c7565b9050919050565b611813816111e2565b82525050565b600060408201905061182e60008301856112aa565b61183b602083018461180a565b9392505050565b61184b81611274565b811461185657600080fd5b50565b60008151905061186881611842565b92915050565b60006020828403121561188457611883611021565b5b600061189284828501611859565b91505092915050565b7f5f61646472657373657341727261792e6c656e67746820213d205f616d6f756e60008201527f747341727261792e6c656e677468000000000000000000000000000000000000602082015250565b60006118f7602e836115c9565b91506119028261189b565b604082019050919050565b60006020820190508181036000830152611926816118ea565b9050919050565b6000819050919050565b600061195261194d611948846110ed565b61192d565b6110ed565b9050919050565b600061196482611937565b9050919050565b600061197682611959565b9050919050565b6119868161196b565b82525050565b60006060820190506119a1600083018661197d565b6119ae60208301856112aa565b6119bb604083018461180a565b949350505050565b7f4661696c656420746f2073656e64204574686572000000000000000000000000600082015250565b60006119f96014836115c9565b9150611a04826119c3565b602082019050919050565b60006020820190508181036000830152611a28816119ec565b9050919050565b6000611a3a826111e2565b9150611a45836111e2565b9250828202611a53816111e2565b91508282048414831517611a6a57611a69611675565b5b5092915050565b7f4e487b7100000000000000000000000000000000000000000000000000000000600052601260045260246000fd5b6000611aab826111e2565b9150611ab6836111e2565b925082611ac657611ac5611a71565b5b828204905092915050565b7f536166654d6174683a206d756c7469706c69636174696f6e206f766572666c6f60008201527f7700000000000000000000000000000000000000000000000000000000000000602082015250565b6000611b2d6021836115c9565b9150611b3882611ad1565b604082019050919050565b60006020820190508181036000830152611b5c81611b20565b9050919050565b7f4f776e61626c653a206e6577206f776e657220697320746865207a65726f206160008201527f6464726573730000000000000000000000000000000000000000000000000000602082015250565b6000611bbf6026836115c9565b9150611bca82611b63565b604082019050919050565b60006020820190508181036000830152611bee81611bb2565b9050919050565b600081519050919050565b60005b83811015611c1e578082015181840152602081019050611c03565b60008484015250505050565b6000611c3582611bf5565b611c3f81856115c9565b9350611c4f818560208601611c00565b611c5881611030565b840191505092915050565b60006020820190508181036000830152611c7d8184611c2a565b905092915050565b6000611c90826111e2565b9150611c9b836111e2565b9250828203905081811115611cb357611cb2611675565b5b92915050565b6000611cc4826111e2565b9150611ccf836111e2565b9250828201905080821115611ce757611ce6611675565b5b92915050565b7f536166654d6174683a206164646974696f6e206f766572666c6f770000000000600082015250565b6000611d23601b836115c9565b9150611d2e82611ced565b602082019050919050565b60006020820190508181036000830152611d5281611d16565b905091905056fea26469706673582212209dec8c112b868e7d98d5c52e30a04b7c4632f65c2e1276d811725cf740a7d37864736f6c63430008130033",
  "linkReferences": {},
  "deployedLinkReferences": {}
}