{
  "_format": "hh-sol-artifact-1",
  "contractName": "SimpleToken",
  "sourceName": "contracts/MultiTransfer.sol",
  "abi": [
    {
      "inputs": [],
      "stateMutability": "nonpayable",
      "type": "constructor"
    },
    {
      "anonymous": false,
      "inputs": [
        {
          "indexed": true,
          "internalType": "address",
          "name": "owner",
          "type": "address"
        },
        {
          "indexed": true,
          "internalType": "address",
          "name": "spender",
          "type": "address"
        },
        {
          "indexed": false,
          "internalType": "uint256",
          "name": "value",
          "type": "uint256"
        }
      ],
      "name": "Approval",
      "type": "event"
    },
    {
      "anonymous": false,
      "inputs": [
        {
          "indexed": true,
          "internalType": "address",
          "name": "previousOwner",
          "type": "address"
        },
        {
          "indexed": true,
          "internalType": "address",
          "name": "newOwner",
          "type": "address"
        }
      ],
      "name": "OwnershipTransferred",
      "type": "event"
    },
    {
      "anonymous": false,
      "inputs": [
        {
          "indexed": true,
          "internalType": "address",
          "name": "from",
          "type": "address"
        },
        {
          "indexed": true,
          "internalType": "address",
          "name": "to",
          "type": "address"
        },
        {
          "indexed": false,
          "internalType": "uint256",
          "name": "value",
          "type": "uint256"
        }
      ],
      "name": "Transfer",
      "type": "event"
    },
    {
      "inputs": [],
      "name": "_decimals",
      "outputs": [
        {
          "internalType": "uint8",
          "name": "",
          "type": "uint8"
        }
      ],
      "stateMutability": "view",
      "type": "function"
    },
    {
      "inputs": [],
      "name": "_name",
      "outputs": [
        {
          "internalType": "string",
          "name": "",
          "type": "string"
        }
      ],
      "stateMutability": "view",
      "type": "function"
    },
    {
      "inputs": [],
      "name": "_symbol",
      "outputs": [
        {
          "internalType": "string",
          "name": "",
          "type": "string"
        }
      ],
      "stateMutability": "view",
      "type": "function"
    },
    {
      "inputs": [
        {
          "internalType": "address",
          "name": "addressOwner",
          "type": "address"
        },
        {
          "internalType": "address",
          "name": "spender",
          "type": "address"
        }
      ],
      "name": "allowance",
      "outputs": [
        {
          "internalType": "uint256",
          "name": "",
          "type": "uint256"
        }
      ],
      "stateMutability": "view",
      "type": "function"
    },
    {
      "inputs": [
        {
          "internalType": "address",
          "name": "spender",
          "type": "address"
        },
        {
          "internalType": "uint256",
          "name": "amount",
          "type": "uint256"
        }
      ],
      "name": "approve",
      "outputs": [
        {
          "internalType": "bool",
          "name": "",
          "type": "bool"
        }
      ],
      "stateMutability": "nonpayable",
      "type": "function"
    },
    {
      "inputs": [
        {
          "internalType": "address",
          "name": "account",
          "type": "address"
        }
      ],
      "name": "balanceOf",
      "outputs": [
        {
          "internalType": "uint256",
          "name": "",
          "type": "uint256"
        }
      ],
      "stateMutability": "view",
      "type": "function"
    },
    {
      "inputs": [],
      "name": "decimals",
      "outputs": [
        {
          "internalType": "uint8",
          "name": "",
          "type": "uint8"
        }
      ],
      "stateMutability": "view",
      "type": "function"
    },
    {
      "inputs": [
        {
          "internalType": "address",
          "name": "spender",
          "type": "address"
        },
        {
          "internalType": "uint256",
          "name": "subtractedValue",
          "type": "uint256"
        }
      ],
      "name": "decreaseAllowance",
      "outputs": [
        {
          "internalType": "bool",
          "name": "",
          "type": "bool"
        }
      ],
      "stateMutability": "nonpayable",
      "type": "function"
    },
    {
      "inputs": [],
      "name": "getOwner",
      "outputs": [
        {
          "internalType": "address",
          "name": "",
          "type": "address"
        }
      ],
      "stateMutability": "view",
      "type": "function"
    },
    {
      "inputs": [
        {
          "internalType": "address",
          "name": "spender",
          "type": "address"
        },
        {
          "internalType": "uint256",
          "name": "addedValue",
          "type": "uint256"
        }
      ],
      "name": "increaseAllowance",
      "outputs": [
        {
          "internalType": "bool",
          "name": "",
          "type": "bool"
        }
      ],
      "stateMutability": "nonpayable",
      "type": "function"
    },
    {
      "inputs": [],
      "name": "name",
      "outputs": [
        {
          "internalType": "string",
          "name": "",
          "type": "string"
        }
      ],
      "stateMutability": "view",
      "type": "function"
    },
    {
      "inputs": [],
      "name": "owner",
      "outputs": [
        {
          "internalType": "address",
          "name": "",
          "type": "address"
        }
      ],
      "stateMutability": "view",
      "type": "function"
    },
    {
      "inputs": [],
      "name": "renounceOwnership",
      "outputs": [],
      "stateMutability": "nonpayable",
      "type": "function"
    },
    {
      "inputs": [],
      "name": "symbol",
      "outputs": [
        {
          "internalType": "string",
          "name": "",
          "type": "string"
        }
      ],
      "stateMutability": "view",
      "type": "function"
    },
    {
      "inputs": [],
      "name": "totalSupply",
      "outputs": [
        {
          "internalType": "uint256",
          "name": "",
          "type": "uint256"
        }
      ],
      "stateMutability": "view",
      "type": "function"
    },
    {
      "inputs": [
        {
          "internalType": "address",
          "name": "recipient",
          "type": "address"
        },
        {
          "internalType": "uint256",
          "name": "amount",
          "type": "uint256"
        }
      ],
      "name": "transfer",
      "outputs": [
        {
          "internalType": "bool",
          "name": "",
          "type": "bool"
        }
      ],
      "stateMutability": "nonpayable",
      "type": "function"
    },
    {
      "inputs": [
        {
          "internalType": "address",
          "name": "sender",
          "type": "address"
        },
        {
          "internalType": "address",
          "name": "recipient",
          "type": "address"
        },
        {
          "internalType": "uint256",
          "name": "amount",
          "type": "uint256"
        }
      ],
      "name": "transferFrom",
      "outputs": [
        {
          "internalType": "bool",
          "name": "",
          "type": "bool"
        }
      ],
      "stateMutability": "nonpayable",
      "type": "function"
    },
    {
      "inputs": [
        {
          "internalType": "address",
          "name": "sender",
          "type": "address"
        },
        {
          "internalType": "address[]",
          "name": "recipients",
          "type": "address[]"
        },
        {
          "internalType": "uint256[]",
          "name": "amounts",
          "type": "uint256[]"
        }
      ],
      "name": "transferFromMulti",
      "outputs": [
        {
          "internalType": "bool",
          "name": "",
          "type": "bool"
        }
      ],
      "stateMutability": "nonpayable",
      "type": "function"
    },
    {
      "inputs": [
        {
          "internalType": "address",
          "name": "sender",
          "type": "address"
        },
        {
          "internalType": "address[]",
          "name": "recipients",
          "type": "address[]"
        },
        {
          "internalType": "uint256",
          "name": "amount",
          "type": "uint256"
        }
      ],
      "name": "transferFromMultiEqual",
      "outputs": [
        {
          "internalType": "bool",
          "name": "",
          "type": "bool"
        }
      ],
      "stateMutability": "nonpayable",
      "type": "function"
    },
    {
      "inputs": [
        {
          "internalType": "address",
          "name": "newOwner",
          "type": "address"
        }
      ],
      "name": "transferOwnership",
      "outputs": [],
      "stateMutability": "nonpayable",
      "type": "function"
    }
  ],
  "bytecode": "0x60806040523480156200001157600080fd5b506000620000246200023360201b60201c565b9050806000806101000a81548173ffffffffffffffffffffffffffffffffffffffff021916908373ffffffffffffffffffffffffffffffffffffffff1602179055508073ffffffffffffffffffffffffffffffffffffffff16600073ffffffffffffffffffffffffffffffffffffffff167f8be0079c531659141344cd1fd0a4f28419497f9722a3daafe3b4186f6b6457e060405160405180910390a3506040518060400160405280600681526020017f4b6f6d726f6e000000000000000000000000000000000000000000000000000081525060069081620001089190620004b5565b506040518060400160405280600381526020017f4b4d520000000000000000000000000000000000000000000000000000000000815250600590816200014f9190620004b5565b506012600460006101000a81548160ff021916908360ff16021790555069d3c21bcecceda1000000600381905550600354600160003373ffffffffffffffffffffffffffffffffffffffff1673ffffffffffffffffffffffffffffffffffffffff168152602001908152602001600020819055503373ffffffffffffffffffffffffffffffffffffffff16600073ffffffffffffffffffffffffffffffffffffffff167fddf252ad1be2c89b69c2b068fc378daa952ba7f163c4a11628f55a4df523b3ef600354604051620002259190620005ad565b60405180910390a3620005ca565b600033905090565b600081519050919050565b7f4e487b7100000000000000000000000000000000000000000000000000000000600052604160045260246000fd5b7f4e487b7100000000000000000000000000000000000000000000000000000000600052602260045260246000fd5b60006002820490506001821680620002bd57607f821691505b602082108103620002d357620002d262000275565b5b50919050565b60008190508160005260206000209050919050565b60006020601f8301049050919050565b600082821b905092915050565b6000600883026200033d7fffffffffffffffffffffffffffffffffffffffffffffffffffffffffffffffff82620002fe565b620003498683620002fe565b95508019841693508086168417925050509392505050565b6000819050919050565b6000819050919050565b600062000396620003906200038a8462000361565b6200036b565b62000361565b9050919050565b6000819050919050565b620003b28362000375565b620003ca620003c1826200039d565b8484546200030b565b825550505050565b600090565b620003e1620003d2565b620003ee818484620003a7565b505050565b5b8181101562000416576200040a600082620003d7565b600181019050620003f4565b5050565b601f82111562000465576200042f81620002d9565b6200043a84620002ee565b810160208510156200044a578190505b620004626200045985620002ee565b830182620003f3565b50505b505050565b600082821c905092915050565b60006200048a600019846008026200046a565b1980831691505092915050565b6000620004a5838362000477565b9150826002028217905092915050565b620004c0826200023b565b67ffffffffffffffff811115620004dc57620004db62000246565b5b620004e88254620002a4565b620004f58282856200041a565b600060209050601f8311600181146200052d576000841562000518578287015190505b62000524858262000497565b86555062000594565b601f1984166200053d86620002d9565b60005b82811015620005675784890151825560018201915060208501945060208101905062000540565b8683101562000587578489015162000583601f89168262000477565b8355505b6001600288020188555050505b505050505050565b620005a78162000361565b82525050565b6000602082019050620005c460008301846200059c565b92915050565b6120a380620005da6000396000f3fe608060405234801561001057600080fd5b506004361061012c5760003560e01c8063893d20e8116100ad578063b09f126611610071578063b09f12661461035d578063d28d88521461037b578063dd62ed3e14610399578063e684997e146103c9578063f2fde38b146103f95761012c565b8063893d20e8146102a35780638da5cb5b146102c157806395d89b41146102df578063a457c2d7146102fd578063a9059cbb1461032d5761012c565b806332424aa3116100f457806332424aa3146101eb578063395093511461020957806343781ee11461023957806370a0823114610269578063715018a6146102995761012c565b806306fdde0314610131578063095ea7b31461014f57806318160ddd1461017f57806323b872dd1461019d578063313ce567146101cd575b600080fd5b610139610415565b60405161014691906115c8565b60405180910390f35b61016960048036038101906101649190611692565b6104a7565b60405161017691906116ed565b60405180910390f35b6101876104be565b6040516101949190611717565b60405180910390f35b6101b760048036038101906101b29190611732565b6104c8565b6040516101c491906116ed565b60405180910390f35b6101d5610593565b6040516101e291906117a1565b60405180910390f35b6101f36105aa565b60405161020091906117a1565b60405180910390f35b610223600480360381019061021e9190611692565b6105bd565b60405161023091906116ed565b60405180910390f35b610253600480360381019061024e9190611904565b610662565b60405161026091906116ed565b60405180910390f35b610283600480360381019061027e9190611973565b610766565b6040516102909190611717565b60405180910390f35b6102a16107af565b005b6102ab610902565b6040516102b891906119af565b60405180910390f35b6102c9610911565b6040516102d691906119af565b60405180910390f35b6102e761093a565b6040516102f491906115c8565b60405180910390f35b61031760048036038101906103129190611692565b6109cc565b60405161032491906116ed565b60405180910390f35b61034760048036038101906103429190611692565b610aa8565b60405161035491906116ed565b60405180910390f35b610365610abf565b60405161037291906115c8565b60405180910390f35b610383610b4d565b60405161039091906115c8565b60405180910390f35b6103b360048036038101906103ae91906119ca565b610bdb565b6040516103c09190611717565b60405180910390f35b6103e360048036038101906103de9190611acd565b610c62565b6040516103f091906116ed565b60405180910390f35b610413600480360381019061040e9190611973565b610d9a565b005b60606006805461042490611b87565b80601f016020809104026020016040519081016040528092919081815260200182805461045090611b87565b801561049d5780601f106104725761010080835404028352916020019161049d565b820191906000526020600020905b81548152906001019060200180831161048057829003601f168201915b5050505050905090565b60006104b4338484610e3b565b6001905092915050565b6000600354905090565b60006104d5848484611004565b61058884336105838560405180606001604052806021815260200161204d60219139600260008b73ffffffffffffffffffffffffffffffffffffffff1673ffffffffffffffffffffffffffffffffffffffff16815260200190815260200160002060003373ffffffffffffffffffffffffffffffffffffffff1673ffffffffffffffffffffffffffffffffffffffff168152602001908152602001600020546112f89092919063ffffffff16565b610e3b565b600190509392505050565b6000600460009054906101000a900460ff16905090565b600460009054906101000a900460ff1681565b6000610658338461065385600260003373ffffffffffffffffffffffffffffffffffffffff1673ffffffffffffffffffffffffffffffffffffffff16815260200190815260200160002060008973ffffffffffffffffffffffffffffffffffffffff1673ffffffffffffffffffffffffffffffffffffffff1681526020019081526020016000205461135c90919063ffffffff16565b610e3b565b6001905092915050565b6000805b835181101561075a576106948585838151811061068657610685611bb8565b5b602002602001015185611004565b61074785336107428660405180606001604052806021815260200161204d60219139600260008c73ffffffffffffffffffffffffffffffffffffffff1673ffffffffffffffffffffffffffffffffffffffff16815260200190815260200160002060003373ffffffffffffffffffffffffffffffffffffffff1673ffffffffffffffffffffffffffffffffffffffff168152602001908152602001600020546112f89092919063ffffffff16565b610e3b565b808061075290611c16565b915050610666565b50600190509392505050565b6000600160008373ffffffffffffffffffffffffffffffffffffffff1673ffffffffffffffffffffffffffffffffffffffff168152602001908152602001600020549050919050565b6107b76113ba565b73ffffffffffffffffffffffffffffffffffffffff1660008054906101000a900473ffffffffffffffffffffffffffffffffffffffff1673ffffffffffffffffffffffffffffffffffffffff1614610844576040517f08c379a000000000000000000000000000000000000000000000000000000000815260040161083b90611caa565b60405180910390fd5b600073ffffffffffffffffffffffffffffffffffffffff1660008054906101000a900473ffffffffffffffffffffffffffffffffffffffff1673ffffffffffffffffffffffffffffffffffffffff167f8be0079c531659141344cd1fd0a4f28419497f9722a3daafe3b4186f6b6457e060405160405180910390a360008060006101000a81548173ffffffffffffffffffffffffffffffffffffffff021916908373ffffffffffffffffffffffffffffffffffffffff160217905550565b600061090c610911565b905090565b60008060009054906101000a900473ffffffffffffffffffffffffffffffffffffffff16905090565b60606005805461094990611b87565b80601f016020809104026020016040519081016040528092919081815260200182805461097590611b87565b80156109c25780601f10610997576101008083540402835291602001916109c2565b820191906000526020600020905b8154815290600101906020018083116109a557829003601f168201915b5050505050905090565b6000610a9e3384610a99856040518060400160405280601e81526020017f44656372656173656420616c6c6f77616e63652062656c6f77207a65726f0000815250600260003373ffffffffffffffffffffffffffffffffffffffff1673ffffffffffffffffffffffffffffffffffffffff16815260200190815260200160002060008a73ffffffffffffffffffffffffffffffffffffffff1673ffffffffffffffffffffffffffffffffffffffff168152602001908152602001600020546112f89092919063ffffffff16565b610e3b565b6001905092915050565b6000610ab5338484611004565b6001905092915050565b60058054610acc90611b87565b80601f0160208091040260200160405190810160405280929190818152602001828054610af890611b87565b8015610b455780601f10610b1a57610100808354040283529160200191610b45565b820191906000526020600020905b815481529060010190602001808311610b2857829003601f168201915b505050505081565b60068054610b5a90611b87565b80601f0160208091040260200160405190810160405280929190818152602001828054610b8690611b87565b8015610bd35780601f10610ba857610100808354040283529160200191610bd3565b820191906000526020600020905b815481529060010190602001808311610bb657829003601f168201915b505050505081565b6000600260008473ffffffffffffffffffffffffffffffffffffffff1673ffffffffffffffffffffffffffffffffffffffff16815260200190815260200160002060008373ffffffffffffffffffffffffffffffffffffffff1673ffffffffffffffffffffffffffffffffffffffff16815260200190815260200160002054905092915050565b6000805b8351811015610d8e57610cae85858381518110610c8657610c85611bb8565b5b6020026020010151858481518110610ca157610ca0611bb8565b5b6020026020010151611004565b610d7b8533610d76868581518110610cc957610cc8611bb8565b5b602002602001015160405180606001604052806021815260200161204d60219139600260008c73ffffffffffffffffffffffffffffffffffffffff1673ffffffffffffffffffffffffffffffffffffffff16815260200190815260200160002060003373ffffffffffffffffffffffffffffffffffffffff1673ffffffffffffffffffffffffffffffffffffffff168152602001908152602001600020546112f89092919063ffffffff16565b610e3b565b8080610d8690611c16565b915050610c66565b50600190509392505050565b610da26113ba565b73ffffffffffffffffffffffffffffffffffffffff1660008054906101000a900473ffffffffffffffffffffffffffffffffffffffff1673ffffffffffffffffffffffffffffffffffffffff1614610e2f576040517f08c379a0000000000000000000000000000000000000000000000000000000008152600401610e2690611caa565b60405180910390fd5b610e38816113c2565b50565b600073ffffffffffffffffffffffffffffffffffffffff168373ffffffffffffffffffffffffffffffffffffffff1603610eaa576040517f08c379a0000000000000000000000000000000000000000000000000000000008152600401610ea190611d16565b60405180910390fd5b600073ffffffffffffffffffffffffffffffffffffffff168273ffffffffffffffffffffffffffffffffffffffff1603610f19576040517f08c379a0000000000000000000000000000000000000000000000000000000008152600401610f1090611d82565b60405180910390fd5b80600260008573ffffffffffffffffffffffffffffffffffffffff1673ffffffffffffffffffffffffffffffffffffffff16815260200190815260200160002060008473ffffffffffffffffffffffffffffffffffffffff1673ffffffffffffffffffffffffffffffffffffffff168152602001908152602001600020819055508173ffffffffffffffffffffffffffffffffffffffff168373ffffffffffffffffffffffffffffffffffffffff167f8c5be1e5ebec7d5bd14f71427d1e84f3dd0314c0f7b2291e5b200ac8c7c3b92583604051610ff79190611717565b60405180910390a3505050565b600073ffffffffffffffffffffffffffffffffffffffff168373ffffffffffffffffffffffffffffffffffffffff1603611073576040517f08c379a000000000000000000000000000000000000000000000000000000000815260040161106a90611dee565b60405180910390fd5b600073ffffffffffffffffffffffffffffffffffffffff168273ffffffffffffffffffffffffffffffffffffffff16036110e2576040517f08c379a00000000000000000000000000000000000000000000000000000000081526004016110d990611e5a565b60405180910390fd5b600160008473ffffffffffffffffffffffffffffffffffffffff1673ffffffffffffffffffffffffffffffffffffffff16815260200190815260200160002054811115611164576040517f08c379a000000000000000000000000000000000000000000000000000000000815260040161115b90611ec6565b60405180910390fd5b6111b681600160008673ffffffffffffffffffffffffffffffffffffffff1673ffffffffffffffffffffffffffffffffffffffff168152602001908152602001600020546114ee90919063ffffffff16565b600160008573ffffffffffffffffffffffffffffffffffffffff1673ffffffffffffffffffffffffffffffffffffffff1681526020019081526020016000208190555061124b81600160008573ffffffffffffffffffffffffffffffffffffffff1673ffffffffffffffffffffffffffffffffffffffff1681526020019081526020016000205461135c90919063ffffffff16565b600160008473ffffffffffffffffffffffffffffffffffffffff1673ffffffffffffffffffffffffffffffffffffffff168152602001908152602001600020819055508173ffffffffffffffffffffffffffffffffffffffff168373ffffffffffffffffffffffffffffffffffffffff167fddf252ad1be2c89b69c2b068fc378daa952ba7f163c4a11628f55a4df523b3ef836040516112eb9190611717565b60405180910390a3505050565b6000838311158290611340576040517f08c379a000000000000000000000000000000000000000000000000000000000815260040161133791906115c8565b60405180910390fd5b506000838561134f9190611ee6565b9050809150509392505050565b600080828461136b9190611f1a565b9050838110156113b0576040517f08c379a00000000000000000000000000000000000000000000000000000000081526004016113a790611f9a565b60405180910390fd5b8091505092915050565b600033905090565b600073ffffffffffffffffffffffffffffffffffffffff168173ffffffffffffffffffffffffffffffffffffffff1603611431576040517f08c379a00000000000000000000000000000000000000000000000000000000081526004016114289061202c565b60405180910390fd5b8073ffffffffffffffffffffffffffffffffffffffff1660008054906101000a900473ffffffffffffffffffffffffffffffffffffffff1673ffffffffffffffffffffffffffffffffffffffff167f8be0079c531659141344cd1fd0a4f28419497f9722a3daafe3b4186f6b6457e060405160405180910390a3806000806101000a81548173ffffffffffffffffffffffffffffffffffffffff021916908373ffffffffffffffffffffffffffffffffffffffff16021790555050565b600061153083836040518060400160405280601e81526020017f536166654d6174683a207375627472616374696f6e206f766572666c6f7700008152506112f8565b905092915050565b600081519050919050565b600082825260208201905092915050565b60005b83811015611572578082015181840152602081019050611557565b60008484015250505050565b6000601f19601f8301169050919050565b600061159a82611538565b6115a48185611543565b93506115b4818560208601611554565b6115bd8161157e565b840191505092915050565b600060208201905081810360008301526115e2818461158f565b905092915050565b6000604051905090565b600080fd5b600080fd5b600073ffffffffffffffffffffffffffffffffffffffff82169050919050565b6000611629826115fe565b9050919050565b6116398161161e565b811461164457600080fd5b50565b60008135905061165681611630565b92915050565b6000819050919050565b61166f8161165c565b811461167a57600080fd5b50565b60008135905061168c81611666565b92915050565b600080604083850312156116a9576116a86115f4565b5b60006116b785828601611647565b92505060206116c88582860161167d565b9150509250929050565b60008115159050919050565b6116e7816116d2565b82525050565b600060208201905061170260008301846116de565b92915050565b6117118161165c565b82525050565b600060208201905061172c6000830184611708565b92915050565b60008060006060848603121561174b5761174a6115f4565b5b600061175986828701611647565b935050602061176a86828701611647565b925050604061177b8682870161167d565b9150509250925092565b600060ff82169050919050565b61179b81611785565b82525050565b60006020820190506117b66000830184611792565b92915050565b600080fd5b7f4e487b7100000000000000000000000000000000000000000000000000000000600052604160045260246000fd5b6117f98261157e565b810181811067ffffffffffffffff82111715611818576118176117c1565b5b80604052505050565b600061182b6115ea565b905061183782826117f0565b919050565b600067ffffffffffffffff821115611857576118566117c1565b5b602082029050602081019050919050565b600080fd5b600061188061187b8461183c565b611821565b905080838252602082019050602084028301858111156118a3576118a2611868565b5b835b818110156118cc57806118b88882611647565b8452602084019350506020810190506118a5565b5050509392505050565b600082601f8301126118eb576118ea6117bc565b5b81356118fb84826020860161186d565b91505092915050565b60008060006060848603121561191d5761191c6115f4565b5b600061192b86828701611647565b935050602084013567ffffffffffffffff81111561194c5761194b6115f9565b5b611958868287016118d6565b92505060406119698682870161167d565b9150509250925092565b600060208284031215611989576119886115f4565b5b600061199784828501611647565b91505092915050565b6119a98161161e565b82525050565b60006020820190506119c460008301846119a0565b92915050565b600080604083850312156119e1576119e06115f4565b5b60006119ef85828601611647565b9250506020611a0085828601611647565b9150509250929050565b600067ffffffffffffffff821115611a2557611a246117c1565b5b602082029050602081019050919050565b6000611a49611a4484611a0a565b611821565b90508083825260208201905060208402830185811115611a6c57611a6b611868565b5b835b81811015611a955780611a81888261167d565b845260208401935050602081019050611a6e565b5050509392505050565b600082601f830112611ab457611ab36117bc565b5b8135611ac4848260208601611a36565b91505092915050565b600080600060608486031215611ae657611ae56115f4565b5b6000611af486828701611647565b935050602084013567ffffffffffffffff811115611b1557611b146115f9565b5b611b21868287016118d6565b925050604084013567ffffffffffffffff811115611b4257611b416115f9565b5b611b4e86828701611a9f565b9150509250925092565b7f4e487b7100000000000000000000000000000000000000000000000000000000600052602260045260246000fd5b60006002820490506001821680611b9f57607f821691505b602082108103611bb257611bb1611b58565b5b50919050565b7f4e487b7100000000000000000000000000000000000000000000000000000000600052603260045260246000fd5b7f4e487b7100000000000000000000000000000000000000000000000000000000600052601160045260246000fd5b6000611c218261165c565b91507fffffffffffffffffffffffffffffffffffffffffffffffffffffffffffffffff8203611c5357611c52611be7565b5b600182019050919050565b7f6f6e6c794f776e65720000000000000000000000000000000000000000000000600082015250565b6000611c94600983611543565b9150611c9f82611c5e565b602082019050919050565b60006020820190508181036000830152611cc381611c87565b9050919050565b7f417070726f76652066726f6d20746865207a65726f2061646472657373000000600082015250565b6000611d00601d83611543565b9150611d0b82611cca565b602082019050919050565b60006020820190508181036000830152611d2f81611cf3565b9050919050565b7f417070726f766520746f20746865207a65726f20616464726573730000000000600082015250565b6000611d6c601b83611543565b9150611d7782611d36565b602082019050919050565b60006020820190508181036000830152611d9b81611d5f565b9050919050565b7f5472616e736665722066726f6d20746865207a65726f20616464726573730000600082015250565b6000611dd8601e83611543565b9150611de382611da2565b602082019050919050565b60006020820190508181036000830152611e0781611dcb565b9050919050565b7f5472616e7366657220746f20746865207a65726f206164647265737300000000600082015250565b6000611e44601c83611543565b9150611e4f82611e0e565b602082019050919050565b60006020820190508181036000830152611e7381611e37565b9050919050565b7f5472616e7366657220616d6f756e7420657863656564732062616c616e636500600082015250565b6000611eb0601f83611543565b9150611ebb82611e7a565b602082019050919050565b60006020820190508181036000830152611edf81611ea3565b9050919050565b6000611ef18261165c565b9150611efc8361165c565b9250828203905081811115611f1457611f13611be7565b5b92915050565b6000611f258261165c565b9150611f308361165c565b9250828201905080821115611f4857611f47611be7565b5b92915050565b7f536166654d6174683a206164646974696f6e206f766572666c6f770000000000600082015250565b6000611f84601b83611543565b9150611f8f82611f4e565b602082019050919050565b60006020820190508181036000830152611fb381611f77565b9050919050565b7f4f776e61626c653a206e6577206f776e657220697320746865207a65726f206160008201527f6464726573730000000000000000000000000000000000000000000000000000602082015250565b6000612016602683611543565b915061202182611fba565b604082019050919050565b6000602082019050818103600083015261204581612009565b905091905056fe5472616e7366657220616d6f756e74206578636565647320616c6c6f77616e6365a26469706673582212206ac85883fcf41b8aeb087a5b6b617977e652dad0dccb8b7bf23e99c5295b672564736f6c63430008130033",
  "linkReferences": {},
  "deployedLinkReferences": {}
}